S01800006275696C642F6D6963617A2F6D61696E2E73726563E5
S11300000C946F000C94AB0A0C94B50A0C94BF0AC0
S11300100C94C90A0C94D30A0C94DD0A0C9499111B
S11300200C94E70A0C948E000C948E000C94302EE1
S11300300C94C3210C94750A0C948B0A0C94FA0C3E
S11300400C94640A0C94F7230C948E000C948E0088
S11300500C948E000C949F0F0C948E000C948E00C4
S11300600C94800A0C942E0C0C94D70B0C94180C42
S11300700C94230C0C94410C0C948E000C948E0064
S11300800C948E000C948E000C948E008F244925C1
S113009057259A25B425BA25F425A626C926DE2691
S11300A0E126E426E726F9268024212724270F28A1
S11300B0DD28FD2810291C291F29232926292A295E
S11300C03B294C29A129EB2AFA2A252B282B2C2B56
S11300D0652B9C2BA42B872400081C1814101124B6
S11300E01FBECFEFD0E1DEBFCDBF11E0A0E0B1E095
S11300F0ECE1F4E600E00BBF02C007900D92A831DA
S1130100B107D9F717E0A8E1B1E001C01D92A93AFF
S1130110B107E1F70E94FF2B0C940D320C94000000
S11301208FB7F894992708958FBF08952F923F921F
S11301304F925F926F927F928F929F92AF92BF92F3
S1130140CF92DF92EF92FF920F931F935B016C01AA
S113015019012A01A80197010E94B4313B014C0105
S1130160C601B501A80197010E94B431CA01B901C1
S1130170A20191010E9462315B016C01C401B301CF
S11301800E946231A80197010E94B431A20EB31EED
S1130190C41ED51EC601B5011F910F91FF90EF90AB
S11301A0DF90CF90BF90AF909F908F907F906F9093
S11301B05F904F903F902F900895282F9FB7F89409
S11301C0662349F0E82FFF27E55AFB4F80818823F7
S11301D011F021E006C0E22FFF27E55AFB4F6083B0
S11301E020E0892F99278FBF822F99270895E82F20
S11301F08FB7F894282F332790E0FF27E55AFB4F59
S11302008081861709F491E02FBF892F99270895DB
S113021060E080E00E94F70099270895682F81E04C
S11302200E94F70099270895882311F06E9A089583
S11302306E980895882311F06F9A08956F98089521
S113024080E00E941401BA9ABB98B99A6C9A80E033
S11302500E941A01709A6B986A98689881E00E94CB
S1130260140108950F931F93CF93DF93182F8FB723
S1130270F894C82FDD270C2F61E080E00E94DD0098
S1130280882321F0CFBF85E090E024C08091050150
S11302908823A1F480912001823081F409C082E096
S11302A080932001109205010E942001B89AC09801
S11302B01093020180E00FBF99270CC080912001A8
S11302C0882369F38FB7F894992710925B048FBF42
S11302D081E0F1CFDF91CF911F910F910895282FE5
S11302E09FB7F894E82FFF27E551FE4F80818F3F99
S11302F081F4E0918F07E21771F40BC020935D073E
S113030004C0FF27E551FE4F208320938F0720E090
S113031007C025E005C080915D078F3F91F7EECFC0
S1130320892F99278FBF822F9927089581E00E94F2
S11303306F019927089584E00E946F019927089519
S113034085E00E946F01992708958FB7F894992743
S113035060931B018FBF82E00E946F01089586E0C5
S11303600E946F019927089583E10E946F019927E4
S113037008958DE00E946F019927089585E20E94F7
S11303806F01992708951F93182F81E00E9414018B
S11303901FB9779BFECF8FB199271F9108958F9234
S11303A09F92AF92BF92CF92DF92EF92FF920F9300
S11303B01F93CF93DF938FB7F8949927C0908A0740
S11303C0D0908B078090C9039090CA03C091F80223
S11303D0D091F90220915601309157019AE0A92E4B
S11303E0B12CAC0EBD1E2A153B0508F459018FBF74
S11303F07401EC0EFD1E86010C0F1D1F14C0C114E8
S1130400D10419F0F801808101C080E00E94C30189
S11304108114910411F0F701808321960894E11C62
S1130420F11C0F5F1F4FC5010197C817D90738F397
S113043081E00E941A019FB7F894C114D10431F0ED
S1130440CC0EDD1EF60180818FB901C01FB8D09398
S1130450F902C093F802892F99278FBF80E090E0BA
S1130460DF91CF911F910F91FF90EF90DF90CF908C
S1130470BF90AF909F908F9008952FB7F894332733
S1130480509357014093560190938B0780938A07AA
S11304907093CA036093C9031092F9021092F80290
S11304A02FBF452B29F08FB10E94CF0199270895C2
S11304B087E00E946F0180E090E008958FB7F89480
S11304C0992710925D048FBF0895EF920F931F93A5
S11304D0AE2D99E0899FF0011124E858FC4F408328
S11304E05183628373830483158326833783A170C6
S11304F080858E7F8A2B826080878BE00E946F01CB
S11305001F910F91EF9008957FB7F89462B72091EF
S11305108E0130918F01409190015091910106B666
S113052001FE0FC081B792B7280F311D411D511D27
S11305302F5F3F4F4F4F5F4F290F311D411D511DFD
S113054004C0260F311D411D511D872F99278FBFD0
S1130550CA01B9010895AF92BF92CF92DF92EF9290
S1130560FF920F931F93F82E5A016B010E9484028D
S1130570AB01BC01EE24960185018F2D0E9465021A
S11305801F910F91FF90EF90DF90CF90BF90AF90AD
S113059008958FB7F89499272BB334E023272BBB06
S11305A08FBF089583E090E0909363078093620780
S11305B00E94C9020895FC01892B69F08091F70615
S11305C09091F8062FEF8F3F920729F09183808353
S11305D080E090E0089581E090E00895AC013091CE
S11305E0E8018FEF4F3F580711F020E012C0832F2E
S11305F099270895E22FFF2763E0EE0FFF1F6A9506
S1130600E1F7EB5CFD4F808191818417950719F028
S11306102F5F231779F7822F992708952F923F92FE
S11306204F925F926F927F928F929F92AF92BF92FE
S1130630CF92DF92EF92FF920F931F93CF93DF93AA
S1130640CDB7DEB729970FB6F894DEBF0FBECDBF86
S11306506FB76983F8942090CF023090D002409015
S1130660D1025090D202662477248824FEE4AF2E6F
S1130670E3E8BE2ECC24DD24EE24FF2400E010E0C9
S1130680222D332D442D552D662D772D882D90E068
S11306900E94D12F2A833B834C835D836E837F83A7
S11306A088879987822E932EA42EB52E2401350196
S11306B000E20E94CF30A22EB32EC42ED52EA30169
S11306C0920156954795379527952A0D3B1D4C1D4C
S11306D05D1D57FF05C05F772F5F3F4F4F4F5F4F43
S11306E02093CF023093D0024093D1025093D20290
S11306F0E9818E2F99278FBFCA01B90129960FB6B8
S1130700F894DEBF0FBECDBFDF91CF911F910F9143
S1130710FF90EF90DF90CF90BF90AF909F908F901D
S11307207F906F905F904F903F902F9008950E941C
S11307300E03DC01CB010895AF92BF92CF92DF92FA
S1130740EF92FF920F931F93F82E5A016B010E94B0
S11307508402AB01BC01A1E0EA2E960185018F2D34
S11307600E9465021F910F91FF90EF90DF90CF9050
S1130770BF90AF900895AB01BC0182E00E949C033E
S11307800895982F969596959695E6E0F3E0E90FEF
S1130790F11D877021E030E002C0220F331F8A95DB
S11307A0E2F78081822399270895EF92FF920F93B5
S11307B01F93CF93DF93982F8FB7F894E82E8091EF
S11307C03C01833009F045C080911401891709F078
S11307D040C080910603882309F046C03EC0EF2D37
S11307E0E695E695E695FF274F2D5527EA5FFC4FE2
S11307F09A012770307081E090E002C0880F991F41
S11308002A95E2F78095208128232083C0933B0119
S113081011C02196C330D10511F4C0E0D0E0FC2E04
S11308208C2F0E94C1038823D1F6C017D10789F702
S11308304FEF50E0409376038FEF8093140181E0F3
S113084080933C018BE10E946F01EFBE80E090E059
S113085011C0EFBE81E090E00DC083E080931401ED
S113086010923C013798F1CF80913B01082F11275A
S1130870E801CFCFDF91CF911F910F91FF90EF90BF
S11308800895982F969596959695EDEFF6E0E90FD5
S1130890F11D877021E030E002C0220F331F8A95DA
S11308A0E2F78081822399270895A49AAC9A41E1C2
S11308B050E060E070E086E00E949C0380E090E0FD
S11308C008959C01685F6D3118F080E090E0089510
S11308D00C9611F0C901449608959FB7F894292FF6
S11308E03327422F90911201981741F480913201DD
S11308F0833021F42FBF81E090E008954FBF80E062
S113090090E0089580E00E946D049927089581E0A5
S11309100E946D0499270895982F9695969596951B
S1130920E9EEF1E0E90FF11D877021E030E002C04B
S1130930220F331F8A95E2F7808182239927089535
S1130940AC01E8E0F3E080E090E09C01858180FF69
S113095005C0808191818417950741F0C9010196F2
S11309603B968A30910589F72FEF30E0C90108954D
S11309700E94A0048F3F91F099272BE030E0829FE2
S1130980F001839FF00D929FF00D1124E85FFC4F5E
S1130990858181FF03C08781908508958FEF90E062
S11309A00895AC0120912A012D3018F081E090E0E7
S11309B0089580912901E82FFF27EE0FFF1FE552CC
S11309C0F94F518340838F5F809329018D3011F457
S11309D0109229012F5F20932A0180E090E008956E
S11309E0782F522FBFB7F89480912D028E7F809379
S11309F02D0287B1A82FAF71262F332782958695B4
S1130A008695837099272817390719F020E030E07C
S1130A1013C0872F8850863118F021E030E00CC0D5
S1130A20E0E0F0E0272F33278A2F9927281739078A
S1130A3011F4E1E0F0E09F01E22FE1702E2F220F8C
S1130A4080912D028178372F3F71932F990F990F41
S1130A50822B892B80932D0241704295440F407E56
S1130A6040726295660F660F607C432B462B842F81
S1130A70992787B9583061F580915E0790915F0797
S1130A8021E08638920718F027E030E020C0833C4C
S1130A90910518F026E030E01AC08136910518F06F
S1130AA025E030E014C08033910518F024E030E0F4
S1130AB00EC08831910518F023E030E008C08C3076
S1130AC0910518F022E030E002C020E030E0522F1F
S1130AD05770887D852B886D992786B98B2F992728
S1130AE08FBF8E2F9927089580916807882321F05E
S1130AF0813021F428E00DC028E008C0882329F0C3
S1130B00813031F08FE120E005C020E081E002C0B7
S1130B1020E08EE140E060E00E94F00408958091BE
S1130B201601882319F08FE120E002C028E083E059
S1130B3040E060E00E94F0040895982F9695969501
S1130B409695E7E7F3E0E90FF11D877021E030E0C7
S1130B5002C0220F331F8A95E2F7808182239927EE
S1130B6008950F931F93CF93DF93182F8FB7F894A3
S1130B70282F3327022F80913201882331F581E019
S1130B8080933201109367042FBF8FB7F894C82F56
S1130B90DD279C2F809112018230A9F480913201CB
S1130BA0813021F482E10E946F0109C0823059F43E
S1130BB0809167048093120183E080933201CFBF58
S1130BC080E090E01FC09FBFFBCF812F0E949D0556
S1130BD0882319F085E090E014C0E12FE695E695AE
S1130BE0E695FF27E958FC4F177081E090E002C0BA
S1130BF0880F991F1A95E2F72081282B208380E023
S1130C0090E00FBFDF91CF911F910F91089580E085
S1130C100E94B1059927089581E00E94B1059927A2
S1130C2008950E94A0048F3F19F481E090E0089594
S1130C30282F33278BE090E0289FF001299FF00DA7
S1130C40389FF00D1124E85FFC4F8581886085830F
S1130C5080E090E008959C016E5F6D3118F080E0B3
S1130C6090E008950C9611F0C9010E960895FC01C8
S1130C7080899927982F882721893327822B932BC2
S1130C800895FC01CB01478150859A0163E0220F4E
S1130C90331F6A95E1F7240F351F2B5F3F4F820FF7
S1130CA0931F6AE070E00E948D3170876783089516
S1130CB0FC0161859285662339F48AE0989FB0012E
S1130CC011246A5070400BC077278AE0989FC001B6
S1130CD011240E94A1316A50704011861286CF01FE
S1130CE00E944106089580912801E82FFF27EE0F06
S1130CF0FF1FE552F94F0190F081E02D20912A0168
S1130D00222351F08F5F809328018D3011F41092CB
S1130D102801215020932A01CF010895FC018089E4
S1130D209927982F882721893327822B932B08957D
S1130D30AF92BF92DF92EF92FF920F931F93CF93E4
S1130D40DF935C01D0909201F090F602EE2425C06E
S1130D500F2D03701127C5010E948E06F801EE0FB6
S1130D60FF1FEE0FFF1FE00FF11FE95EFD4F208113
S1130D7031818217930779F4D5011C96ED019E8188
S1130D808281891741F499818481891721F49F8193
S1130D908381891721F0E394F394ED14C9F68E2D21
S1130DA09927DF91CF911F910F91FF90EF90DF90E2
S1130DB0BF90AF9008952091F3022C3018F081E099
S1130DC090E00895E091D602E20FEC3008F0EC5088
S1130DD0FF27EE0FFF1FE85CFB4F918380832F5F9B
S1130DE02093F30280E090E008952091F2022C30E9
S1130DF018F081E090E00895E0918107E20FEC3073
S1130E0008F0EC50FF27EE0FFF1FEF56F84F9183C9
S1130E1080832F5F2093F20280E090E008950F9387
S1130E201F93CF93DF93EC01892BF9F02091F70600
S1130E303091F8068FEF2F3F3807B9F08091930176
S1130E40813019F4198218820DC00091F9061091AD
S1130E50FA06C9010E94B804065F1F4F080F191F44
S1130E601983088380E090E002C081E090E0DF9184
S1130E70CF911F910F910895EF92FF920F931F93BB
S1130E800E948402DC01CB01E090C003F090C10316
S1130E900091C2031091C30340914D0150914E0142
S1130EA060914F0170915001411551056105710523
S1130EB0C1F03FB7F8942091030420FD0BC02E7FAE
S1130EC0209303048E199F09A00BB10B481B590BE7
S1130ED06A0B7B0B832F99278FBF88E00E949C03AA
S1130EE005C08091C8038D7F8093C8031F910F9123
S1130EF0FF90EF900895DF92EF92FF920F931F936C
S1130F008FB7F894282F3327D22E91B782B746B7DC
S1130F10981711F041FF02C02FBF6AC08091F702F9
S1130F208823E1F10E948402E0905704F090580471
S1130F300091590410915A042091A4013091A50103
S1130F404091A6015091A7016E197F09800B910B66
S1130F50621773078407950720F01092F70271E077
S1130F601EC02E0D3F1D401F511F80918E01909178
S1130F708F01A0919001B0919101281B390B4A0B6C
S1130F805B0B273E31054105510540F4822F223089
S1130F9010F070E005C070E082E002C070E086EE00
S1130FA0682F615000B601FCFDCF82B7681709F4C1
S1130FB06F5F20918E0130918F014091900150918B
S1130FC09101DA01C9010196A11DB11D860F911D80
S1130FD0A11DB11D82179307A407B50710F4622F52
S1130FE0609561BFDFBE772319F08AE00E946F012C
S1130FF01F910F91FF90EF90DF900895AFB7F89491
S1131000BB27E1E0E093F702609357047093580420
S11310108093590490935A042093A4013093A5011A
S11310204093A6015093A701AFBF0E947B07089588
S1131030FC0153E0F695E7955A95E1F7ED5FFB4F18
S11310408770907021E030E002C0220F331F8A9530
S1131050E2F78081822B808308959BE0899FF001D1
S11310601124E85FFC4F718360831282138214821F
S113107085E085831682108617820895AF92BF9209
S1131080CF92DF92EF92FF920F931F93CF93DF9350
S1131090E82EF62EA82EBB248BE090E0A89EF0014B
S11310A0A99EF00DB89EF00D1124E85FFC4F8581D8
S11310B082FF03C062838B7F858382810F2D081B8F
S11310C0F28283818F5F8383002321F08481800FE8
S11310D08150848383812481820F912D911D0397F4
S11310E01CF4033008F44FC0C080D180C8E0D3E0C2
S11310F0888199818C159D0509F03FC08D8180FF01
S11311003CC082608D836B811C81160F133008F400
S113111013E07727882799272FEF30E040E050E04D
S11311200E946231212F3327442755270E94B4316E
S11311308E8169E0869FC00111240596820F911D5E
S11311406AE070E00E94A1316E831B821C826623D8
S113115019F46FEF70E00EC0772786EF99E00E94D4
S1131160A1316A5070406F3F710519F010F06FEFB4
S113117070E07727CE010E9441062B9683E0C637A4
S1131180D80709F0B5CF0B30A8F08BE090E0A89E0B
S11311908001A99E100DB89E100D1124085F1C4FEC
S11311A0F801608171818E2D0E942D08F801F28270
S11311B081E08383DF91CF911F910F91FF90EF9096
S11311C0DF90CF90BF90AF90089580E090E0EDE085
S11311D0F3E09C01808180FF08C0C90101963B9621
S11311E08A309105B1F72FEF30E0C9010895982FA7
S11311F0AFEF60E070E040E050E0EDE0F3E08081CC
S1131200282F332720FF0BC021FF09C023FD07C06F
S1131210228133812617370710F0A42FB9014F5FBD
S11312205F4F3B964A30510551F7892F992768172C
S1131230790718F48FEF90E008958A2F992708957D
S1131240FC018081448555274F7050709A01220F0C
S1131250331F240F351F821B8F50992708951F9326
S1131260CF93DF93162FC0E0D0E06AE10E942B06F3
S1131270FC0180818123811711F4C1E0D0E0CE010B
S1131280DF91CF911F91089580E88093A801109277
S113129090021092690710925C0710922F02089531
S11312A00F931F930FB7F894112710921202109204
S11312B011020E944409C09A89B78F7B89BF0FBF6E
S11312C080E090E01F910F910895CF93DF93FC018C
S11312D015A6DC019E96ED011B821A82198280E814
S11312E086A7DF91CF9108958FB7F8946091040396
S11312F0709105032CB53DB506B602FE04C06F5FC0
S11313007F4F2CB53DB599278FBF88279927CB01EF
S11313107727662744275527622B732B842B952B1D
S11313200895EF92FF920F931F930E9474097B011B
S11313308C012091E0023091E1024091E20250914F
S1131340E3028091D9029091DA02A091DB02B0917C
S1131350DC02820F931FA41FB51FE216F3060407D5
S1131360150730F082179307A407B50758F005C096
S113137082179307A407B507E0F5E816F9060A07EC
S11313801B07B8F59C01AD012E193F09400B510B09
S1131390213060E8360760E0460760E0560768F1F0
S11313A080E090E8A0E0B0E0E80EF91E0A1F1B1FE1
S11313B0E092E002F092E1020093E2021093E30271
S11313C080E090E8AFEFBFEFE80EF91E0A1F1B1F85
S11313D020503048404050402093D9023093DA02E4
S11313E04093DB025093DC0220E030E840E050E020
S11313F014C020E030E040E050E08093E00290939D
S1131400E102A093E202B093E3021092D902109297
S1131410DA021092DB021092DC02A901B7012CB5AA
S11314203DB5C9018E199F0903968417950720F0CD
S1131430B9016D5F7F4F02C0640F751F611571059F
S113144011F461E070E0615070407BBD6ABD80E1E1
S113145086BF87B7806187BF1F910F91FF90EF9080
S113146008950F931F930FB7F89411276093E00228
S11314707093E1028093E2029093E3022093D902F5
S11314803093DA024093DB025093DC020E9491090C
S11314900FBF1F910F91089597B79F7D97BF90E25B
S11314A096BF882319F08EB5806402C08EB58F7BF9
S11314B08EBD87B7806287BF80E090E0089581E0A9
S11314C00E944C0A992708951F920F920FB60F920B
S11314D011248F9383B783BF00B600FCFDCF8F9197
S11314E00F900FBE0F901F90189578941F920F9233
S11314F00FB60F9211240F900FBE0F901F901895E6
S113150078941F920F920FB60F9211240F900FBE72
S11315100F901F90189578941F920F920FB60F9208
S113152011242F933F938F939F932FB7F8943327CE
S11315308091040390910503019690930503809391
S113154004032FBF9F918F913F912F910F900FBE56
S11315500F901F9018951F920F920FB60F9211249F
S11315600F900FBE0F901F9018951F920F920FB6F9
S11315700F9211240F900FBE0F901F9018951F9279
S11315800F920FB60F9211240F900FBE0F901F9061
S113159018951F920F920FB60F9211240F900FBE41
S11315A00F901F9018951F920F920FB60F9211244F
S11315B00F900FBE0F901F9018951F920F920FB6A9
S11315C00F9211240F900FBE0F901F9018951F9229
S11315D00F920FB60F9211240F900FBE0F901F9011
S11315E018959FB7F8946091D7027091D802209112
S11315F088003091890080917C0082FF06C06F5F73
S11316007F4F2091880030918900892F99278FBFBF
S113161088279927CB017727662744275527622BEC
S1131620732B842B952B0895EF92FF920F931F93A6
S11316300E94F10A7B018C012091470130914801FD
S11316404091490150914A018091310290913202B6
S1131650A0913302B0913402820F931FA41FB51FCF
S1131660E216F3060407150730F082179307A40760
S1131670B50758F005C082179307A407B507E0F52E
S1131680E816F9060A071B07B8F59C01AD012E19E7
S11316903F09400B510B213060E8360760E04607F4
S11316A060E0560768F180E090E8A0E0B0E0E80E62
S11316B0F91E0A1F1B1FE0924701F0924801009394
S11316C0490110934A0180E090E8AFEFBFEFE80EC4
S11316D0F91E0A1F1B1F20503048404050402093E1
S11316E0310230933202409333025093340220E0AB
S11316F030E840E050E014C020E030E040E050E04A
S11317008093470190934801A0934901B0934A0103
S1131710109231021092320210923302109234026B
S1131720A901B7012091880030918900C9018E195F
S11317309F098C599F4F8417950720F0B9016C5964
S11317407F4F02C0640F751F6115710511F461E0CC
S113175070E061507040709387006093860080E170
S113176080937C0080917D00806180937D001F9137
S11317700F91FF90EF9008950F931F930FB7F89474
S11317801127609347017093480180934901909316
S11317904A01209331023093320240933302509332
S11317A034020E94140B0FBF1F910F910895789477
S11317B01F920F920FB60F9211241F932F933F93F2
S11317C04F935F936F937F938F939F93AF93BF9345
S11317D0EF93FF9380917D008F7E80937D007894BA
S11317E01FB7F8948091310290913202A091330294
S11317F0B09134020097A105B10519F40E948F0538
S113180002C00E94140B812F99278FBFFF91EF9183
S1131810BF91AF919F918F917F916F915F914F9104
S11318203F912F911F910F900FBE0F901F9018950D
S113183078941F920F920FB60F9211240F900FBE3F
S11318400F901F90189578941F920F920FB60F92D5
S113185011240F900FBE0F901F90189578941F922B
S11318600F920FB60F9211248F939F93809188004B
S1131870909189009F918F910F900FBE0F901F90B0
S1131880189578941F920F920FB60F9211242F93EC
S11318903F938F939F932FB7F89433278091D70268
S11318A09091D80201969093D8028093D7022FBFCB
S11318B09F918F913F912F910F900FBE0F901F908A
S11318C01895AF92BF92CF92DF92FF920F931F931E
S11318D0CF93DF936C01EC018A81882329F4D092A1
S11318E08507C09284077CC0442309F471C0F601C3
S11318F0A080B18080919201843009F046C0C50176
S11319000E94980620919201622F0E948131492FF2
S11319109217D8F5992359F48091F60299270196E4
S113192064E070E00E94A1318093F60229C08091A6
S1131930F602840F912D911D9C0123703070E901F2
S1131940CC0FDD1FCC0FDD1FC20FD31F019664E047
S113195070E00E94A131FC01EE0FFF1FEE0FFF1F8C
S1131960E80FF91FC95EDD4FE95EFD4F85E0019088
S113197009928150E1F74F5F809192014817B8F2C4
S113198080919201815080939201F0909201809114
S1131990F6028F0D912D911D837090708C01000FB4
S11319A0111F000F111F080F191F095E1D4FC501DC
S11319B00E948E06E80199838883F5013C9686810E
S11319C08A8381818C8387818B83F394F092920143
S11319D0F601808191810E94DB06C6010E94F50612
S11319E0DF91CF911F910F91FF90DF90CF90BF9027
S11319F0AF9008951F920F920FB60F9211242F9358
S1131A003F934F935F936F937F938F939F93AF9382
S1131A10BF93EF93FF9383B783BF00B600FCFDCF62
S1131A2081B799270196AA27BB2720918E0130916F
S1131A308F014091900150919101280F391F4A1F45
S1131A405B1F20938E0130938F014093900150933C
S1131A50910178940E947B07FF91EF91BF91AF9120
S1131A609F918F917F916F915F914F913F912F91B2
S1131A700F900FBE0F901F901895EF92FF920F9347
S1131A801F93CF93DF93882309F05CC081E00E9409
S1131A90D5038FB7F894E82E80913E01833009F086
S1131AA040C0809115018823E1F58091FD068823CB
S1131AB009F042C038C0EF2DE695E695E695FF277C
S1131AC04F2D5527E350F94F9A012770307081E06C
S1131AD090E002C0880F991F2A95E2F78095208133
S1131AE028232083C0933D0111C02196C130D10524
S1131AF011F4C0E0D0E0FC2E8C2F0E944104882316
S1131B00D1F6C017D10789F74FEF50E04093A201F7
S1131B108FEF8093150181E080933E018EE10E9456
S1131B206F01EFBE0FC081E08093150110923E015A
S1131B3080933F0180E2F3CF80913D01082F11276C
S1131B40E801D3CFDF91CF911F910F91FF90EF90D8
S1131B500895EF92FF920F931F9380910E0190913D
S1131B600F01A0911001B0911101B695A795979519
S1131B7087958093890290938A02A0938B02B093F5
S1131B808C020E940E03E0908902F0908A02009178
S1131B908B0210918C02A80197010E94B431AB0111
S1131BA0BC014E0D5F1D601F711F4093890250934D
S1131BB08A0260938B0270938C021092F5068091D6
S1131BC092038D7F8093920382E00E949C031F9175
S1131BD00F91FF90EF90089580E890E0A0E0B0E0CE
S1131BE080930E0190930F01A0931001B093110103
S1131BF00E94A90D0895EF92FF920F931F93CF9324
S1131C00DF93982F8FB7F894E82E809132018330B8
S1131C1009F045C080911201891709F040C08091F4
S1131C207703882309F045C03EC0EF2DE695E6957D
S1131C30E695FF274F2D5527E958FC4F9A01277049
S1131C40307081E090E002C0880F991F2A95E2F776
S1131C508095208128232083C093310111C02196CF
S1131C60C230D10511F4C0E0D0E0FC2E8C2F0E94CC
S1131C709D058823D1F6C017D10789F74FEF50E0AF
S1131C80409367048FEF8093120181E080933201C7
S1131C9082E10E946F01EFBE80E090E010C0EFBED1
S1131CA081E090E00CC082E0809312011092320136
S1131CB0F2CF80913101082F1127E801D0CFDF91B5
S1131CC0CF911F910F91FF90EF9008950F931F9361
S1131CD0CF93DF93182F8FB7F894282F3327022F31
S1131CE080913C01882351F581E080933C0110935D
S1131CF076032FBF8FB7F8949927379A8FBF8FB782
S1131D00F894C82FDD272C2F909114019330A1F45F
S1131D1080913C01813021F48BE10E946F0108C065
S1131D20823051F4809176038093140190933C01A6
S1131D30CFBF80E090E01FC02FBFFBCF812F0E9458
S1131D40C103882319F085E090E014C0E12FE695E3
S1131D50E695E695FF27EA5FFC4F177081E090E077
S1131D6002C0880F991F1A95E2F72081282B20833F
S1131D7080E090E00FBFDF91CF911F910F91089504
S1131D80882321F0813021F081E005C080E001C08A
S1131D9082E00E94660E992708950F931F93182FCF
S1131DA00FB7F89461E080E00E94DD00882371F5AC
S1131DB010930201809105018823A9F580912001E7
S1131DC0823089F586E00CC00E94200180912001B8
S1131DD0882349F481E0809320011092300288E046
S1131DE00E946F012AC08091DF028F3F31F5E0919C
S1131DF00401EE2311F11CC01092030104C0FF275B
S1131E00E152FD4F10821092040117C081E090E06E
S1131E1002C0880F991F1A95E2F720911F01282B01
S1131E2020931F010AC0809120018823E1F6CCCFC2
S1131E30809103018F3F19F7DFCF802F99278FBF40
S1131E4080E090E01F910F9108951F9383E00E941A
S1131E5032019927182F882319F083E00E94CD0EB0
S1131E60812F99271F9108951F93CF93DF931FB755
S1131E70F89480911601E82FFF27EE0FFF1F9F01B2
S1131E8020523E4FE901A881B981109741F4E05AEC
S1131E90F84F1182108281E20E946F0149C0ED0166
S1131EA08A819B81E90199838883892B21F4E05AF3
S1131EB0F84F318320838D919C911197909337042F
S1131EC080933604B0930307A0930207B093AB0149
S1131ED0A093AA012091FF033091000440910104D2
S1131EE0509102046091860770918707809188075A
S1131EF0909189070E94BC0B809186079091870777
S1131F00A0918807B09189072091FF0330910004C4
S1131F104091010450910204820F931FA41FB51F26
S1131F208093860790938707A0938807B0938907C7
S1131F30812F99278FBFDF91CF911F9108951F9211
S1131F400F920FB60F921124EF92FF921F932F93CB
S1131F503F934F935F936F937F938F939F93AF932D
S1131F60BF93CF93DF93EF93FF93E4B0F5B07894EE
S1131F708FB7F894992720912D02122F169511707E
S1131F8021708FBF222309F0A7C0339880911601D6
S1131F90813009F487C08091360490913704892BED
S1131FA059F40E94F10A609386077093870780931F
S1131FB088079093890745C0E091AA01F091AB018D
S1131FC0E192F192F093AB01E093AA01809136047F
S1131FD090913704880F991F2091020730910307CD
S1131FE0820F931FE817F90779F58FB7F894C82F74
S1131FF0DD278091D4029091D502892B71F0E09174
S11320001601FF27EE0FFF1FE05AF84F11821082CE
S113201082E20E946F01CFBF45C080913604909147
S1132020370490937F0780937E07809102079091F5
S113203003079093D5028093D402CFBF83E20E941A
S11320406F010E94340F2EC02091FF0330910004D1
S113205040910104509102046091860770918707B2
S113206080918807909189070E94BC0B8091860714
S113207090918707A0918807B09189072091FF0369
S1132080309100044091010450910204820F931F87
S1132090A41FB51F8093860790938707A093880792
S11320A0B09389078091EF02813021F0823009F0EA
S11320B039C00AC0112351F0F0923504E09234047F
S11320C08CE10E946F012EC0112319F40E94740543
S11320D029C01092EF0226C08FB7F89499278FBFBA
S11320E02FB7F894332786B1582F5770482F407272
S11320F0987D942B952B8074977B982B90619F7778
S1132100892F992786B9887D842B852B87738061D5
S1132110992786B9887D842B852B877B80699927AD
S113212086B92FBFFF91EF91DF91CF91BF91AF910E
S11321309F918F917F916F915F914F913F912F91DB
S11321401F91FF90EF900F900FBE0F901F90189566
S1132150CF92DF92EF92FF920F931F93CF93DF936F
S11321608C01F62E6A01E22E8FB7F894C82FDD2772
S113217060E080E00E94F700882321F0CFBF80E078
S113218090E01EC0CFBF0F0D111D802F80680E94EC
S1132190C301F82E16950795802F807C0E94C301F9
S11321A00E2D0AC0EE2DFF27E01BF109EC0DFD1DDD
S11321B080810E94C30101500023A1F78F2D99272C
S11321C0DF91CF911F910F91FF90EF90DF90CF900F
S11321D00895CF93DF93CDB7DEB724970FB6F89465
S11321E0DEBF0FBECDBF8FB7F89499272091C502EB
S11321F03091C6022983232F33272A832091E402B6
S11322003091E5022B83232F33272C838FBF24E0C7
S1132210AE014F5F5F4F60E088E691E00E94A81036
S113222024960FB6F894DEBF0FBECDBFDF91CF91D9
S113223008951F93CF93DF93182F8FB7F894C82F67
S1132240DD2760E080E00E94F700882321F0CFBF03
S113225080E090E005C0CFBF812F0E94C301992781
S1132260DF91CF911F91089583E00E94191199275E
S1132270089589E00E94191199270895EF92FF9219
S11322800F931F93CF93DF93182F7B01042F8FB7E6
S1132290F894C82FDD2760E080E00E94F7008823CF
S11322A021F0CFBF80E090E014C0CFBF1064812F35
S11322B099279093EB028093EA020E94C301182F9E
S11322C0402F5527B70180E090E00E943D02812F06
S11322D09927DF91CF911F910F91FF90EF9008956F
S11322E0C098609145017091460141E08FE30E94DE
S11322F03E11089582E090E09093120280931102BF
S113230081E08093900220E030E0809102018430EB
S113231011F421E030E0232B29F484E00E943201FF
S1132320882319F40E947011089584E00E94CD0E50
S113233008951F920F920FB60F9211242F933F937B
S11323404F935F936F937F938F939F93AF93BF93B9
S1132350EF93FF938091110290911202019749F437
S113236082E090E090931202809311020E947A110D
S113237005C080912F028F5F80932F02FF91EF9110
S1132380BF91AF919F918F917F916F915F914F9189
S11323903F912F910F900FBE0F901F9018951F9390
S11323A080911F01882309F04BC0109102011F3F47
S11323B009F046C060E00E94F700882309F440C099
S11323C081E08093D9068091EA018823E1F110929B
S11323D0D90685E090E045C0923069F5C09A8091B5
S11323E0030120E030E08F3F11F421E030E0232BA3
S11323F0E9F4109305018F3F19F42FEF30E00DC07D
S1132400282F3327F901E152FD4F80818093030186
S11324108F3F11F41093040110832093300281E064
S11324208093200188E00E946F0105C0109305018C
S11324301092200111C080912001882369F00FC0FF
S113244081E090E00EC080910501909120018823E5
S113245019F2923021F0EFCF80E00E94140180E065
S113246090E01F9108951F93CF93DF939FB7F89443
S1132470C92FDD271C2F90910201981721F0CFBF9F
S113248081E090E03AC08FEF8093020130911F0108
S11324903323F1F48FB7F894992710925B048FBF1C
S11324A00E94CF11CFBF11C02093020181E090E0C0
S11324B002C0880F991F4A95E2F78095382330931C
S11324C01F0186E00E946F011FBF80E090E015C0ED
S11324D080E065E0E32FFF270E948131292F492FF7
S11324E05527CF01042E02C0959587950A94E2F7EB
S11324F080FDDACF822F8F5FEFCFDF91CF911F91D5
S1132500089583E00E943312992708951F93CF936F
S1132510DF938FB7F894C82FDD271C2F8091110209
S113252090911202892B29F484E00E943312CFBFC8
S11325301EC01092900280912F02882311F0B79947
S113254004C00E9908C0882319F0815080932F028B
S11325500E947A110BC081E090E090931202809364
S1132560110210922F0284E00E9433121FBFDF91E8
S1132570CF911F9108950E944409C09AC09888E0A1
S11325800E94191188E00E941911C09A84E00E94E7
S113259033120E9486120895FF920F931F93CF93D4
S11325A0DF93F82E8B018FB7F894C82FDD2760E0F6
S11325B080E00E94F700882321F0CFBF80E090E004
S11325C00CC0CFBF8F2D0E94C301812F99270E9479
S11325D0C301802F0E94C3019927DF91CF911F91DE
S11325E00F91FF9008951F931FB7F89480912E02C6
S11325F0882319F460E070E009C060E080918307EB
S1132600882309F461E081E0682777278091CC0270
S1132610882319F480E090E00AC090E08091660479
S1132620882309F491E081E09827892F9927762F50
S11326306627770F770F770FE4E0880F991FEA95E5
S1132640E1F7826E9262682B792B81E10E94CC12B1
S1132650812F99278FBF1F9108958FB7F8949927D9
S1132660609168048FBF85E0689FB0011124625DAA
S11326707E4F706488E10E94CC120895EF92FF921D
S11326801F93CF93DF93E090CD02F090CE02F70139
S113269082A59927182F882309F41FE1C0988091F7
S11326A02C02811749F0612F77276F717070606E6B
S11326B0706885E10E94CC1210932C02F7011081FE
S11326C08FB7F894C82FDD2760E080E00E94F70000
S11326D0882311F0CFBF12C0CFBF8EE390E0909358
S11326E0EB028093EA028EE30E94C3011150412F52
S11326F0552760E070E0C7010E943D02DF91CF9151
S11327001F91FF90EF900895FF920F931F93CF9323
S1132710DF93EC01F62E61E082E00E94DD00882365
S113272019F085E090E069C08091DA068F5F8093AC
S1132730DA0681508B838FB7F894082F112762E053
S113274081E00E94F700882329F40FBF0E945E02F3
S113275081E052C08FB7F894992724E020935C0459
S11327608FBFD093F502C093F4020FBF8DE0F80E33
S1132770FE01F19289819927807290708983118278
S113278089819927816498688983892F992781830E
S11327901CA618A619A619AA18AA1FA680E88EA70F
S11327A061E060935F044091F4025091F5028FB7A9
S11327B0F894282F332780912101909122018830A9
S11327C0910511F0019711F02FBF15C082E090E040
S11327D09093220180932101609390075093CE023D
S11327E04093CD0210928C012FBF0E94250F8823A5
S11327F011F40E943E1380E09927DF91CF911F913D
S11328000F91FF900895FA01422F2D3118F082E0C4
S113281090E0089583876683872F992787832FB74E
S1132820F89433278091C5029091C6022FBF848308
S1132830892F992785832FB7F89433278091060130
S1132840909107012FBF8087892F992781878091D5
S11328500901882369F0109209018FE38287642FAC
S1132860CF010E9484139927282F8823A9F417C025
S1132870842F99279093F1028093F002F09326011C
S1132880E09325018CE00E946F0180910901882367
S113289049F489E090E008958FEF80930901822F35
S11328A0992708951092D30280E090E008951F9331
S11328B080910C019927019665E070E00E94A13196
S11328C0682F80930C0110E0462F5527FA01EE0F74
S11328D0FF1FE650FD4FA081B181109799F0E62FBC
S11328E0E695E695E695FF27E058F84F808199270D
S11328F09A012770307002C0959587952A95E2F762
S113290080FF0DC0CA01019665E070E00E94A1310C
S1132910682F1F5F1530C1F610930C0119C0609326
S11329200C016530A8F42C912D503327FD016781EB
S11329307727762F662786819927682B792BAD0117
S113294083850E940314882319F08FE00E946F018D
S11329501F910895CF93DF93582FFB01853018F012
S113296081E090E033C0C82FDD27CC0FDD1FC650B7
S1132970DD4F88819981892B19F085E090E026C08C
S113298079836883435F40834D5080910C01853087
S113299018F480E090E01AC0838567817727762F4A
S11329A0662726813327622B732B50930C01242F27
S11329B0AF010E9403149927282F882329F085E06A
S11329C080930C0119821882822F9927DF91CF916D
S11329D00895AF92BF92CF92DF92EF92FF920F933E
S11329E01F93BC0181E080938E0260936501872F61
S11329F09927809364016A32710521F0AA24BB24CB
S1132A00650108C0A0904101B0904201C09043010B
S1132A10D0904401A092690111270D2DFC2CEB2CC0
S1132A20E0926801960144275527209367018D2D74
S1132A309927AA27BB27E4E6F1E08283FF24002735
S1132A401127102F0F2DFE2CEE24B82FAA2799271B
S1132A508827332744275527A90133272227822B88
S1132A60932BA42BB52B2A2D332744275527822BB0
S1132A70932BA42BB52BE82AF92A0A2B1B2BE11440
S1132A80F1040105110511F410E010C06A3271055A
S1132A9021F416E060E674E003C010E060E070E04A
S1132AA0412F55278AE691E00E9452318FEF80939F
S1132AB05E0180935F0180E6809363011A5F412F7A
S1132AC068E571E082E00E94AA141F910F91FF90C3
S1132AD0EF90DF90CF90BF90AF900895CF93DF93A6
S1132AE0EC010E94EE02282F8091E8012817D1F012
S1132AF0382F31503093E80113C0822F9927A3E077
S1132B00880F991FAA95E1F7DC01AB5CBD4FFC016E
S1132B10E35CFD4F88E001900D928150E1F72F5F57
S1132B20231758F38091F7069091F8068C179D07A8
S1132B30A1F48FEF9FEF9093F8068093F70610921D
S1132B40FA061092F9061092FB061092FC0681E038
S1132B508093300180E10E946F01DF91CF9108954D
S1132B601F93CF93DF93EC01162F80910D018823DF
S1132B7019F5CE010E94EE02E82F8091E801E817D2
S1132B8048F4FF27B3E0EE0FFF1FBA95E1F7EB5CC3
S1132B90FD4F17838091FC06882311F0112349F01F
S1132BA08091F7069091F8068C179D0729F411235C
S1132BB019F080E10E946F01DF91CF911F91089578
S1132BC0CF92DF92EF92FF920F931F936C017B01E0
S1132BD00E940E03DC01CB01B6010E948D31E80E88
S1132BE0F91E00271127B801A70184E00E949C0365
S1132BF01F910F91FF90EF90DF90CF9008950F9366
S1132C001F93CF93DF93EC01E0912801FF27EE0F90
S1132C10FF1FE552F94F00811181662329F06CE111
S1132C2070E08CE190E02FC08091270183FF3DC0CC
S1132C308CA58823D1F58F819927982F88272E81F9
S1132C403327822B932B0E94A004982F8F3F71F07F
S1132C508BE0989FF0011124E85FFC4F82858F5F21
S1132C608287853018F0CF010E94580680E10E94C7
S1132C706F01F801838181508383882339F067E0F1
S1132C8070E087E090E00E94E0153FC00E94730668
S1132C90809127018F7E8093270167E070E087E0B1
S1132CA090E00E94E01540E02CC00E9473068091E1
S1132CB027018F7E8093270167E070E087E090E032
S1132CC00E94E0158F819927982F88272E8133271A
S1132CD0822B932B0E94A004982F8F3F89F08BE0C6
S1132CE0989FF0011124E85FFC4F81858F5F8187F5
S1132CF082858F5F8287853018F0CF010E94580645
S1132D0041E0BE01C8010E94610CDF91CF911F9187
S1132D100F910895282FCB01213059F0213028F04C
S1132D20223089F02330A1F411C0642F0E94FF15D2
S1132D3008956159724061F480912F01882341F014
S1132D4010922F01089510928E02089510928E020F
S1132D500895EF92FF921F9310910C01E12FFF272A
S1132D60EE0FFF1FE650FD4FE080F18011821082CC
S1132D700E94571441E0B701812F0E948A161F91C7
S1132D80FF90EF900895CF92DF92FF920F931F93DD
S1132D90CF93DF93CDB7DEB722970FB6F894DEBF9B
S1132DA00FBECDBF8091270184FDBBC090E0809110
S1132DB02A01882309F491E0992309F0B2C0809193
S1132DC09301882359F420E08091F7069091F80646
S1132DD08F5F9F4F09F021E0222331F0CE0101964D
S1132DE00E940F07882341F040E157E260E070E061
S1132DF084E00E949C0395C0E0912801FF27EE0F18
S1132E00FF1FE552F94F00811181D801ED91FC912A
S1132E10F080C090F706D090F806CF010E94980683
S1132E2020E090919201891708F421E0222359F0BF
S1132E300E947306F801808191810E94DB06C8011B
S1132E400E94F5066BC080919301D801ED91FC912D
S1132E50882381F0A091E602B091E70284E3019017
S1132E600D928150E1F760E0F801808191810E9428
S1132E70FF1557C089819A818787892F992786876B
S1132E80D801ED91FC91119784858F7384874D91BE
S1132E905C91DA011196FD0121813327322F22271B
S1132EA0FA01818199278062282B392B2183232FD2
S1132EB03327FD01218380912701886080932701B6
S1132EC080FF0BC0D801ED91FC91848580648487D8
S1132ED0809127018E7F80932701D801ED91FC9189
S1132EE0C6828D2D9927878381E78387B3EFFB0EF5
S1132EF04F2D5527BF0180E00E94AA1499278823EB
S1132F0031F4809127018061809327010AC08230C7
S1132F1041F4D801ED91FC9189E280838DE00E9417
S1132F206F0122960FB6F894DEBF0FBECDBFDF91BE
S1132F30CF911F910F91FF90DF90CF900895AF92A2
S1132F40BF92CF92DF92EF92FF920F931F93282F9D
S1132F5033278BE090E0289FF001299FF00D389FE4
S1132F60F00D1124E55BFE4F82819381A481B5812C
S1132F700097A105B10569F080819181880F991F9F
S1132F80918380838150944020F080E094E0918389
S1132F9080838BE090E0289F5001299FB00C389FDC
S1132FA0B00C11248BE491E0A80EB91EF5018681C2
S1132FB09781A085B18582839383A483B583C080E0
S1132FC0D180EE24FF2469E0CC0CDD1CEE1CFF1C38
S1132FD06A95D1F70E940E03DC01CB01F501008153
S1132FE01181B801762F6627770F0E948D31AA27A9
S1132FF0BB278C0D9D1DAE1DBF1D222733274AE024
S1133000000F111F221F331F4A95D1F7081B190BFC
S11330102A0B3B0B06831783208731872281338158
S113302044815581280F391F4A1F5B1F2283338334
S1133030448355831F910F91FF90EF90DF90CF90C1
S1133040BF90AF900895FF920F931F93CF93DF9398
S1133050F82E282F33278BE090E0289FE001299F4A
S1133060D00D389FD00D1124C55BDE4F81E090E078
S1133070998388831A868A819B81AC81BD8100975C
S1133080A105B105A1F00FB7F8941127C9010E9459
S113309018080FBF1A821B821C821D821E821F8287
S11330A0188619868F2D0E949F170E943C07DF9176
S11330B0CF911F910F91FF9008958A9719F480E0A2
S11330C00E9423180895AF92BF92CF92DF92EF929D
S11330D0FF920F931F93CF93DF935B016C01C0E0CA
S11330E0D0E0E8E7F3E07C2F608561FF32C2208105
S11330F0318142815381E480F58006811781D601B4
S1133100C501821B930BA40BB50B8E159F05A0075D
S1133110B10708F41EC260FF03C06D7F608708C05A
S11331202E0D3F1D401F511F208331834283538343
S1133130743009F40EC1753050F4723009F4A6C02D
S1133140733008F0FAC0713009F009C20DC076304E
S113315009F488C1763008F405C1773009F4BDC19B
S1133160783009F0FCC1BBC183E090E09093630721
S1133170809362072FB7F89433278BB392E08927A3
S11331808BBB2FBF8091E30180FF23C08FB7F894DE
S1133190C82FDD2780913401882381F47093340192
S11331A01092CB02CFBF80913701882321F485E1AF
S11331B00E946F010EC0709338010BC080E00E9422
S11331C08C04882329F48091E90181608093E901CA
S11331D0CFBF8091E30181FFC2C18FB7F894482F1C
S11331E05527E0916007F09161073097A1F02AE636
S11331F037E08AE090E090936B0780936A0710921F
S11332006D0710926C07318320832E5F3F4F3093FC
S11332106107209360074FBF8FB7F894282F332797
S1133220122F80913E01882389F491E090933E010E
S11332301092A2012FBF80913F01882321F48FE1D6
S11332400E946F0116C09093400113C080E00E9459
S11332504104882319F085E090E007C08091FD06C1
S113326081608093FD0680E090E01FBF892B09F008
S113327076C180E197E2A0E0B0E08093850290936C
S11332808602A0938702B093880269C180912D01C0
S1133290882309F464C180912E01882309F45FC155
S11332A08091F506882309F580E10E946F0181E190
S11332B00E946F0140910E0150910F016091100125
S11332C0709111018091890290918A02A0918B02E0
S11332D0B0918C02481B590B6A0B7B0B81E08093E5
S11332E0F50682E00E949C033AC180910E01909100
S11332F00F01A0911001B0911101880F991FAA1F0D
S1133300BB1F80930E0190930F01A0931001B09303
S113331011018150904DA740B04060F080E090EDE5
S1133320A7E0B0E080930E0190930F01A0931001E9
S1133330B09311010E94A90D12C180912D0188231F
S113334009F40DC180912E01882309F408C180E19C
S113335006C0809127018F7E809327018DE00E9413
S11333606F01FDC080E00E946D04882309F43AC017
S11333709FB7F89420913401222319F421E030E01E
S11333800FC080911301813019F020E030E008C0B3
S113339040E050E02150223010F441E050E09A0126
S11333A0892F99278FBF2223E9F08FB7F894082F2C
S11333B01127902F80911301813099F48091340169
S11333C0813021F483E10E946F0109C0823049F405
S11333D08091CB028093130183E0809334010FBF6B
S11333E001C09FBF81E00E946D04882309F4B7C027
S11333F09FB7F89420913501222319F421E030E09D
S11334000FC080913601882319F020E030E008C015
S113341040E050E02150223010F441E050E09A01A5
S1133420892F99278FBF222309F499C08FB7F89465
S1133430082F1127902F80913601882309F04BC063
S113344080913501813011F484E138C0823009F073
S113345042C0809113028093360183E0809335014A
S11334600FBF7DC09FB7F89420913E01222319F429
S113347021E030E00FC080911501813019F020E087
S113348030E008C040E050E02150223010F441E028
S113349050E09A01892F99278FBF222309F45FC036
S11334A08FB7F894082F1127902F80911501813040
S11334B091F480913E01813021F48EE10E946F01EC
S11334C0CFCF823041F48091A2018093150183E033
S11334D080933E01C5CF9FBF42C0AA9840C02091AF
S11334E0C4033091C5034091C6035091C703809132
S11334F04D0190914E01A0914F01B0915001009760
S1133500A105B10519F1821B930BA40BB50BB1F402
S113351080915501882361F42FB7F8943327809163
S113352007038160809307032FBF85E20E946F0128
S113353080E00E949F171092550108C080934D01AE
S113354090934E01A0934F01B09350010E943C0709
S113355006C021963996C930D10509F0C4CD8BE057
S11335600E946F01DF91CF911F910F91FF90EF9017
S1133570DF90CF90BF90AF900895EF92FF920F939A
S11335801F9380912B02882361F52091FE063091D0
S1133590FF064091000750910107EFB7F894FF2709
S11335A060915704709158048091590490915A0481
S11335B0E090A401F090A5010091A6011091A7014B
S11335C06E0D7F1D801F911FEFBF2093FE06309369
S11335D0FF06409300075093010710922B020E94AC
S11335E0FE070E9484020E9463181F910F91FF90AE
S11335F0EF900895AF92BF92CF92DF92EF92FF9235
S11336000F931F930E9484025B016C018FB7F8949F
S113361099271092F7028FBFFFEFEF2EFFEFFF2ED7
S1133620FFEF0F2FFFE71F2F60E0E8E7F3E080854F
S113363081FF1CC080819181A281B381A601950183
S1133640281B390B4A0B5B0BDA01C9012481358134
S113365046815781281B390B4A0B5B0B2E153F05FE
S1133660400751071CF479018A0161E0399633E07F
S1133670E93CF307E1F66623D9F01E141F04100693
S113368011062CF0C601B5010E94631811C0E09226
S1133690FE06F092FF06009300071093010781E0F5
S11336A080932B02A8019701C601B5010E94FE0771
S11336B01F910F91FF90EF90DF90CF90BF90AF904C
S11336C008951F93182F81E090E090932201809336
S11336D021011092EA010E94CF118FB7F894992723
S11336E010931B018FBF82E00E946F011F91089508
S11336F00F931F93CF93DF93042F10910C01153078
S1133700A0F4E12FFF27EE0FFF1FE650FD4FC0810D
S1133710D181C617D70749F4118210820E94571429
S1133720402FBE01812F0E948A16DF91CF911F91F5
S11337300F910895CF93DF93C0912501D091260175
S11337406091F0028FE38A87CE010E948413482F90
S11337505527442351F08FEF80930901609125018F
S1133760709126018B850E94781BDF91CF9108957B
S1133770AF92BF92CF92DF92EF920F931F93CF93AA
S1133780DF93CDB7DEB722970FB6F894DEBF0FBE36
S1133790CDBF1A821982A2EEB1E0E0E6F4E086E041
S11337A001900D928150E1F7809162049927209154
S11337B000013091010182179307B1F4A0906304D2
S11337C0BB24BA2CAA24809164049927A82AB92A74
S11337D0CC24DD240E948402AB01BC01EE249601BA
S11337E0850181E00E94650280916504482F552778
S11337F0242F442309F441C0332780910001909180
S113380001012817390749F483E090E09093630796
S1133810809362070E94C90230C040931801CE0110
S113382001960E94DB0229813A818091180199272F
S11338308217930711F561E00E94B01580E890E0CB
S1133840A0E0B0E080930E0190930F01A0931001CB
S1133850B09311010E94A90D80E10E946F0183E0E1
S113386090E090936307809362072FB7F89433270F
S11338708BB391E089278BBB2FBF22960FB6F894A8
S1133880DEBF0FBECDBFDF91CF911F910F91EF909F
S1133890DF90CF90BF90AF900895EF92FF920F9377
S11338A01F9379018A01663018F046E050E002C0A7
S11338B0462F5527BC0180E694E00E945231E092E5
S11338C04101F092420100934301109344010E948C
S11338D0B81B1F910F91FF90EF9008952F923F9284
S11338E04F925F926F927F928F929F92AF92BF920C
S11338F0CF92DF92EF92FF920F931F93CF93DF93B8
S1133900CDB7DEB723970FB6F894DEBF0FBECDBF99
S1133910A0914501B09146011C919D01210F311DDB
S1133920F9018081881F8827881FFD0183A7F90179
S113393080818F77FD0181A721503040F90180817A
S1133940FD0180A7E0914501F09146018FB7F894FD
S1133950992720912E028FBF2223F9F08781468177
S11339602FB7F89433276091E4027091E5022FBFDA
S11339709927982F88275527842B952B86179707E7
S113398061F0878126819927982F88273327822BF6
S1133990932B8F5F9F4F09F050C41D3008F44DC422
S11339A0C0904501D0904601F60181852085992774
S11339B0582F44273327422B532B63818FEF809357
S11339C082078FB7F894782F20E030E0E4E9F1E043
S11339D0808191818417950731F48281861709F4D7
S11339E0EEC3209382072F5F3F4F33962430310577
S11339F079F77FBF909182073FB7F8949F3F21F0FA
S1133A0080912401891799F420912401822F992708
S1133A10FC01EE0FFF1FE80FF91FEC56FE4F518318
S1133A20408362832F5F2370209324010CC0892F6D
S1133A309927FC01EE0FFF1FE80FF91FEC56FE4F0C
S1133A40518340836283832F99278FBFF60183A517
S1133A50882309F4DAC382858F3309F0D6C38781BA
S1133A6046812FB7F89433276091060170910701BE
S1133A702FBF9927982F88275527842B952B861796
S1133A80970761F0878126819927982F8827332704
S1133A90822B932B8F5F9F4F09F0BCC3612F6D5016
S1133AA0BCE06B2E712C6C0C7D1CF6018385992770
S1133AB0803709F4C4C0813730F4803641F0813650
S1133AC009F0A3C394C0813709F09FC384C2F601EF
S1133AD0848525859927382E22243327222A332AC0
S1133AE02685778590895188FAE22F16310421F0D2
S1133AF088249924540108C0809041019090420187
S1133B00A0904301B09044018091A301882309F45B
S1133B107CC3892F9927AA27BB27EE24F82E092FC7
S1133B201A2F332744275527522F44273327222778
S1133B30872F9927AA27BB27DC0199278827282BB9
S1133B40392B4A2B5B2B852D9927AA27BB27282B9A
S1133B50392B4A2B5B2BE22AF32A042B152B8114D5
S1133B609104A104B10459F4E114F104010511050F
S1133B7089F12AE22216310409F047C31BC0E1147B
S1133B80F1040105110531F48AE22816310409F023
S1133B903CC317C0D801C70188199909AA09BB09F0
S1133BA0181619061A061B0684F49AE2291631041B
S1133BB009F02BC36650A8019701C30106960E9421
S1133BC04D1C80E00E94231820C3E814F9040A0560
S1133BD01B0559F4EAE22E16310409F016C380914C
S1133BE055018F5F8093550110C3C10125C0809199
S1133BF0A301882309F409C3F6018485258599273F
S1133C00982F88273327822B932B8A9709F0FDC29C
S1133C108091410190914201A0914301B0914401EE
S1133C200097A105B10509F4F0C2F3018081992739
S1133C30982F8827822B932B0E94E914E6C2F60161
S1133C40878126819927982F88273327822B932BC6
S1133C508F5F9F4F09F0DAC0F6018185208599278F
S1133C60F82EEE243327E22AF32AC7010E94A00487
S1133C708F3F21F0F601658577270CC00E94E50887
S1133C80182F8F3F51F0B7010E942D08F60165856A
S1133C907727812F0E943E08B9C087E30E94F70866
S1133CA0182F8F3FA1F0282F33278BE090E0289F17
S1133CB0F001299FF00D389FF00D1124E85FFC4FAF
S1133CC0808191810E946E15B701812F9DC090E083
S1133CD0F60181A58A3608F091E0992309F496C08B
S1133CE0C6010E942009182F682FC6010E942B06C6
S1133CF0DC01F6018385803709F088C0153009F0AE
S1133D0084C2FD01818122819927982F8827332736
S1133D10822B932B8F5F9F4F09F486C2FD01838111
S1133D2024819927582F44273327422B532B41159D
S1133D30510521F18091E801082F11276091F706C0
S1133D407091F806A0E020E030E0E5E3F2E00EC078
S1133D50808191818617970731F084819581481776
S1133D60590708F4A1E02F5F3F4F38962017310719
S1133D7014F4AA2369F3AA2309F451C210E0EDE074
S1133D80F3E08081992780FF04C083FD02C081FF96
S1133D901F5F3B9623E0EB37F20799F71123B1F14C
S1133DA00E940E03DC01CB01612F77270E948D3125
S1133DB000E010E0EDE0F3E09081992349F0292F31
S1133DC0332723FD05C021FD03C081508F3F39F007
S1133DD00F5F1F4F3B960A30110571F717C0202F54
S1133DE00F3FA1F033278BE090E0289FF001299F3B
S1133DF0F00D389FF00D1124E85FFC4F8081918114
S1133E000E946E15B701802F0E942D08C6010E94E2
S1133E102009182F682FC6010E942B067C0115303B
S1133E2009F0F3C1F6011185008560E4C6010E9422
S1133E302F098B8347010894811C911CF701818110
S1133E4014010894211C311CF40121819927982F15
S1133E5088273327822B932B8F5F9F4F09F4A5C0AC
S1133E60812F9927B82EAA24802F9927A82AB92A06
S1133E7063E0462E512C4E0C5F1CF701838154E005
S1133E80652E712C6E0C7F1C24819927982F88270E
S1133E903327822B932B892B49F5C5010E94A0045B
S1133EA08F3F09F50E94E5088F3F11F0B50119C055
S1133EB080E00E94F708182F8F3FA9F0282F33279E
S1133EC08BE090E0289FF001299FF00D389FF00DC2
S1133ED01124E85FFC4F808191810E946E15B50129
S1133EE0812F0E942D08C5010E941106F201F08065
S1133EF0F301E080F4019080F1018080C5010E940B
S1133F00B8048C01C5010E94EE02E82F8A3009F43E
S1133F1048C08F2D9927782F66278E2D9927682BD7
S1133F20792B892D9927582F4427882D9927482B99
S1133F30592B8091E801E81701F5065F1F4F023302
S1133F40110578F52FB7F8943327FF27B3E0EE0F68
S1133F50FF1FBA95E1F7EB5CFD4FB182A08253835A
S1133F6042837583648381E0868317828091E801AC
S1133F708F5F8093E8012FBF14C08FB7F8949927FF
S1133F80FF27A3E0EE0FFF1FAA95E1F7EB5CFD4FBF
S1133F90B182A082538342837583648321E02683A4
S1133FA08FBF6B81C5010E94B01560E8C6010E94F5
S1133FB02F09882309F429C180E890E0A0E0B0E04B
S1133FC080930E0190930F01A0931001B0931101FF
S1133FD00E94A90D1AC1F60185858F5F85876D3111
S1133FE008F013C1C6010E94980620E09091920146
S1133FF0891708F421E0222309F007C120912A013E
S1134000822F9927A82E8823A9F1B0902801B20EF7
S11340102EC0FCE0FB1510F0EB2D02C0EB2DED5093
S1134020FF27EE0FFF1FE552F94F0190F081E02DBD
S1134030E080F180C7010E948E068C01C6010E94B7
S11340408E060817190799F4F7019289F6018289F7
S1134050981769F4F7019585F6018585981739F461
S1134060F7019389F6018389981709F4CEC0BA94AD
S1134070AA9479F680919301882309F0C6C020910F
S1134080F302222309F481E0882309F0BEC0909151
S1134090F202992309F481E0882309F0B6C0992338
S11340A009F4B3C080918107E82FFF27EE0FFF1FAB
S11340B0EF56F84F00811181118210829150909334
S11340C0F2028F5F809381078C3011F41092810784
S11340D00115110509F499C0222309F496C08091B1
S11340E0D602E82FFF27EE0FFF1FE85CFB4FE080AE
S11340F0F1801182108221502093F3028F5F80930C
S1134100D6028C3011F41092D602E114F10409F4B1
S11341107CC084E3F70111928A95E9F788E290E084
S1134120C80ED91E8CE0F60111928A95E9F788ED44
S11341309FEFC80ED91EF801D182C0828FEF82830F
S11341408EE18383C8010E94D104882389F5CE01BE
S113415001960E940F07882311F5F60186852785AD
S11341609927982F88273327822B932B29813A81EB
S113417028173907A0F080E890E0A0E0B0E0809331
S11341800E0190930F01A0931001B09311010E94AE
S1134190A90D6CE170E08CE190E00E94E015809143
S11341A0A40381FD03C08DE00E946F0167012DC04F
S11341B0C7010E94DB06C8010E94F50626C07FBF26
S11341C024C0F6011185008584858078803871F4D7
S11341D080E890E0A0E0B0E080930E0190930F019E
S11341E0A0931001B09311010E94A90DF6018485DA
S11341F060E086FD61E0812F9927982F8827202F82
S11342003327822B932B0E94B015D0924601C09283
S1134210450113C0F60183858137B9F7D2CF65E034
S1134220C6010E942B0607C0C6010E942009682F00
S1134230C6010E942B067C01F5CD8FB7F89499270F
S1134240109290028FBF0E94861223960FB6F894A4
S1134250DEBF0FBECDBFDF91CF911F910F91FF90B5
S1134260EF90DF90CF90BF90AF909F908F907F9012
S11342706F905F904F903F902F900895CF92DF9270
S1134280EF92FF920F931F93CFB6F894DD240E9410
S11342900E03DC01CB0166E470E00E948D313BE04B
S11342A0E32EF12CE80EF91EF0928D07E0928C07B4
S11342B00E94740900271127A80197010E94310A5E
S11342C0CFBE1F910F91FF90EF90DF90CF90089594
S11342D01F93CF93DF938FB7F894C82FDD271C2F3C
S11342E080912101909122010897C9F489E00E94EC
S11342F0191183E00E943312C09A81E090E09093F8
S11343002201809321018FB7F894992723E0209309
S11343101B018FBF82E00E946F01CFBF30C0C098E5
S113432080919007882311F085E001C084E00E9409
S1134330191183FD09C080E00E94191183FF04C094
S113434085E090E020E003C083E090E021E09093DA
S1134350220180932101C09A1FBF222341F01092B1
S11343608C0183E00E9433120E943E2108C00E9407
S1134370740920E431E040E050E00E94310ADF910A
S1134380CF911F91089578941F920F920FB60F92B8
S113439011241F932F933F934F935F936F937F93B6
S11343A08F939F93AF93BF93EF93FF9387B78F7EC2
S11343B087BF78941FB7F8948091D9029091DA025C
S11343C0A091DB02B091DC020097A105B10509F0D0
S11343D051C080912101909122018530910561F1B4
S11343E08630910530F48330910549F0049781F5C6
S11343F01AC087309105F1F0089751F514C0869BD7
S11344000FC084E090E090932201809321010E94E8
S1134410740927E030E040E050E00E94310A18C0FF
S11344200E943E2115C00E94250F882389F40E9412
S113443068210EC080E00AC089E00E94191181E061
S11344400E944C0A83E00E94331287E00E94611BA1
S113445080911C0190911D01019771F482E090E01C
S113446090931D0180931C01DE98DE9A80E00E94E7
S1134470CD0E02C00E949109812F99278FBFFF9111
S1134480EF91BF91AF919F918F917F916F915F91C8
S11344904F913F912F911F910F900FBE0F901F903E
S11344A01895EF92FF920F931F93CF93DF938B0195
S11344B08091EA029091EB0286FF40C18F7B8F339B
S11344C009F08EC1C0914501D091460158815093A5
S11344D0160280911102909112028530910509F41F
S11344E043C08630910509F48AC0029709F01FC1C0
S11344F085E090E090931202809311024091A8010C
S1134500852F99270196242F3327281739074CF133
S1134510B79906C00E9904C0451B41504093A801A9
S1134520409116024A32E8F44423A1F0BE016F5FC1
S11345307F4F483018F047E050E007C086E090E035
S11345409093120280931102552780E090E00E941C
S11345503D0246C110929002C09A84E00E94331238
S1134560E3C00E94BB123CC186E090E0909312022B
S1134570809311028091CC02882309F439C0809180
S113458066048823A9F5898185FF32C08F814E8115
S11345902FB7F89433276091E4027091E5022FBF9E
S11345A09927982F88275527842B952B86179707AB
S11345B059F08F812E819927982F88273327822BB2
S11345C0932B8F5F9F4FA1F489818770813081F491
S11345D0C09AC0988AE00E941911C09AC09840916C
S11345E0160247502896BE018FE30E943E11F8C080
S11345F040911602475055272896BE01A6CFC09A6F
S113460080912F02882339F484E00E943312809130
S11346102F02882311F0B7990AC00E9B08C090910D
S11346205C07992321F0809116028B3038F4809135
S11346304501909146010E9465093DC0913001F504
S1134640E0916907FF27EE0FFF1FEE0FFF1FEC5FDE
S1134650F84F2081318142815381E0914501F091ED
S1134660460121ABBB27A52F942F832F80ABCA0112
S1134670AA27BB2787A7252F33274427552726A7F3
S1134680809169079927019668E070E00E94A13142
S11346908093690780915C07815080935C0788232D
S11346A051F080914501909146010E946509109254
S11346B0690710925C0780911602FE01E80FF11D54
S11346C0808187FF31C0012B79F169816770E091A6
S11346D04501F0914601623019F5A091CD02B091E7
S11346E0CE02109709F18091210190912201079740
S11346F0D9F4ED019B8183819817B1F487B78F7E3C
S113470087BF908181E08CA7E90FF11D82913196DA
S113471088A780818F7789A780E00E94611B04C0ED
S1134720613011F489E02AC00E94861259C01092A7
S11347309002C09A84E00E94331252C08E3309F072
S11347404FC0C09A80912101909122010897C9F429
S1134750C09889E00E941911C09A83E00E94331224
S113476081E090E090932201809321018FB7F89427
S1134770992723E020931B018FBF82E00E946F01E1
S11347802FC080919007882349F484E090E09093AF
S11347902201809321010E94682122C083E00E94AB
S11347A0331283E090E090932201809321010E94D0
S11347B00E03DC01CB0166E371E00E948D314BE016
S11347C0E42EF12CE80EF91EF092A101E092A00172
S11347D00E94740900271127A80197010E94310A39
S11347E0DF91CF911F910F91FF90EF9008951F9249
S11347F00F920FB60F9211242F933F934F935F9311
S11348006F937F938F939F93AF93BF93EF93FF9394
S11348102FB1E091C903F091CA03309739F0809128
S1134820F8029091F902E80FF91F20838091F802B1
S11348309091F90201969093F9028093F80280E036
S11348400E941A0140915601509157018091F8023B
S11348509091F9028417950718F40E94CF011CC0A7
S11348606091C9037091CA0380918A0790918B0764
S11348701092CA031092C90310928B0710928A07F0
S113488010925701109256011092F9021092F802F8
S11348902FB120E00E945122FF91EF91BF91AF917F
S11348A09F918F917F916F915F914F913F912F9144
S11348B00F900FBE0F901F9018958F929F92AF92FA
S11348C0BF92CF92DF92EF92FF920F931F93CF93F9
S11348D0DF93CDB7DEB722970FB6F894DEBF0FBED5
S11348E0CDBFE82FFF27E632F10510F00C94CF2B53
S11348F0EA5BFF4FEE0FFF1F0590F491E02D099442
S113490080918007882309F077C20C94CF2B8FB74E
S1134910F8942091070320FD1AC720E01CC70FB7A5
S1134920F89411270E945F0A71E0E72EF12CF092AF
S11349302201E0922101109223011092EA011092C7
S11349402C020FBF0FB7F89411270E944409F0926C
S11349501202E09211021092900289B78F7B89BFF4
S113496080E488BF8AB780628ABF8AB78F7E8ABF95
S113497089B7806489BF0FBF8FB7F894082F1127B8
S113498080911C0190911D01049711F40E9434112F
S11349900FBF0FB7F8941127C09A80E00E9433121A
S11349A00FBF8FB7F894992722E020935C048FBF40
S11349B061E0F62EF0922D0180912E01882359F0AA
S11349C00E9497039F718050904FAA27BB27BC0178
S11349D0CD010E94BB03809127018460809327014D
S11349E090E080912A01882309F491E0992311F43D
S11349F00E94B90180914D0190914E01A0914F0107
S1134A00B09150010097A105B10531F510924D0107
S1134A1010924E0110924F011092500110925101C8
S1134A2010925201109253011092540110925501A8
S1134A3080E00E949F170FB7F894112780E090E060
S1134A400E9418080FBF0E943C078AE290E00E946F
S1134A505D18F0928D0104C08AE290E00E945D1816
S1134A6091E09093A30180912701826080932701B4
S1134A7080912E01882309F092C690932E010E9402
S1134A80EC0D40E050E260E070E083E00E94AB0295
S1134A9086C68FB7F894992710925C048FBF109242
S1134AA02D01809127018B7F8093270178C68FB7D2
S1134AB0F8949927F0901B018FBF83E00E940E01A8
S1134AC08823E9F00FB7F89411271092220110926D
S1134AD0210187B78F7E87BF87B78F7D87BF0E94ED
S1134AE08112C09A0FBF0E94500910921D011092AA
S1134AF01C01DE98DD98DE9A0E94960107C08FB7EC
S1134B00F894992722E020935C048FBF0091F4026B
S1134B101091F5020E945E02F80182858F3309F03C
S1134B203EC68FEF809309014F2DB80183850E9403
S1134B30781B35C68FB7F894282F3327122F80910E
S1134B408E078823F9F481E080938E0780911C01FD
S1134B5090911D01049721F481E00E94CD0E02C0C2
S1134B600E949B011FBF1BC68FB7F8949927109210
S1134B708E0760C38FB7F894282F332780911E01C6
S1134B80882311F02FBF0BC62FBF80B3992756E09F
S1134B90969587955A95E1F7182F11709091E80230
S1134BA08091E9028917D9F01917C9F484E090E0DB
S1134BB090931D0180931C018FB7F894992721E0ED
S1134BC020931E018FBF60E070E08DE10E94CC1243
S1134BD00E94E910C09AC09880E00E946F0110936F
S1134BE0E9020E94A001DBC58FB7F89499272091B0
S1134BF002018FBF223009F45FC0233030F4222336
S1134C0059F0213009F0CBC542C0233009F46EC0FD
S1134C10243009F0C4C597C0C0988FB7F894082F02
S1134C20112780911C0190911D01029771F583E079
S1134C3090E090931D0180931C0168E170E08DE188
S1134C400E94CC1281E08093E80210921E0180B38E
S1134C50992746E0969587954A95E1F7817090707B
S1134C608093E9020E94A00181E00E9419116FE77C
S1134C7072E08CE10E94CC120E942D130E94F31268
S1134C8066E57AE287E10E94CC120FBF88C5C0981E
S1134C9086E00E9419110E942D130E94F3120E94B3
S1134CA0E910C09AC0980E943411C09A81E00E9411
S1134CB033120E949B0173C5C0988FB7F894082FD4
S1134CC011270E940801882311F00FBF0AC00FBFEB
S1134CD083E50E94C30180E00E94C30180E00E943A
S1134CE0C301C09A82E00E94331259C58FB7F89469
S1134CF09927209121018FBF243039F0283041F0C9
S1134D002230F1F40E943E134AC50E94682147C52F
S1134D10C0980E943911C09A0E9481122FB7F8944A
S1134D20332781E090E090932201809321012FBFEB
S1134D3063E08091CD029091CE020E94A5012FC51F
S1134D400E9481122CC50E94701129C50FB7F894D6
S1134D50112740915601509157016091C9037091F8
S1134D60CA0380918A0790918B071092CA0310920C
S1134D70C90310928B0710928A0710925701109260
S1134D8056011092F9021092F80220E00E9451227A
S1134D907CCF2FB7F894332780913002809305019C
S1134DA082E0809320012FBF80910501882309F0C0
S1134DB0F6C4B89AC0980E94AF01F1C40E946E1C58
S1134DC0EEC40E94BD1AEBC40E94FA1AE8C4909182
S1134DD0D30280910901981709F4E1C49093090161
S1134DE0992319F40E949A1BDAC48FEF8093090166
S1134DF0D6C40E94C316D3C431E0D32EEE24FF24BC
S1134E000AEF12E0909180078D2D892371F0F8014B
S1134E1060817181118210828D2D809598239093E9
S1134E20800743E08E2D0E948A160894E11CF11C31
S1134E300E5F1F4FF8E0EF16F10409F4B0C4DD0C67
S1134E40E1CF0E94A916ABC480919301882309F095
S1134E50A6C4AA24BB242FEFE22EF22E9FEF892EA4
S1134E60992ECC24DD244BC0022F112783E0000FA0
S1134E70111F8A95E1F70B5C1D4FF80122813381E4
S1134E80FFEF2F3F3F07C1F18091500490915104EF
S1134E902817390789F1F801808191810E94B804AB
S1134EA0BC01665F7F4FF80144815581460F571F4F
S1134EB0208131818091F7069091F80628173907EF
S1134EC079F48FB7F8949927248135813093FA06C1
S1134ED02093F90627812093FC068FBF4A010CC05A
S1134EE0F8018781882341F46233710528F44E1553
S1134EF05F0510F458017A010894C11CD11C2C2DB3
S1134F008091E801C81608F4AFCFFFEFEF16FFEF6A
S1134F10FF0609F471C02FEF82162FEF920691F06D
S1134F208091FC06882341F08091F9069091FA065D
S1134F300A96E816F90630F0C7010F968815990508
S1134F4008F05AC08091640790916507A0916607A4
S1134F50B09167070196A11DB11D809364079093DA
S1134F606507A0936607B09367078091F706909151
S1134F70F8060E94A0048F3F81F0282F33278BE08E
S1134F8090E0289FF001299FF00D389FF00D112427
S1134F90E85FFC4F8581877F8583F501808191815E
S1134FA00E941106F501808191810E94A0048F3F27
S1134FB041F0EBE08E9FF0011124E85FFC4F128674
S1134FC011862FB7F8943327F5018081918190934E
S1134FD0F8068093F706848195819093FA0680936E
S1134FE0F90687818093FC062FBFC4018E199F099F
S1134FF0459710F00E94EC0D80913001882361F4F4
S1135000FFEF8F16FFEF9F0639F42FEFE2162FEF15
S1135010F20611F00E94B90110923001C0C38091D0
S11350202F01882309F0BBC3E091DD02F091DE0279
S113503010828091F7069091F806E091DD02F091DC
S1135040DE028283892F99278183809193018823AB
S113505069F08091F9069091FA06E091DD02F091F1
S1135060DE028483892F992783832BC08091F706DE
S11350709091F8060091F9061091FA06EFEF8F3F30
S11350809E0781F4E091DD02F091DE020483812F1A
S113509099278383E091DD02F091DE0280818068AC
S11350A080830FC00E94B8049801265F3F4F280FE9
S11350B0391FE091DD02F091DE022483232F332790
S11350C02383EDE9CE2EE2E0DE2E68E0C6010C97E4
S11350D00E942B0675E0E72EF12CE80EF91E8824B9
S11350E040E000E010E06BE0A62EB12C53E0952EDA
S11350F080912C0199270196800F911F6AE070E03E
S11351000E94A1319C0199278A9DD0018B9DB00DED
S11351109A9DB00D1124A85FBC4FFD01858199278C
S113512080FF15C081FF13C08D919C911197499DFB
S1135130B00111246E0D7F1DFB018183892F9927F6
S11351408083FD018681FB0182834F5F822E0930BB
S1135150110521F00F5F1F4F473050F280922C0150
S113516080912B018F5F80932B018150F601818305
S1135170842F8F7080939D028FEF8093970280938A
S1135180980280E780939C0283E0489FC001112429
S1135190895F482F552761E972E081E00E94AA14D3
S11351A09927882321F481E080932F01F8C2843069
S11351B009F0F5C210922D01F2C28FB7F894992725
S11351C0209167042093120123E0209332018FBFC2
S11351D080911201882321F0813009F0E0C203C0DC
S11351E0159A1D9A02C0169A1E9A4AE050E060E091
S11351F070E085E00E949C03D2C22FB7F894332755
S11352008091CB028093130183E0809334012FBFFC
S1135210809113018093F60680E00E94C00EBFC205
S11352208FB7F8949927209113022093360123E035
S1135230209335018FBFB3C20E940706B0C21D98E8
S1135240159889E106C20E940C06A9C21E981698F8
S11352508AE1FFC180E00E94FB0D8091380181301A
S113526011F40E9407068FB7F89499271092380119
S113527010923701DFCF81E00E94FB0D80913A014B
S1135280813011F40E940C068FB7F894992710927C
S11352903A0110923901CECF8FB7F8949927209113
S11352A076032093140123E020933C018FBF809167
S11352B01401813061F0813020F0823009F06FC236
S11352C038C081E08093EF021092680737C0609184
S11352D05304709154048091550490915604109293
S11352E0AB011092AA0110920307109202071092C8
S11352F037041092360420915E0730915F074427EB
S1135300552766587F4F8F4F9F4FE4EFEE2EF12CB9
S1135310012D112D0E9496006093FF0370930004E9
S11353208093010490930204109216010E948F0549
S113533036C281E08093EF02809368070E9474056F
S11353402EC21092EF020091340410913504809122
S11353506807882319F0813049F404C080E00E9472
S1135360D5030AC082E00E94D50319C1882321F025
S1135370813009F014C213C10E948204882309F405
S11353800BC1B090F6068FB7F894C82E8091340103
S1135390833009F040C0809113018B15E1F58091B1
S11353A0E901882309F0F5C1E9C1ED2DE695E695FB
S11353B0E695FF274D2D5527E751FE4F9A0127709B
S11353C0307081E090E002C0880F991F2A95E2F7BF
S11353D080952081282320830093330112C00F5F1E
S11353E01F4F0130110511F400E010E0D02E802F82
S11353F00E948C048823C9F60E151F0581F74FEF10
S113540050E04093CB028FEF8093130181E08093AF
S113541034010E94B401CFBEBB2009F0BDC06BE0D3
S11354208CEA91E00E9461046C011A8219828091D5
S1135430E20181FF34C08091BF0381FF27C0E09067
S1135440BB03F090BC030091BD031091BE030E9406
S113545084029B01AC018091B7039091B803A091A1
S1135460B903B091BA03281B390B4A0B5B0B2E15F9
S11354703F054007510750F4E21AF30A040B150BD9
S1135480F5E6EF16F1040105110548F444E650E091
S113549060E070E087E00E949C03A29AAA9A00E070
S11354A010E00E9497030F5F1F4F04361105C9F7E0
S11354B0C114D10409F470C08091000190910101DC
S11354C0F6018183892F9927808380911901909116
S11354D01A018583892F99278483CE0101960E941E
S11354E0DB0229813A81F6012783832F992786835A
S11354F0982F88273327822B932B0E94B804F60118
S11355008187892F992780878091E801828781E0AC
S11355100E94C00E83E090E090936307809362073B
S11355208091270181FF38C080E28093AC01809193
S11355300001909101018093BD01892F99278093E7
S1135540BC018091A9018F5F8093A9018150809350
S1135550BE018CE08093BF011092B901E0918407F1
S1135560F09185073097C1F08CEA91E091838083B4
S113557012828EE18383CF010E94D104882361F4D7
S11355808091270182FF04C084FD02C00E94B901FA
S113559010928507109284070E94870400C16BE073
S11355A08CEA91E00E946104FC010383812F992716
S11355B082838091190190911A018583892F9927FB
S11355C084838091190190911A01019690931A0194
S11355D080931901E4C0AC9880914001813011F4AA
S11355E00E9455048FB7F8949927109240011092A5
S11355F03F0120CE2FB7F89433278091A2018093E6
S1135600150183E080933E012FBF80911501E82F9F
S1135610FF27EE0FFF1FEE0FFF1FEB57FD4FE0803C
S1135620F18002811381882309F0B9C081E00E94CE
S1135630660E882309F0B3C0E0925304F092540438
S11356400093550410935604AAC00E945504A7C0A1
S11356508DE10E946F01A3C0D090160160915E0796
S113566070915F077B01002711277695679588273E
S113567099272091FF033091000440910104509137
S11356800204620F731F841F951F24EF30E040E073
S113569050E00E9496009B01AC018FB7F8949927C3
S11356A0ED2DFF27EE0FFF1FDF01A052BE4F119615
S11356B01C921E92E05AF84FB183A0838FBF81E001
S11356C08093160160E08D2D34C0709116018FB760
S11356D0F8949927A72FBB27FD01EE0FFF1FE05277
S11356E0FE4F0190F081E02D8FBF03C00280F38153
S11356F0E02D3097D9F72FB7F8943327AA0FBB1FA3
S1135700FD01E052FE4F11821082A05AB84F872F3C
S11357109927880F991F80529E4F8D939C932FBF7A
S113572081E08093160120E030E040E050E061E049
S1135730872F0E943D0D33C08FB7F894992710929C
S1135740D5021092D40276CD0E94B81B28C02E7FB9
S11357502093070321E099278FBF222301F1809131
S1135760A301882341F080918E02882321F48AE2E8
S113577090E00E94E9140E94BE0111C081E0809370
S11357801301109234018093370186E10E946F0166
S113579042CE80913301E82EFF24870120CE229649
S11357A00FB6F894DEBF0FBECDBFDF91CF911F912E
S11357B00F91FF90EF90DF90CF90BF90AF909F90AC
S11357C08F90089580915D078F3FB1F0282F332784
S11357D0F901E551FE4F808180935D078F3F11F4FD
S11357E080938F078FEF80832F3F31F0822F0E94A9
S11357F05D2481E090E0089580E090E00895CFEF8B
S1135800D0E1DEBFCDBF1FB7F89446E250E06FEFA2
S113581070E08BEE91E00E945B318FEF80935D0727
S113582080938F0781E08EBD88E080BF83E083BFD3
S11358308CB59DB54AE72CB53DB52817390708F452
S11358404150442311F0C901F6CF92B782B78917AA
S1135850E9F32CB53DB592B782B78917E9F38CB556
S11358609DB5821B930B4096E5E096958795EA9546
S1135870E1F790935F0780935E0713BE83B78EBDF5
S11358808EB580BF12BE1DBC1CBC8FEF86BF86B711
S113589080937C0080B7992787709070892BD1F70B
S11358A0D29AD19AD09ADA9AD99AD89A15BA8FEF0D
S11358B084BBD498DC98109289001092880080915F
S11358C07D00846080937D0080918A00887F82605F
S11358D080938A0016B81DBC1CBC87B7846087BF40
S11358E08EB5887F84608EBD80E285BF0E94E22BE6
S11358F08823E1F780E094E090934C0180934B017E
S11359001092550110924D0110924E0110924F01C8
S113591010925001109251011092520110925301B1
S113592010925401109207031092030480EE91E048
S113593090936107809360071092FD06109206030E
S11359401092E901109277031092F60210929201DC
S1135950E1E9F7E084E094E081939193049627E0F1
S1135960E93AF207C9F78CE08093F20210928107BA
S1135970E8E3F4E089E694E081939193C49624E00B
S1135980E035F207C9F78CE08093F3021092D60257
S113599010922D0110922E01109264071092650747
S11359A01092660710926707109293018FEF9FEF92
S11359B09093F8068093F7061092FA061092F9066F
S11359C01092FB061092FC061092E8018FB7F8942F
S11359D0992720910601309107018FBF309351041C
S11359E0209350046AE181E992E00E942B0690938F
S11359F0DE028093DD0287EC92E09093850780932A
S1135A0084078BEC93E09093E7028093E6028FB7D0
S1135A10F894992720910601309107018FBF3093A4
S1135A201502209314021092A901EDE0F3E0108214
S1135A303B9683E0EB37F807D1F7E4E9F1E08FEF29
S1135A409FEF918380831282339621E0E03AF2073C
S1135A50C1F70E940E036093DA06809100019091D1
S1135A6001010196AA27BB278093CF029093D0020D
S1135A70A093D102B093D20280B7886080BF8BE03C
S1135A8083BF86EE81BF87B7826087BF0E947B0792
S1135A9084E297E090934601809345018E98B89AEA
S1135AA08C988FEF8093DF0210925B0410925C0459
S1135AB010925D0410925E04B89AD69AD59A8FB764
S1135AC0F894992720910601309107018FBF3093F4
S1135AD0E5022093E4028091080199279093C6027D
S1135AE08093C5028FE1809352048AE18093680415
S1135AF081E080932E02109283078093CC0210924F
S1135B0066040E94E22B8823E1F7812F99278FBF37
S1135B10789481E08093E2018093E3010E948402FF
S1135B20AB01BC01EE2408EE13E020E030E081E09C
S1135B300E94650261E081E00E94DD008823E9F4AF
S1135B408FB7F894282F332780911C0190911D0161
S1135B50892B11F02FBF1BC081E090E090931D01B1
S1135B6080931C012FBFDD9A0E94740924E130E068
S1135B7040E050E00E94310A0AC062E081E00E94E5
S1135B80F700882321F461E081E00E94F7008FB7D9
S1135B90F894482F552749C087B799278370907088
S1135BA0892B19F4E5E0F0E013C080B799278770DA
S1135BB09070892BD1F781B792B7891B8C3030F064
S1135BC082B7853F18F4E3E0F0E002C0E2E0F0E0E1
S1135BD087B7887BC1F480917D008B7FA1F46E9997
S1135BE012C08AB190919A00892B807C61F48091D3
S1135BF0740082FD08C0379B03C081E090E005C0BB
S1135C0085E090E002C080E090E025B78E1708F4AC
S1135C10E82FFF27E852FF4FC895E02D237E20622E
S1135C20E22BE5BF78948895F89480915D078F3FC7
S1135C3009F4B2CF282F3327F901E551FE4F8081B3
S1135C4080935D078F3F11F480938F078FEF8083DC
S1135C502F3F09F4A1CF4FBF822F0E945D2497CF1D
S1135C6078941F920F920FB60F9211242F923F92A5
S1135C704F925F926F927F928F929F92AF92BF9258
S1135C80CF92DF92EF92FF920F931F932F933F9344
S1135C904F935F936F937F938F939F93AF93BF9330
S1135CA0CF93DF93EF93FF93CCB5DDB580E286BF4E
S1135CB08FB7F894282E0E9474099E01261B370B77
S1135CC02901662457FC6094762C460E571E681EE4
S1135CD0791E80912101909122018530910521F056
S1135CE0069709F0E0C0BFC086E090E090932201DF
