S01800006275696C642F6D6963617A2F6D61696E2E73726563E5
S11300000C946F000C940E0B0C94180B0C94220B94
S11300100C942C0B0C94360B0C94400B0C94341352
S11300200C944A0B0C948E000C948E000C940120BA
S11300300C94202F0C94D80A0C94EE0A0C945D0DA9
S11300400C94C70A0C948B240C948E000C948E0090
S11300500C948E000C94C90F0C948E000C948E009A
S11300600C94E30A0C94910C0C943A0C0C947B0CB5
S11300700C94860C0C94A40C0C948E000C948E009E
S11300800C948E000C948E000C948E002C25E62586
S1130090F42544265E2664269E26A126C526DA2655
S11300A0FC2A2F2B812B932B1A25BB2BC92BCC2B52
S11300B0CF2BD22BE52BF12BF42BF72BFA2BFD2B8B
S11300C0002C032C062C092C0C2C372C3A2C3E2CFF
S11300D0792C7C2C842C212500081C181410112444
S11300E01FBECFEFD0E1DEBFCDBF11E0A0E0B1E095
S11300F0E6EDF3E600E00BBF02C007900D92A831D5
S1130100B107D9F717E0A8E1B1E001C01D92A93AFF
S1130110B107E1F70E94E82C0C94EA310C9400003A
S11301208FB7F894992708958FBF08952F923F921F
S11301304F925F926F927F928F929F92AF92BF92F3
S1130140CF92DF92EF92FF920F931F935B016C01AA
S113015019012A01A80197010E9491313B014C0128
S1130160C601B501A80197010E949131CA01B901E4
S1130170A20191010E943F315B016C01C401B301F2
S11301800E943F31A80197010E949131A20EB31E33
S1130190C41ED51EC601B5011F910F91FF90EF90AB
S11301A0DF90CF90BF90AF909F908F907F906F9093
S11301B05F904F903F902F900895282F9FB7F89409
S11301C0662349F0E82FFF27E55AFB4F80818823F7
S11301D011F021E006C0E22FFF27E55AFB4F6083B0
S11301E020E0892F99278FBF822F99270895E82F20
S11301F08FB7F894282F332790E0FF27E55AFB4F59
S11302008081861709F491E02FBF892F99270895DB
S1130210682F81E00E94F70099270895882311F040
S11302206E9A08956E980895882311F06F9A089530
S11302306F98089580E00E940E01BA9ABB98B99A0B
S11302406C9A80E00E941401709A6B986A9868987E
S113025081E00E940E0108950F931F93CF93DF93C3
S1130260182F8FB7F894C82FDD270C2F61E080E09A
S11302700E94DD00882321F0CFBF85E090E024C0F8
S1130280809105018823A1F480912001823081F4BA
S113029009C082E080932001109205010E941A0196
S11302A0B89AC0981093020180E00FBF99270CC040
S11302B080912001882369F38FB7F89499271092CD
S11302C05B048FBF81E0F1CFDF91CF911F910F913C
S11302D00895282F9FB7F894E82FFF27E551FE4F84
S11302E080818F3F81F4E0918F07E21771F40BC096
S11302F020935D0704C0FF27E551FE4F2083209320
S11303008F0720E007C025E005C080915D078F3F7F
S113031091F7EECF892F99278FBF822F99270895C0
S113032084E00E9469019927089585E00E9469018B
S11303309927089586E00E946901992708951D98D8
S1130340159889E10E94690180E090E008951E9863
S113035016988AE10E94690180E090E008958DE09A
S11303600E9469019927089585E20E9469019927ED
S113037008951F93182F81E00E940E011FB9779BE7
S1130380FECF8FB199271F9108958F929F92AF92BC
S1130390BF92CF92DF92EF92FF920F931F93CF936E
S11303A0DF938FB7F8949927C0908A07D0908B0772
S11303B08090C9039090CA03C091F802D091F902C9
S11303C020915601309157019AE0A92EB12CAC0E20
S11303D0BD1E2A153B0508F459018FBF7401EC0EAC
S11303E0FD1E86010C0F1D1F14C0C114D10419F089
S11303F0F801808101C080E00E94B9018114910458
S113040011F0F701808321960894E11CF11C0F5F21
S11304101F4FC5010197C817D90738F381E00E941F
S113042014019FB7F894C114D10431F0CC0EDD1E31
S1130430F60180818FB901C01FB8D093F902C0932F
S1130440F802892F99278FBF80E090E0DF91CF9148
S11304501F910F91FF90EF90DF90CF90BF90AF90DE
S11304609F908F9008952FB7F89433275093570196
S11304704093560190938B0780938A077093CA0325
S11304806093C9031092F9021092F8022FBF452B12
S113049029F08FB10E94C5019927089587E00E9431
S11304A0690180E090E008958FB7F894992710923D
S11304B05D048FBF0895EF920F931F93AE2D99E0C3
S11304C0899FF0011124E858FC4F408351836283D3
S11304D073830483158326833783A17080858E7F7D
S11304E08A2B826080878BE00E9469011F910F91A3
S11304F0EF9008957FB7F89462B720918E01309100
S11305008F01409190015091910106B601FE0FC0F8
S113051081B792B7280F311D411D511D2F5F3F4FE9
S11305204F4F5F4F290F311D411D511D04C0260F30
S1130530311D411D511D872F99278FBFCA01B90154
S11305400895AF92BF92CF92DF92EF92FF920F93F2
S11305501F93F82E5A016B010E947A02AB01BC0171
S1130560EE24960185018F2D0E945B021F910F914D
S1130570FF90EF90DF90CF90BF90AF900895982FA9
S1130580969596959695E6E0F3E0E90FF11D877050
S113059021E030E002C0220F331F8A95E2F7808108
S11305A0822399270895982F969596959695EDEF21
S11305B0F6E0E90FF11D877021E030E002C0220F60
S11305C0331F8A95E2F78081822399270895EF9259
S11305D0FF920F931F93CF93DF93982F8FB7F894C5
S11305E0E82E80913E01833009F045C080911501C9
S11305F0891709F040C08091FD06882309F048C09E
S11306003EC0EF2DE695E695E695FF274F2D55273D
S1130610E350F94F9A012770307081E090E002C0F6
S1130620880F991F2A95E2F780952081282320833B
S1130630C0933D0111C02196C130D10511F4C0E031
S1130640D0E0FC2E8C2F0E94D3028823D1F6C01751
S1130650D10789F74FEF50E04093A2018FEF8093C9
S1130660150181E080933E018EE10E946901EFBE95
S113067080E090E013C0EFBE81E090E00FC081E025
S11306808093150110923E0180933F0180E2EDCFEB
S113069080913D01082F1127E801CDCFDF91CF9143
S11306A01F910F91FF90EF900895AF92BF92CF9258
S11306B0DF92EF92FF920F931F93F82E5A016B0172
S11306C00E947A02AB01BC0121E0E22E9601850171
S11306D08F2D0E945B021F910F91FF90EF90DF908E
S11306E0CF90BF90AF900895AB01BC0182E00E940F
S11306F0550308958FB7F8949927209167042093A0
S1130700120123E0209332018FBF809112018823CC
S113071019F08130A1F40AC0159A1D9A4AE050E0FC
S113072060E070E085E00E9455030895169A1E9AD1
S11307304AE050E060E070E085E00E9455030895CF
S1130740A49AAC9A41E150E060E070E086E00E9437
S1130750550380E090E00895AC9880914001813089
S113076011F40E94A0038FB7F894992710924001C6
S113077010923F018FBF08950F931F93CF93DF9380
S1130780182F8FB7F894282F3327022F80913C011C
S1130790882351F581E080933C01109376032FBFA9
S11307A08FB7F8949927379A8FBF8FB7F894C82FCB
S11307B0DD272C2F909114019330A1F480913C01FA
S11307C0813021F48BE10E94690108C0823051F428
S11307D0809176038093140190933C01CFBF80E015
S11307E090E01FC02FBFFBCF812F0E94BF02882340
S11307F019F085E090E014C0E12FE695E695E695C2
S1130800FF27EA5FFC4F177081E090E002C0880F79
S1130810991F1A95E2F72081282B208380E090E02D
S11308200FBFDF91CF911F910F910895882321F07D
S1130830813021F081E005C080E001C082E00E94A7
S1130840BC03992708959C01685F6D3118F080E01E
S113085090E008950C9611F0C901449608959FB74D
S1130860F894292F3327422F90911201981741F4BD
S113087080913201833021F42FBF81E090E008950C
S11308804FBF80E090E00895982F969596959695A1
S1130890E9EEF1E0E90FF11D877021E030E002C0DC
S11308A0220F331F8A95E2F78081822399270895C6
S11308B08FB7F89499272BB334E023272BBB8FBF32
S11308C0089583E090E090936307809362070E9409
S11308D0580408952F923F924F925F926F927F92A5
S11308E08F929F92AF92BF92CF92DF92EF92FF923C
S11308F00F931F93CF93DF93CDB7DEB729970FB62E
S1130900F894DEBF0FBECDBF6FB76983F894209013
S1130910CF023090D0024090D1025090D20266248F
S113092077248824EEE4AE2E73E8B72ECC24DD249D
S1130930EE24FF2400E010E0222D332D442D552D0C
S1130940662D772D882D90E00E94AE2F2A833B835D
S11309504C835D836E837F8388879987822E932E51
S1130960A42EB52E2401350100E20E94AC30A22E43
S1130970B32EC42ED52EA3019201569547953795D3
S113098027952A0D3B1D4C1D5D1D57FF05C05F7744
S11309902F5F3F4F4F4F5F4F2093CF023093D002D2
S11309A04093D1025093D202E9818E2F99278FBFB1
S11309B0CA01B90129960FB6F894DEBF0FBECDBFA8
S11309C0DF91CF911F910F91FF90EF90DF90CF9027
S11309D0BF90AF909F908F907F906F905F904F905B
S11309E03F902F9008950E946A04DC01CB01089582
S11309F0AC01E8E0F3E080E090E09C01858180FFB9
S1130A0005C0808191818417950741F0C901019641
S1130A103B968A30910589F72FEF30E0C90108959C
S1130A200E94F8048F3F91F099272BE030E0829FD9
S1130A30F001839FF00D929FF00D1124E85FFC4FAD
S1130A40858181FF03C08781908508958FEF90E0B1
S1130A500895AC0120912A012D3018F081E090E036
S1130A60089580912901E82FFF27EE0FFF1FE5521B
S1130A70F94F518340838F5F809329018D3011F4A6
S1130A80109229012F5F20932A0180E090E00895BD
S1130A90782F522FBFB7F89480912D028E7F8093C8
S1130AA02D0287B1A82FAF71262F33278295869503
S1130AB08695837099272817390719F020E030E0CC
S1130AC013C0872F8850863118F021E030E00CC025
S1130AD0E0E0F0E0272F33278A2F992728173907DA
S1130AE011F4E1E0F0E09F01E22FE1702E2F220FDC
S1130AF080912D028178372F3F71932F990F990F91
S1130B00822B892B80932D0241704295440F407EA5
S1130B1040726295660F660F607C432B462B842FD0
S1130B20992787B9583061F580915E0790915F07E6
S1130B3021E08638920718F027E030E020C0833C9B
S1130B40910518F026E030E01AC08136910518F0BE
S1130B5025E030E014C08033910518F024E030E043
S1130B600EC08831910518F023E030E008C08C30C5
S1130B70910518F022E030E002C020E030E0522F6E
S1130B805770887D852B886D992786B98B2F992777
S1130B908FBF8E2F9927089580916807882321F0AD
S1130BA0813021F428E00DC028E008C0882329F012
S1130BB0813031F08FE120E005C020E081E002C007
S1130BC020E08EE140E060E00E94480508958091B5
S1130BD01601882319F08FE120E002C028E083E0A9
S1130BE040E060E00E9448050895982F96959695F8
S1130BF09695E7E7F3E0E90FF11D877021E030E017
S1130C0002C0220F331F8A95E2F78081822399273D
S1130C1008950F931F93CF93DF93182F8FB7F894F2
S1130C20282F3327022F80913201882331F581E068
S1130C3080933201109367042FBF8FB7F894C82FA5
S1130C40DD279C2F809112018230A9F4809132011A
S1130C50813021F482E10E94690109C0823059F493
S1130C60809167048093120183E080933201CFBFA7
S1130C7080E090E01FC09FBFFBCF812F0E94F5054D
S1130C80882319F085E090E014C0E12FE695E695FD
S1130C90E695FF27E958FC4F177081E090E002C009
S1130CA0880F991F1A95E2F72081282B208380E072
S1130CB090E00FBFDF91CF911F910F91089580E0D5
S1130CC00E9409069927089581E00E940906992740
S1130CD008950E94F8048F3F19F481E090E008958C
S1130CE0282F33278BE090E0289FF001299FF00DF7
S1130CF0389FF00D1124E85FFC4F8581886085835F
S1130D0080E090E008959C016E5F6D3118F080E002
S1130D1090E008950C9611F0C9010E960895FC0117
S1130D2080899927982F882721893327822B932B11
S1130D300895FC01CB01478150859A0163E0220F9D
S1130D40331F6A95E1F7240F351F2B5F3F4F820F46
S1130D50931F6AE070E00E946A3170876783089588
S1130D60FC0161859285662339F48AE0989FB0017D
S1130D7011246A5070400BC077278AE0989FC00105
S1130D8011240E947E316A50704011861286CF0170
S1130D900E949906089580912801E82FFF27EE0FFD
S1130DA0FF1FE552F94F0190F081E02D20912A01B7
S1130DB0222351F08F5F809328018D3011F410921B
S1130DC02801215020932A01CF010895FC01808934
S1130DD09927982F882721893327822B932B0895CD
S1130DE0AF92BF92DF92EF92FF920F931F93CF9334
S1130DF0DF935C01D0909201F090F602EE2425C0BE
S1130E000F2D03701127C5010E94E606F801EE0FAD
S1130E10FF1FEE0FFF1FE00FF11FE95EFD4F208162
S1130E2031818217930779F4D5011C96ED019E81D7
S1130E308281891741F499818481891721F49F81E2
S1130E408381891721F0E394F394ED14C9F68E2D70
S1130E509927DF91CF911F910F91FF90EF90DF9031
S1130E60BF90AF9008952091F3022C3018F081E0E8
S1130E7090E00895E091D602E20FEC3008F0EC50D7
S1130E80FF27EE0FFF1FE85CFB4F918380832F5FEA
S1130E902093F30280E090E008952091F2022C3038
S1130EA018F081E090E00895E0918107E20FEC30C2
S1130EB008F0EC50FF27EE0FFF1FEF56F84F918319
S1130EC080832F5F2093F20280E090E008950F93D7
S1130ED01F93CF93DF93EC01892BF9F02091F70650
S1130EE03091F8068FEF2F3F3807B9F080919301C6
S1130EF0813019F4198218820DC00091F9061091FD
S1130F00FA06C9010E941005065F1F4F080F191F3A
S1130F101983088380E090E002C081E090E0DF91D3
S1130F20CF911F910F910895EF92FF920F931F930A
S1130F300E947A02DC01CB01E090C003F090C1036F
S1130F400091C2031091C30340914D0150914E0191
S1130F5060914F0170915001411551056105710572
S1130F60C1F03FB7F8942091030420FD0BC02E7FFD
S1130F70209303048E199F09A00BB10B481B590B36
S1130F806A0B7B0B832F99278FBF88E00E94550340
S1130F9005C08091C8038D7F8093C8031F910F9172
S1130FA0FF90EF900895DF92EF92FF920F931F93BB
S1130FB08FB7F894282F3327D22E91B782B746B72C
S1130FC0981711F041FF02C02FBF6AC08091F70249
S1130FD08823E1F10E947A02E0905704F0905804CB
S1130FE00091590410915A042091A4013091A50153
S1130FF04091A6015091A7016E197F09800B910BB6
S1131000621773078407950720F01092F70271E0C6
S11310101EC02E0D3F1D401F511F80918E019091C7
S11310208F01A0919001B0919101281B390B4A0BBB
S11310305B0B273E31054105510540F4822F2230D8
S113104010F070E005C070E082E002C070E086EE4F
S1131050682F615000B601FCFDCF82B7681709F410
S11310606F5F20918E0130918F01409190015091DA
S11310709101DA01C9010196A11DB11D860F911DCF
S1131080A11DB11D82179307A407B50710F4622FA1
S1131090609561BFDFBE772319F08AE00E94690181
S11310A01F910F91FF90EF90DF900895AFB7F894E0
S11310B0BB27E1E0E093F702609357047093580470
S11310C08093590490935A042093A4013093A5016A
S11310D04093A6015093A701AFBF0E94D307089580
S11310E0FC0153E0F695E7955A95E1F7ED5FFB4F68
S11310F08770907021E030E002C0220F331F8A9580
S1131100E2F78081822B808308959BE0899FF00120
S11311101124E85FFC4F718360831282138214826E
S113112085E085831682108617820895AF92BF9258
S1131130CF92DF92EF92FF920F931F93CF93DF939F
S1131140E82EF62EA82EBB248BE090E0A89EF0019A
S1131150A99EF00DB89EF00D1124E85FFC4F858127
S113116082FF03C062838B7F858382810F2D081BDE
S1131170F28283818F5F8383002321F08481800F37
S11311808150848383812481820F912D911D039743
S11311901CF4033008F44FC0C080D180C8E0D3E011
S11311A0888199818C159D0509F03FC08D8180FF50
S11311B03CC082608D836B811C81160F133008F450
S11311C013E07727882799272FEF30E040E050E09D
S11311D00E943F31212F3327442755270E94913104
S11311E08E8169E0869FC00111240596820F911DAE
S11311F06AE070E00E947E316E831B821C8266234B
S113120019F46FEF70E00EC0772786EF99E00E9423
S11312107E316A5070406F3F710519F010F06FEF26
S113122070E07727CE010E9499062B9683E0C6379B
S1131230D80709F0B5CF0B30A8F08BE090E0A89E5A
S11312408001A99E100DB89E100D1124085F1C4F3B
S1131250F801608171818E2D0E948508F801F28267
S113126081E08383DF91CF911F910F91FF90EF90E5
S1131270DF90CF90BF90AF90089580E090E0EDE0D4
S1131280F3E09C01808180FF08C0C90101963B9670
S11312908A309105B1F72FEF30E0C9010895982FF6
S11312A0AFEF60E070E040E050E0EDE0F3E080811B
S11312B0282F332720FF0BC021FF09C023FD07C0BF
S11312C0228133812617370710F0A42FB9014F5F0D
S11312D05F4F3B964A30510551F7892F992768177C
S11312E0790718F48FEF90E008958A2F99270895CD
S11312F0AC013091E8018FEF4F3F580711F020E027
S113130012C0832F99270895E22FFF2763E0EE0F81
S1131310FF1F6A95E1F7EB5CFD4F80819181841793
S1131320950719F02F5F231779F7822F99270895CE
S1131330FC018081448555274F7050709A01220F1B
S1131340331F240F351F821B8F50992708951F9335
S1131350CF93DF93162FC0E0D0E06AE10E948306AA
S1131360FC0180818123811711F4C1E0D0E0CE011A
S1131370DF91CF911F91089580E88093A801109286
S113138090021092690710925C0710922F02089540
S1131390CF93DF93FC0115A6DC019E96ED011B8221
S11313A01A82198280E886A7DF91CF9108958FB7BA
S11313B0F89460910403709105032CB53DB506B60D
S11313C002FE04C06F5F7F4F2CB53DB599278FBFD8
S11313D088279927CB017727662744275527622B2F
S11313E0732B842B952B0895EF92FF920F931F93E9
S11313F00E94D7097B018C012091E0023091E10227
S11314004091E2025091E3028091D9029091DA0274
S1131410A091DB02B091DC02820F931FA41FB51FC1
S1131420E216F3060407150730F082179307A407A2
S1131430B50758F005C082179307A407B507E0F570
S1131440E816F9060A071B07B8F59C01AD012E1929
S11314503F09400B510B213060E8360760E0460736
S113146060E0560768F180E090E8A0E0B0E0E80EA4
S1131470F91E0A1F1B1FE092E002F092E1020093A2
S1131480E2021093E30280E090E8AFEFBFEFE80ED2
S1131490F91E0A1F1B1F2050304840405040209323
S11314A0D9023093DA024093DB025093DC0220E04D
S11314B030E840E050E014C020E030E040E050E08C
S11314C08093E0029093E102A093E202B093E302DE
S11314D01092D9021092DA021092DB021092DC020E
S11314E0A901B7012CB53DB5C9018E199F09039611
S11314F08417950720F0B9016D5F7F4F02C0640F18
S1131500751F6115710511F461E070E06150704060
S11315107BBD6ABD80E186BF87B7806187BF1F91AD
S11315200F91FF90EF9008950F931F930FB7F894C6
S113153011276093E0027093E1028093E20290939A
S1131540E3022093D9023093DA024093DB025093F2
S1131550DC020E94F4090FBF1F910F91089597B701
S11315609F7D97BF90E296BF882319F08EB5806463
S113157002C08EB58F7B8EBD87B7806287BF80E047
S113158090E0089581E00E94AF0A992708951F9280
S11315900F920FB60F9211248F9383B783BF00B6B7
S11315A000FCFDCF8F910F900FBE0F901F901895E8
S11315B078941F920F920FB60F9211240F900FBEC2
S11315C00F901F90189578941F920F920FB60F9258
S11315D011240F900FBE0F901F90189578941F92AE
S11315E00F920FB60F9211242F933F938F939F93D3
S11315F02FB7F89433278091040390910503019643
S113160090930503809304032FBF9F918F913F9183
S11316102F910F900FBE0F901F9018951F920F924D
S11316200FB60F9211240F900FBE0F901F901895B4
S11316301F920F920FB60F9211240F900FBE0F90AE
S11316401F9018951F920F920FB60F9211240F90AE
S11316500FBE0F901F9018951F920F920FB60F9206
S113166011240F900FBE0F901F9018951F920F9288
S11316700FB60F9211240F900FBE0F901F90189564
S11316801F920F920FB60F9211240F900FBE0F905E
S11316901F9018951F920F920FB60F9211240F905E
S11316A00FBE0F901F9018959FB7F8946091D702C2
S11316B07091D802209188003091890080917C003B
S11316C082FF06C06F5F7F4F2091880030918900B0
S11316D0892F99278FBF88279927CB0177276627DA
S11316E044275527622B732B842B952B0895EF9257
S11316F0FF920F931F930E94540B7B018C01209146
S11317004701309148014091490150914A0180912B
S1131710310290913202A0913302B0913402820FCF
S1131720931FA41FB51FE216F3060407150730F034
S113173082179307A407B50758F005C082179307CB
S1131740A407B507E0F5E816F9060A071B07B8F57C
S11317509C01AD012E193F09400B510B213060E86B
S1131760360760E0460760E0560768F180E090E8DD
S1131770A0E0B0E0E80EF91E0A1F1B1FE09247012B
S1131780F09248010093490110934A0180E090E8E7
S1131790AFEFBFEFE80EF91E0A1F1B1F20503048A1
S11317A04040504020933102309332024093330240
S11317B05093340220E030E840E050E014C020E0D0
S11317C030E040E050E08093470190934801A093BB
S11317D04901B0934A0110923102109232021092E0
S11317E0330210923402A901B7012091880030918C
S11317F08900C9018E199F098C599F4F8417950739
S113180020F0B9016C597F4F02C0640F751F611538
S1131810710511F461E070E06150704070938700CD
S11318206093860080E180937C0080917D008061DC
S113183080937D001F910F91FF90EF9008950F9377
S11318401F930FB7F89411276093470170934801D1
S11318508093490190934A012093310230933202DC
S113186040933302509334020E94770B0FBF1F91B1
S11318700F91089578941F920F920FB60F9211242E
S11318801F932F933F934F935F936F937F938F9304
S11318909F93AF93BF93EF93FF9380917D008F7ECF
S11318A080937D0078941FB7F894809131029091D1
S11318B03202A0913302B09134020097A105B10520
S11318C019F40E94E70502C00E94770B812F992723
S11318D08FBFFF91EF91BF91AF919F918F917F91B6
S11318E06F915F914F913F912F911F910F900FBE78
S11318F00F901F90189578941F920F920FB60F9225
S113190011240F900FBE0F901F90189578941F927A
S11319100F920FB60F9211240F900FBE0F901F90CD
S1131920189578941F920F920FB60F9211248F93EB
S11319309F9380918800909189009F918F910F903F
S11319400FBE0F901F90189578941F920F920FB6A8
S11319500F9211242F933F938F939F932FB7F89453
S113196033278091D7029091D80201969093D802A0
S11319708093D7022FBF9F918F913F912F910F900A
S11319800FBE0F901F901895AF92BF92CF92DF9227
S1131990FF920F931F93CF93DF936C01EC018A8125
S11319A0882329F4D0928507C09284077CC04423FD
S11319B009F471C0F601A080B18080919201843055
S11319C009F046C0C5010E94F00620919201622FE1
S11319D00E945E31492F9217D8F5992359F48091CA
S11319E0F6029927019664E070E00E947E318093AC
S11319F0F60229C08091F602840F912D911D9C015D
S1131A0023703070E901CC0FDD1FCC0FDD1FC20F36
S1131A10D31F019664E070E00E947E31FC01EE0F5A
S1131A20FF1FEE0FFF1FE80FF91FC95EDD4FE95ED0
S1131A30FD4F85E0019009928150E1F74F5F80915D
S1131A4092014817B8F280919201815080939201DB
S1131A50F09092018091F6028F0D912D911D83706B
S1131A6090708C01000F111F000F111F080F191F18
S1131A70095E1D4FC5010E94E606E801998388832B
S1131A80F5013C9686818A8381818C8387818B834F
S1131A90F394F0929201F601808191810E943307C0
S1131AA0C6010E944D07DF91CF911F910F91FF90C6
S1131AB0DF90CF90BF90AF9008951F920F920FB612
S1131AC00F9211242F933F934F935F936F937F93C0
S1131AD08F939F93AF93BF93EF93FF9383B783BF8A
S1131AE000B600FCFDCF81B799270196AA27BB2732
S1131AF020918E0130918F0140919001509191017C
S1131B00280F391F4A1F5B1F20938E0130938F01CA
S1131B10409390015093910178940E94D307FF91D0
S1131B20EF91BF91AF919F918F917F916F915F9151
S1131B304F913F912F910F900FBE0F901F901895CA
S1131B40EF92FF920F931F93CF93DF93982F8FB74A
S1131B50F894E82E80913201833009F045C08091D9
S1131B601201891709F040C080917703882309F096
S1131B7045C03EC0EF2DE695E695E695FF274F2D2F
S1131B805527E958FC4F9A012770307081E090E0A6
S1131B9002C0880F991F2A95E2F780952081282397
S1131BA02083C093310111C02196C230D10511F4B4
S1131BB0C0E0D0E0FC2E8C2F0E94F5058823D1F6DE
S1131BC0C017D10789F74FEF50E0409367048FEFB8
S1131BD08093120181E08093320182E10E946901C5
S1131BE0EFBE80E090E010C0EFBE81E090E00CC05A
S1131BF082E08093120110923201F2CF8091310180
S1131C00082F1127E801D0CFDF91CF911F910F91B9
S1131C10FF90EF90089581E00E94A00D80913A0119
S1131C20813011F40E9409068FB7F8949927109215
S1131C303A01109239018FBF0895EF92FF920F93EA
S1131C401F93CF93DF93982F8FB7F894E82E80914A
S1131C503C01833009F045C080911401891709F0D3
S1131C6040C080910603882309F046C03EC0EF2D92
S1131C70E695E695E695FF274F2D5527EA5FFC4F3D
S1131C809A012770307081E090E002C0880F991F9C
S1131C902A95E2F78095208128232083C0933B0175
S1131CA011C02196C330D10511F4C0E0D0E0FC2E60
S1131CB08C2F0E94BF028823D1F6C017D10789F761
S1131CC04FEF50E0409376038FEF8093140181E04F
S1131CD080933C018BE10E946901EFBE80E090E0BB
S1131CE011C0EFBE81E090E00DC083E08093140149
S1131CF010923C013798F1CF80913B01082F1127B6
S1131D00E801CFCFDF91CF911F910F91FF90EF901A
S1131D100895882331F481E00E941D0E80E00E9422
S1131D20E7020895EF92FF920F931F9380910E01A3
S1131D3090910F01A0911001B0911101B695A79552
S1131D40979587958093890290938A02A0938B023A
S1131D50B0938C020E946A04E0908902F0908A0297
S1131D6000918B0210918C02A80197010E9491317D
S1131D70AB01BC014E0D5F1D601F711F40938902B2
S1131D8050938A0260938B0270938C021092F50632
S1131D90809192038D7F8093920382E00E94550389
S1131DA01F910F91FF90EF90089580E890E0A0E0DC
S1131DB0B0E080930E0190930F01A0931001B093B3
S1131DC011010E94920E089580E00E94A00D80915E
S1131DD03801813019F480E00E9409068FB7F89425
S1131DE0992710923801109237018FBF08950F93ED
S1131DF01F93182F0FB7F89461E080E00E94DD0074
S1131E00882371F510930201809105018823A9F5B7
S1131E1080912001823089F586E00CC00E941A016D
S1131E2080912001882349F481E08093200110925D
S1131E30300288E00E9469012AC08091DF028F3F4E
S1131E4031F5E0910401EE2311F11CC0109203015D
S1131E5004C0FF27E152FD4F10821092040117C005
S1131E6081E090E002C0880F991F1A95E2F7209153
S1131E701F01282B20931F010AC080912001882371
S1131E80E1F6CCCF809103018F3F19F7DFCF802F8C
S1131E9099278FBF80E090E01F910F9108951F93C1
S1131EA083E00E942C019927182F882319F083E0DE
S1131EB00E94F70E812F99271F9108951F93CF93A6
S1131EC0DF931FB7F89480911601E82FFF27EE0FD8
S1131ED0FF1F9F0120523E4FE901A881B98110974D
S1131EE041F4E05AF84F1182108281E20E946901A4
S1131EF049C0ED018A819B81E90199838883892BFB
S1131F0021F4E05AF84F318320838D919C911197ED
S1131F109093370480933604B0930307A093020789
S1131F20B093AB01A093AA012091FF033091000468
S1131F3040910104509102046091860770918707D3
S1131F4080918807909189070E941F0C80918607D1
S1131F5090918707A0918807B09189072091FF038A
S1131F60309100044091010450910204820F931FA8
S1131F70A41FB51F8093860790938707A0938807B3
S1131F80B0938907812F99278FBFDF91CF911F913C
S1131F9008951F920F920FB60F921124EF92FF92A1
S1131FA01F932F933F934F935F936F937F938F93DD
S1131FB09F93AF93BF93CF93DF93EF93FF93E4B0DB
S1131FC0F5B078948FB7F894992720912D02122FA9
S1131FD01695117021708FBF222309F0A7C0339882
S1131FE080911601813009F487C080913604909164
S1131FF03704892B59F40E94540B6093860770931D
S11320008707809388079093890745C0E091AA01C8
S1132010F091AB01E192F192F093AB01E093AA014C
S11320208091360490913704880F991F20910207FC
S113203030910307820F931FE817F90779F58FB7DB
S1132040F894C82FDD278091D4029091D502892B72
S113205071F0E0911601FF27EE0FFF1FE05AF84FD1
S11320601182108282E20E946901CFBF45C0809133
S113207036049091370490937F0780937E07809174
S11320800207909103079093D5028093D402CFBFA7
S113209083E20E9469010E945E0F2EC02091FF031B
S11320A0309100044091010450910204609186072C
S11320B07091870780918807909189070E941F0C6F
S11320C08091860790918707A0918807B09189072E
S11320D02091FF03309100044091010450910204C7
S11320E0820F931FA41FB51F8093860790938707C1
S11320F0A0938807B09389078091EF02813021F083
S1132100823009F039C00AC0112351F0F09235042D
S1132110E09234048CE10E9469012EC0112319F469
S11321200E94CC0529C01092EF0226C08FB7F89404
S113213099278FBF2FB7F894332786B1582F57703C
S1132140482F4072987D942B952B8074977B982B05
S113215090619F77892F992786B9887D842B852B59
S113216087738061992786B9887D842B852B877B2B
S11321708069992786B92FBFFF91EF91DF91CF91A5
S1132180BF91AF919F918F917F916F915F914F918B
S11321903F912F911F91FF90EF900F900FBE0F90E2
S11321A01F901895CF93DF93EC010E947809282F94
S11321B08091E8012817D1F0382F31503093E8018D
S11321C013C0822F992743E0880F991F4A95E1F79E
S11321D0DC01AB5CBD4FFC01E35CFD4F88E001908A
S11321E00D928150E1F72F5F231758F38091F70682
S11321F09091F8068C179D07A1F48FEF9FEF9093B1
S1132200F8068093F7061092FA061092F9061092D7
S1132210FB061092FC0681E08093300180E10E946D
S11322206901DF91CF9108951F93CF93DF93EC0160
S1132230162F80910D01882319F5CE010E9478098B
S1132240E82F8091E801E81748F4FF2753E0EE0FE8
S1132250FF1F5A95E1F7EB5CFD4F17838091FC0655
S1132260882311F0112349F08091F7069091F80624
S11322708C179D0729F4112319F080E10E9469014C
S1132280DF91CF911F910895AF92BF92CF92DF92C9
S1132290EF92FF920F931F93CF93DF93809193015B
S11322A0882309F0EAC0CC24DD240FEF1FEF7FEF71
S11322B0A72EB72EEE24FF2447C0C22FDD2763E0EC
S11322C0CC0FDD1F6A95E1F7CB5CDD4F2A813B81A2
S11322D08FEF2F3F3807A9F180915004909151045A
S11322E02817390771F1888199810E941005BC0172
S11322F0665F7F4F4C815D81460F571F288139816E
S11323008091F7069091F8062817390779F48FB76A
S1132310F89499272C813D813093FA062093F9068D
S11323202F812093FC068FBF5A010BC08F81882315
S113233041F46233710528F44017510710F46E011B
S11323408A010894E11CF11C2E2D8091E801E81605
S113235008F4B3CFEFEF0F3F1E0709F47DC0FFEF82
S1132360AF16FFEFBF0691F08091FC06882341F081
S11323708091F9069091FA060A960817190730F029
S1132380C8010F968A159B0508F066C08091640702
S113239090916507A0916607B09167070196A11D0A
S11323A0B11D8093640790936507A0936607B0936B
S11323B067078091F7069091F8060E94F8048F3F12
S11323C081F0282F33278BE090E0289FF001299F8C
S11323D0F00D389FF00D1124E85FFC4F8581877F55
S11323E08583F601808191810E946906F6018081CE
S11323F091810E94F8048F3F41F0EBE08E9FF00141
S11324001124E85FFC4F128611862FB7F894332706
S1132410F601808191819093F8068093F706848178
S113242095819093FA068093F90687818093FC0640
S11324302FBFC501801B910B459770F080E890E099
S1132440A0E0B0E080930E0190930F01A0931001DF
S1132450B09311010E94920E80913001882359F4A7
S1132460FFEFAF16FFEFBF0631F40F5F1F4F19F0F8
S11324708DE00E94690110923001DF91CF911F918C
S11324800F91FF90EF90DF90CF90BF90AF900895A1
S1132490CF92DF92EF92FF920F931F93CF93DF932C
S11324A08C01F62E6A01E22E8FB7F894C82FDD272F
S11324B060E080E00E94F700882321F0CFBF80E035
S11324C090E01EC0CFBF0F0D111D802F80680E94A9
S11324D0B901F82E16950795802F807C0E94B901CA
S11324E00E2D0AC0EE2DFF27E01BF109EC0DFD1D9A
S11324F080810E94B90101500023A1F78F2D9927F3
S1132500DF91CF911F910F91FF90EF90DF90CF90CB
S11325100895CF93DF93CDB7DEB724970FB6F89421
S1132520DEBF0FBECDBF8FB7F89499272091C502A7
S11325303091C6022983232F33272A832091E40272
S11325403091E5022B83232F33272C838FBF24E084
S1132550AE014F5F5F4F60E088E691E00E94481251
S113256024960FB6F894DEBF0FBECDBFDF91CF9196
S113257008951F93CF93DF93182F8FB7F894C82F24
S1132580DD2760E080E00E94F700882321F0CFBFC0
S113259080E090E005C0CFBF812F0E94B901992748
S11325A0DF91CF911F91089583E00E94B91299277A
S11325B00895EF92FF920F931F93CF93DF93182FF9
S11325C07B01042F8FB7F894C82FDD2760E080E0EB
S11325D00E94F700882321F0CFBF80E090E014C070
S11325E0CFBF1064812F99279093EB028093EA0266
S11325F00E94B901182F402F5527B70180E090E0C1
S11326000E943302812F9927DF91CF911F910F915F
S1132610FF90EF900895C098609145017091460134
S113262041E08FE30E94D912089582E090E09093F4
S113263012028093110281E08093900220E030E046
S113264080910201843011F421E030E0232B29F43D
S113265084E00E942C01882319F40E940B1308952E
S113266084E00E94F70E08951F920F920FB60F9206
S113267011242F933F934F935F936F937F938F9383
S11326809F93AF93BF93EF93FF9380911102909127
S11326901202019749F482E090E090931202809331
S11326A011020E94151305C080912F028F5F809341
S11326B02F02FF91EF91BF91AF919F918F917F91E5
S11326C06F915F914F913F912F910F900FBE0F909B
S11326D01F9018951F9380911F01882309F04BC008
S11326E0109102011F3F09F046C060E00E94F7000C
S11326F0882309F440C081E08093D9068091EA01DF
S11327008823E1F11092D90685E090E045C092302B
S113271069F5C09A8091030120E030E08F3F11F405
S113272021E030E0232BE9F4109305018F3F19F4E5
S11327302FEF30E00DC0282F3327F901E152FD4F70
S11327408081809303018F3F11F41093040110835F
S11327502093300281E08093200188E00E94690187
S113276005C0109305011092200111C08091200131
S1132770882369F00FC081E090E00EC080910501CC
S113278090912001882319F2923021F0EFCF80E05C
S11327900E940E0180E090E01F9108951F93CF9353
S11327A0DF939FB7F894C92FDD271C2F9091020166
S11327B0981721F0CFBF81E090E03AC08FEF80936B
S11327C0020130911F013323F1F48FB7F894992754
S11327D010925B048FBF0E946A13CFBF11C0209375
S11327E0020181E090E002C0880F991F4A95E2F748
S11327F08095382330931F0186E00E9469011FBF32
S113280080E090E015C080E065E0E32FFF270E94A0
S11328105E31292F492F5527CF01042E02C09595EB
S113282087950A94E2F780FDDACF822F8F5FEFCF8E
S1132830DF91CF911F91089583E00E94CE139927D1
S113284008951F93CF93DF938FB7F894C82FDD2794
S11328501C2F8091110290911202892B29F484E09B
S11328600E94CE13CFBF1EC01092900280912F02FF
S1132870882311F0B79904C00E9908C0882319F071
S1132880815080932F020E9415130BC081E090E0C9
S1132890909312028093110210922F0284E00E94FE
S11328A0CE131FBFDF91CF911F9108950E94BC09E1
S11328B0C09AC09888E00E94B91288E00E94B912B8
S11328C0C09A84E00E94CE130E9421140895FF92BE
S11328D00F931F93CF93DF93F82E8B018FB7F89448
S11328E0C82FDD2760E080E00E94F700882321F0F4
S11328F0CFBF80E090E00CC0CFBF8F2D0E94B90104
S1132900812F99270E94B901802F0E94B90199272C
S1132910DF91CF911F910F91FF9008951F931FB7DF
S1132920F89480912E02882319F460E070E009C0C5
S113293060E080918307882309F461E081E06827DF
S113294077278091CC02882319F480E090E00AC0B4
S113295090E080916604882309F491E081E098274F
S1132960892F9927762F6627770F770F770F24E023
S1132970880F991F2A95E1F7826E9262682B792B52
S113298081E10E946714812F99278FBF1F910895B9
S11329908FB7F8949927609168048FBF85E0689F8A
S11329A0B0011124625D7E4F706488E10E94671457
S11329B00895EF92FF921F93CF93DF93E090CD029F
S11329C0F090CE02F70182A59927182F882309F4E5
S11329D01FE1C09880912C02811749F0612F77275D
S11329E06F717070606E706885E10E946714109357
S11329F02C02F70110818FB7F894C82FDD2760E00F
S1132A0080E00E94F700882311F0CFBF12C0CFBF2F
S1132A108EE390E09093EB028093EA028EE30E94AF
S1132A20B9011150412F552760E070E0C7010E94A1
S1132A303302DF91CF911F91FF90EF900895FF92A1
S1132A400F931F93CF93DF93EC01F62E61E082E0A6
S1132A500E94DD00882319F085E090E069C0809130
S1132A60DA068F5F8093DA0681508B838FB7F894F0
S1132A70082F112762E081E00E94F700882329F4DF
S1132A800FBF0E94540281E052C08FB7F894992777
S1132A9024E020935C048FBFD093F502C093F4022A
S1132AA00FBF8DE0F80EFE01F192898199278072A3
S1132AB090708983118289819927816498688983B8
S1132AC0892F992781831CA618A619A619AA18AAC2
S1132AD01FA680E88EA761E060935F044091F40232
S1132AE05091F5028FB7F894282F33278091210154
S1132AF0909122018830910511F0019711F02FBFB8
S1132B0015C082E090E090932201809321016093AC
S1132B1090075093CE024093CD0210928C012FBFA8
S1132B200E944F0F882311F40E94D91480E0992742
S1132B30DF91CF911F910F91FF900895FA01422FD9
S1132B402D3118F082E090E0089583876683872F03
S1132B50992787832FB7F89433278091C5029091E2
S1132B60C6022FBF8483892F992785832FB7F894B2
S1132B70332780910601909107012FBF8087892F09
S1132B809927818780910901882369F010920901AE
S1132B908FE38287642FCF010E941F159927282F66
S1132BA08823A9F417C0842F99279093F102809366
S1132BB0F002F0932601E09325018CE00E94690164
S1132BC080910901882349F489E090E008958FEF0A
S1132BD080930901822F992708951092D30280E0EF
S1132BE090E008951F9380910C019927019665E068
S1132BF070E00E947E31682F80930C0110E0462F14
S1132C005527FA01EE0FFF1FE650FD4FA081B18159
S1132C10109799F0E62FE695E695E695FF27E0589C
S1132C20F84F808199279A012770307002C09595DA
S1132C3087952A95E2F780FF0DC0CA01019665E0E9
S1132C4070E00E947E31682F1F5F1530C1F610932B
S1132C500C0119C060930C016530A8F42C912D501F
S1132C603327FD0167817727762F66278681992789
S1132C70682B792BAD0183850E949E15882319F05A
S1132C808FE00E9469011F910895CF93DF93582F1D
S1132C90FB01853018F081E090E033C0C82FDD27B8
S1132CA0CC0FDD1FC650DD4F88819981892B19F027
S1132CB085E090E026C079836883435F40834D506C
S1132CC080910C01853018F480E090E01AC083856F
S1132CD067817727762F662726813327622B732B0C
S1132CE050930C01242FAF010E949E159927282F81
S1132CF0882329F085E080930C0119821882822FA1
S1132D009927DF91CF9108958F929F92AF92BF92AE
S1132D10CF92DF92EF92FF920F931F93CF93DF93A3
S1132D2080912F01882309F0C3C0E091DD02F09166
S1132D30DE0210828091F7069091F806E091DD02A0
S1132D40F091DE028283892F9927818380919301F8
S1132D50882369F08091F9069091FA06E091DD02EA
S1132D60F091DE028483892F992783832BC080917D
S1132D70F7069091F806C091F906D091FA062FEF64
S1132D808F3F920781F4E091DD02F091DE02C4836B
S1132D908D2F99278383E091DD02F091DE028081FB
S1132DA0806880830FC00E9410059E01265F3F4FFC
S1132DB0280F391FE091DD02F091DE022483232FD6
S1132DC0332723837DE9E72E72E0F72E68E0C701FD
S1132DD00C970E9483068C010B5F1F4F40E0AA24CE
S1132DE0882499246BE0C62ED12C53E0B52E809113
S1132DF02C0199270196880D991D6AE070E00E94C4
S1132E007E319C0199278C9DD0018D9DB00D9C9D98
S1132E10B00D1124A85FBC4FED018D81992780FF6F
S1132E2011C081FF0FC08D919C914B9DF001112425
S1132E30E00FF11F8183892F992780838E818283FC
S1132E404F5FA22EE9E08E16910429F00894811CAC
S1132E50911C473060F2A0922C0180912B018F5F6E
S1132E6080932B018150E7018983842F8F70809395
S1132E709D028FEF809397028093980280E780935E
S1132E809C0283E0489FC0011124895F482F552785
S1132E9061E972E081E00E9445169927882321F4B4
S1132EA081E080932F0104C0843011F410922D012D
S1132EB0DF91CF911F910F91FF90EF90DF90CF9012
S1132EC0BF90AF909F908F900895AF92BF92CF9292
S1132ED0DF92EF92FF920F931F93BC0181E08093E6
S1132EE08E0260936501872F9927809364016A326B
S1132EF0710521F0AA24BB24650108C0A0904101FA
S1132F00B0904201C0904301D0904401A092690165
S1132F1011270D2DFC2CEB2CE0926801960144271F
S1132F205527209367018D2D9927AA27BB27E4E60F
S1132F30F1E08283FF2400271127102F0F2DFE2C90
S1132F40EE24B82FAA279927882733274427552703
S1132F50A90133272227822B932BA42BB52B2A2DAF
S1132F60332744275527822B932BA42BB52BE82AF0
S1132F70F92A0A2B1B2BE114F1040105110511F4A4
S1132F8010E010C06A32710521F416E060E674E0C6
S1132F9003C010E060E070E0412F55278AE691E01D
S1132FA00E942F318FEF80935E0180935F0180E652
S1132FB0809363011A5F412F68E571E082E00E940B
S1132FC045161F910F91FF90EF90DF90CF90BF9027
S1132FD0AF900895AF92BF92CF92DF92EF92FF929B
S1132FE00F931F93282F33278BE090E0289FF00145
S1132FF0299FF00D389FF00D1124E55BFE4F82816F
S11330009381A481B5810097A105B10569F0808100
S11330109181880F991F918380838150944020F07F
S113302080E094E0918380838BE090E0289F5001BE
S1133030299FB00C389FB00C11248BE491E0A80EAA
S1133040B91EF50186819781A085B185828393831A
S1133050A483B583C080D180EE24FF2469E0CC0C26
S1133060DD1CEE1CFF1C6A95D1F70E946A04DC018A
S1133070CB01F50100811181B801762F6627770F06
S11330800E946A31AA27BB278C0D9D1DAE1DBF1D52
S1133090222733274AE0000F111F221F331F4A95AE
S11330A0D1F7081B190B2A0B3B0B068317832087C8
S11330B031872281338144815581280F391F4A1F6A
S11330C05B1F22833383448355831F910F91FF90A9
S11330D0EF90DF90CF90BF90AF9008950F931F9320
S11330E08A9789F581E090E090934C0180934B019D
S11330F01092550180914D0190914E01A0914F0184
S1133100B09150010097A105B105E9F00FB7F8940B
S1133110112780E090E00E9470080FBF10924D01CB
S113312010924E0110924F011092500110925101D1
S113313010925201109253011092540180E00E94A7
S1133140EA170E9494071F910F910895AF92BF92BE
S1133150CF92DF92EF92FF920F931F93CF93DF935F
S11331605B016C01C0E0D0E0E8E7F3E07C2F608510
S113317061FF35C22081318142815381E480F58031
S113318006811781D601C501821B930BA40BB50BD5
S11331908E159F05A007B10708F421C260FF03C084
S11331A06D7F608708C02E0D3F1D401F511F208377
S11331B0318342835383743009F411C1753050F460
S11331C0723009F4A9C0733008F0FDC0713009F001
S11331D00CC20DC0763009F48BC1763008F408C1F6
S11331E0773009F4C0C1783009F0FFC1BEC18091C5
S11331F0620790916307009751F0019790936307DA
S113320080936207892B19F4DA9AD99AD89A809113
S1133210E30180FF24C08FB7F894C82FDD27809185
S11332203401882389F491E0909334011092CB0205
S1133230CFBF80913701882321F485E10E94690181
S11332400EC0909338010BC080E00E944404882390
S113325029F48091E90181608093E901CFBF8091D5
S1133260E30181FFC2C18FB7F894482F5527E0913D
S11332706007F09161073097A1F02AE637E08AE011
S113328090E090936B0780936A0710926D071092F9
S11332906C07318320832E5F3F4F30936107209367
S11332A060074FBF8FB7F894282F3327122F8091D0
S11332B03E01882389F491E090933E011092A2018B
S11332C02FBF80913F01882321F48FE10E9469017F
S11332D016C09093400113C080E00E94D30288235B
S11332E019F085E090E007C08091FD06816080932D
S11332F0FD0680E090E01FBF892B09F076C180E1D4
S113330097E2A0E0B0E08093850290938602A093B8
S11333108702B093880269C180912D01882309F442
S113332064C180912E01882309F45FC18091F50660
S1133330882309F580E10E94690181E10E94690105
S113334040910E0150910F01609110017091110193
S11333508091890290918A02A0918B02B0918C0293
S1133360481B590B6A0B7B0B81E08093F50682E0C6
S11333700E9455033AC180910E0190910F01A091D2
S11333801001B0911101880F991FAA1FBB1F8093D0
S11333900E0190930F01A0931001B093110181507D
S11333A0904DA740B04060F080E090EDA7E0B0E021
S11333B080930E0190930F01A0931001B09311011B
S11333C00E94920E12C180912D01882309F40DC12F
S11333D080912E01882309F408C180E106C0809100
S11333E027018F7E809327018DE00E946901FDC033
S11333F080E00E942F04882309F43AC09FB7F89410
S113340020913401222319F421E030E00FC080918F
S11334101301813019F020E030E008C040E050E0B2
S11334202150223010F441E050E09A01892F99276D
S11334308FBF2223E9F08FB7F894082F1127902F1C
S113344080911301813099F480913401813021F409
S113345083E10E94690109C0823049F48091CB0262
S11334608093130183E0809334010FBF01C09FBF99
S113347081E00E942F04882309F4B7C09FB7F89411
S113348020913501222319F421E030E00FC080910E
S11334903601882319F020E030E008C040E050E015
S11334A02150223010F441E050E09A01892F9927ED
S11334B08FBF222309F499C08FB7F894082F1127DE
S11334C0902F80913601882309F04BC080913501FB
S11334D0813011F484E138C0823009F042C0809117
S11334E013028093360183E0809335010FBF7DC0C2
S11334F09FB7F89420913E01222319F421E030E093
S11335000FC080911501813019F020E030E008C02F
S113351040E050E02150223010F441E050E09A01A4
S1133520892F99278FBF222309F45FC08FB7F8949E
S1133530082F1127902F80911501813091F48091EB
S11335403E01813021F48EE10E946901CFCF8230A7
S113355041F48091A2018093150183E080933E01A0
S1133560C5CF9FBF42C0AA9840C02091C4033091E8
S1133570C5034091C6035091C70380914D019091BA
S11335804E01A0914F01B09150010097A105B105E2
S113359019F1821B930BA40BB50BB1F48091550167
S11335A0882361F42FB7F89433278091070381604F
S11335B0809307032FBF85E20E94690180E00E9487
S11335C0EA171092550108C080934D0190934E0163
S11335D0A0934F01B09350010E94940706C0219616
S11335E03996C930D10509F0C1CD8BE00E9469013B
S11335F0DF91CF911F910F91FF90EF90DF90CF90CB
S1133600BF90AF900895CF92DF92EF92FF920F9305
S11336101F936C017B010E946A04DC01CB01B6019B
S11336200E946A31E80EF91E00271127B801A7018C
S113363084E00E9455031F910F91FF90EF90DF905B
S1133640CF9008950F931F93CF93DF93EC01E091F4
S11336502801FF27EE0FFF1FE552F94F008111816A
S1133660662329F06CE170E08CE190E02FC080913A
S1133670270183FF3DC08CA58823D1F58F8199272D
S1133680982F88272E813327822B932B0E94F804AE
S1133690982F8F3F71F08BE0989FF0011124E85F21
S11336A0FC4F82858F5F8287853018F0CF010E949E
S11336B0B00680E10E946901F8018381815083830F
S11336C0882339F067E070E087E090E00E94031BF4
S11336D03FC00E94CB06809127018F7E80932701F3
S11336E067E070E087E090E00E94031B40E02CC09C
S11336F00E94CB06809127018F7E8093270167E08B
S113370070E087E090E00E94031B8F819927982F37
S113371088272E813327822B932B0E94F804982F1D
S11337208F3F89F08BE0989FF0011124E85FFC4FF4
S113373081858F5F818782858F5F8287853018F0CE
S1133740CF010E94B00641E0BE01C8010E94C40C32
S1133750DF91CF911F910F910895282FCB01213034
S113376059F0213028F0223089F02330A1F411C01F
S1133770642F0E94221B08956159724061F4809164
S11337802F01882341F010922F01089510928E0288
S1133790089510928E020895EF92FF920F931F9353
S11337A0E82E8B01F42EE82FFF27EE0FFF1FE650C3
S11337B0FD4F118210820E94F2154F2DB8018E2DFB
S11337C00E94AD1B1F910F91FF90EF900895CF922F
S11337D0DF92FF920F931F93CF93DF93CDB7DEB7A2
S11337E022970FB6F894DEBF0FBECDBF809127019C
S11337F084FDBBC090E080912A01882309F491E004
S1133800992309F0B2C080919301882359F420E0F0
S11338108091F7069091F8068F5F9F4F09F021E0A1
S1133820222331F0CE0101960E946707882341F0DC
S113383040E157E260E070E084E00E94550395C0E7
S1133840E0912801FF27EE0FFF1FE552F94F008199
S11338501181D801ED91FC91F080C090F706D090D1
S1133860F806CF010E94F00620E09091920189179A
S113387008F421E0222359F00E94CB06F80180814C
S113388091810E943307C8010E944D076BC080914B
S11338909301D801ED91FC91882381F0A091E60277
S11338A0B091E70284E301900D928150E1F760E06A
S11338B0F801808191810E94221B57C089819A81DD
S11338C08787892F99278687D801ED91FC911197D5
S11338D084858F7384874D915C91DA011196FD0183
S11338E021813327322F2227FA018181992780628F
S11338F0282B392B2183232F3327FD01218380910A
S1133900270188608093270180FF0BC0D801ED91C7
S1133910FC91848580648487809127018E7F8093C5
S11339202701D801ED91FC91C6828D2D99278783BB
S113393081E78387B3EFFB0E4F2D5527BF0180E04E
S11339400E9445169927882331F4809127018061CC
S1133950809327010AC0823041F4D801ED91FC9193
S113396089E280838DE00E94690122960FB6F89463
S1133970DEBF0FBECDBFDF91CF911F910F91FF909E
S1133980DF90CF9008951F9310E0EDE0F3E0808185
S1133990992780FF04C083FD02C081FF1F5F3B960F
S11339A083E0EB37F80799F71123F9F00E946A04D2
S11339B0DC01CB01612F77270E946A31682F40E038
S11339C050E0EDE0F3E0CA012081222341F03327E7
S11339D023FD05C021FD03C061506F3F41F04F5FDF
S11339E05F4F3B964A30510571F78FEF90E01F917E
S11339F008951F93182F81E090E090932201809303
S1133A0021011092EA010E946A138FB7F894992752
S1133A1010931B018FBF82E00E9469011F910895DA
S1133A206F927F928F929F92AF92BF92CF92DF92CA
S1133A30EF92FF920F931F938FB7F89499272091D9
S1133A4076032093140123E020933C018FBF8091DF
S1133A501401813061F0813020F0823009F065C0BA
S1133A605DC081E08093EF02109268075CC0E09033
S1133A705304F0905404009155041091560410928C
S1133A80AB011092AA011092030710920207109240
S1133A90370410923604A0905E07B0905F07CC24E0
S1133AA0DD248AE790E0A0E0B0E0E80EF91E0A1FEA
S1133AB01B1FC801B70124EF30E040E050E00E9432
S1133AC091313B014C01C801B70124EF30E040E0E3
S1133AD050E00E949131CA01B901A60195010E94EA
S1133AE03F317B018C01C401B3010E943F3124EFBB
S1133AF030E040E050E00E949131E20EF31E041FDA
S1133B00151FE092FF03F092000400930104109348
S1133B100204109216010E94E70507C081E0809319
S1133B20EF02809368070E94CC051F910F91FF90CC
S1133B30EF90DF90CF90BF90AF909F908F907F9049
S1133B406F900895409116018FB7F8949927A42F88
S1133B50BB27FD01EE0FFF1FE052FE4F0190F081E5
S1133B60E02D8FBF03C00280F381E02D3097D9F799
S1133B702FB7F8943327AA0FBB1FFD01E052FE4F65
S1133B8011821082A05AB84F842F9927880F991F49
S1133B9080529E4F8D939C932FBF81E0809316019A
S1133BA0442329F40E941D0E80E00E94E702089538
S1133BB00F931F93CF93DF93042F10910C011530B3
S1133BC0A0F4E12FFF27EE0FFF1FE650FD4FC08149
S1133BD0D181C617D70749F4118210820E94F215C9
S1133BE0402FBE01812F0E94AD1BDF91CF911F9109
S1133BF00F910895CF93DF93C0912501D0912601B1
S1133C006091F0028FE38A87CE010E941F15482F2E
S1133C105527442351F08FEF8093090160912501CA
S1133C20709126018B850E94D81DDF91CF91089554
S1133C30DF92EF92FF920F931F93CF93DF93109233
S1133C40EF02C0913404D091350480916807882331
S1133C5019F0813049F404C080E00E941D0E0AC0AE
S1133C6082E00E941D0E2EC1882321F0813009F0CC
S1133C7054C128C180E00E942F04882309F41EC186
S1133C80D090F6068FB7F894E82E809134018330F3
S1133C9009F040C0809113018D15E1F58091E9018F
S1133CA0882309F034C12AC1EF2DE695E695E695FF
S1133CB0FF274F2D5527E751FE4F9A01277030708B
S1133CC081E090E002C0880F991F2A95E2F7809561
S1133CD0208128232083C093330111C02196C13051
S1133CE0D10511F4C0E0D0E0FC2E8C2F0E944404D6
S1133CF08823D1F6C017D10789F74FEF50E04093DE
S1133D00CB028FEF8093130181E08093340183E130
S1133D100E946901EFBEDD2009F0D0C06BE08CEA9F
S1133D2091E00E942304EC018091E20180FF08C02D
S1133D3083E090E090936307809362070E945804A5
S1133D408091E20181FF34C08091BF0381FF27C0CD
S1133D50E090BB03F090BC030091BD031091BE033F
S1133D600E947A029B01AC018091B7039091B80341
S1133D70A091B903B091BA03281B390B4A0B5B0B12
S1133D802E153F054007510750F4E21AF30A040BBD
S1133D90150B85E6E816F1040105110548F444E61F
S1133DA050E060E070E087E00E945503A29AAA9A6E
S1133DB000E010E00E946A040F5F1F4F04361105F3
S1133DC0C9F7209709F47AC080910001909101010C
S1133DD08983892F992788838091190190911A01E9
S1133DE08D83892F99278C832091F7063091F806CB
S1133DF08FEF2F3F380711F420E030E02F83832F1B
S1133E0099278E83982F88273327822B932B0E9400
S1133E1010058987892F992788878091E8018A87E7
S1133E2082E00E94BC0383E090E090936307809358
S1133E3062078091270181FF3AC080E28093AC0140
S1133E4080910001909101018093BD01892F9927F0
S1133E508093BC018091A9018F5F8093A901815057
S1133E608093BE018CE08093BF011092B901E09170
S1133E708407F09185073097D1F08CEA91E0918323
S1133E80808312828EE18383CF010E9429058823D7
S1133E9071F48091270182FF05C084FD03C08DE089
S1133EA00E946901109285071092840707C083E07D
S1133EB090E09093630780936207D89881E00E9412
S1133EC02F042BC06BE08CEA91E00E942304FC01D8
S1133ED0C3838D2F992782838091190190911A01B0
S1133EE08583892F992784838091190190911A01E0
S1133EF0019690931A01809319010FC081E0809379
S1133F001301109234018093370186E101CF80912F
S1133F103301082F1127E801E1CEDF91CF911F91E2
S1133F200F91FF90EF90DF900895AF92BF92CF92E0
S1133F30DF92EF920F931F93A2EEB1E0E0E6F4E07C
S1133F4086E001900D928150E1F7809162049927F7
S1133F50209100013091010182179307B1F4A090E0
S1133F606304BB24BA2CAA24809164049927A82A48
S1133F70B92ACC24DD240E947A02AB01BC01EE24D0
S1133F809601850181E00E945B0280916504482FBF
S1133F905527242F442361F0332780910001909109
S1133FA001012817390711F4D89802C04093180169
S1133FB01F910F91EF90DF90CF90BF90AF90089535
S1133FC0EF92FF920F931F9379018A01663018F0E4
S1133FD046E050E002C0462F5527BC0180E694E03D
S1133FE00E942F31E0924101F0924201009343017B
S1133FF0109344010E94951F1F910F91FF90EF9021
S1134000089578941F920F920FB60F9211242F9255
S11340103F924F925F926F927F928F929F92AF9254
S1134020BF92CF92DF92EF92FF920F931F932F9341
S11340303F934F935F936F937F938F939F93AF932C
S1134040BF93CF93DF93EF93FF93CCB5DDB580E2BD
S113405086BF8FB7F894282E0E94D7099E01261B8D
S1134060370B2901662457FC6094762C460E571EA4
S1134070681E791E8091210190912201853091055D
S113408021F0069709F0E0C0BFC086E090E090936D
S113409022018093210131E0332E30928D0210925F
S11340A0230180E00E94AF0AE091CD02F091CE029C
S11340B041AABB27A72D962D852D80ABC301AA2726
S11340C0BB2787A7872D9927AA27BB2786A7E09117
S11340D0CD02F091CE0285A5882309F484C06081C5
S11340E0655077274F01860E971EF4012081E180E9
S11340F08281A3809927AA27BB27BA2FA92F982F9B
S11341008827332744275527522F4427332722272C
S1134110FF24002711278701FF24EE242E293F299D
S1134120402B512BBB24CC24DD242A293B294C29A8
S11341305D29822B932BA42BB52B84199509A609F1
S1134140B7098383292F3A2F4B2F552722839D01AB
S11341504427552721838B2F9927AA27BB278083A0
S1134160C09824E0A40180E090E00E944812C09A24
S1134170F4012081E1808281A3809927AA27BB27AB
S1134180BA2FA92F982F8827332744275527522F32
S1134190442733272227FF24002711278701FF24E0
S11341A0EE242E293F29402B512BBB24CC24DD2483
S11341B02A293B294C295D29822B932BA42BB52B2F
S11341C0840D951DA61DB71D8383292F3A2F4B2FD0
S11341D0552722839D014427552721838B2F992717
S11341E0AA27BB278083E091CD02F091CE02818182
S11341F085FF02C03092EA0183E00E94CE1387B7A4
S11342008F7E87BF84997AC010928D0281E00E94CC
S1134210AF0AE091CD02F091CE02818185FF0FC0FB
S113422087E090E090932201809321010E94D709B6
S113423020E031E040E050E00E94940A03C080E0B6
S11342400E94F91C849B5AC080912301882391F514
S113425080918D02882371F511E010938D020E94E4
S1134260AF0A80B320915C07283098F4E091690785
S1134270E20FFF27E770F070EE0FFF1FEE0FFF1F36
S1134280EC5FF84F40825182628273822F5F2093E9
S11342905C0710932301D093ED02C093EC02849940
S11342A02DC09927E4E096958795EA95E1F7182FB4
S11342B0117001C010E080918D028130F9F41092E8
S11342C08D020E94AF0A109223011123B9F4809148
S11342D0EC029091ED02C81BD90B2A9778F48091D7
S11342E05C07882319F0815080935C078091CD028C
S11342F09091CE02009711F00E94C8092FBEFF9141
S1134300EF91DF91CF91BF91AF919F918F917F9169
S11343106F915F914F913F912F911F910F91FF905A
S1134320EF90DF90CF90BF90AF909F908F907F9051
S11343306F905F904F903F902F900F900FBE0F9013
S11343401F901895CF92DF92EF92FF920F931F93D5
S1134350CFB6F894DD240E946A04DC01CB0166E444
S113436070E00E946A314BE0E42EF12CE80EF91E55
S1134370F0928D07E0928C070E94D709002711273D
S1134380A80197010E94940ACFBE1F910F91FF903C
S1134390EF90DF90CF9008951F93CF93DF938FB763
S11343A0F894C82FDD271C2F8091210190912201C0
S11343B00897C9F489E00E94B91283E00E94CE13E1
S11343C0C09A81E090E090932201809321018FB7FD
S11343D0F894992723E020931B018FBF82E00E9469
S11343E06901CFBF30C0C09880919007882311F035
S11343F085E001C084E00E94B91283FD09C080E019
S11344000E94B91283FF04C085E090E020E003C05D
S113441083E090E021E09093220180932101C09AEF
S11344201FBF222341F010928C0183E00E94CE131F
S11344300E94A22108C00E94D70920E431E040E094
S113444050E00E94940ADF91CF911F9108951F9329
S1134450CF93DF938FB7F8949927109102018FBF00
S1134460123009F460C0133030F4112359F01130C4
S113447009F0A7C043C0133009F46FC0143009F029
S1134480A0C09DC0C0988FB7F894C82FDD27809135
S11344901C0190911D01029779F583E090E09093BF
S11344A01D0180931C0168E170E08DE10E94671496
S11344B081E08093E80210921E0180B3992756E0B0
S11344C0969587955A95E1F7817090708093E902EB
S11344D085E00E94690181E00E94B9126FE772E0F1
S11344E08CE10E9467140E94C8140E948E1466E531
S11344F07AE287E10E946714CFBF63C0C09886E068
S11345000E94B9120E94C8140E948E140E9489123B
S1134510C09AC09883E00E94B912C09A81E00E94B8
S1134520CE1384E045C0C0988FB7F894C82FDD2718
S113453060E080E00E94F700882311F0CFBF0AC03A
S1134540CFBF83E50E94B90180E00E94B90180E0F9
S11345500E94B901C09A82E02FC08FB7F8949927BE
S1134560209121018FBF243039F0283041F02230CE
S113457011F50E94D91425C00E94CC2122C0C098F4
S113458089E00E94B912C09A83E00E94CE138FB7CB
S1134590F894992721E030E03093220120932101FF
S11345A08FBF8FB7F894992710931B018FBF82E0B8
S11345B00E94690106C083E00E94CE1302C00E94DB
S11345C00B13DF91CF911F910895EF92FF920F93F8
S11345D01F93CF93DF938B018091EA029091EB02BA
S11345E086FF40C18F7B8F3309F08EC1C091450196
S11345F0D0914601588150931602809111029091F6
S113460012028530910509F443C08630910509F4FE
S11346108AC0029709F01FC185E090E090931202CE
S1134620809311024091A801852F99270196242F88
S11346303327281739074CF1B79906C00E9904C0DF
S1134640451B41504093A801409116024A32E8F4B8
S11346504423A1F0BE016F5F7F4F483018F047E05C
S113466050E007C086E090E090931202809311021C
S1134670552780E090E00E94330246C110929002D8
S1134680C09A84E00E94CE13E3C00E9456143CC139
S113469086E090E090931202809311028091CC0204
S11346A0882309F439C0809166048823A9F5898197
S11346B085FF32C08F814E812FB7F89433276091E4
S11346C0E4027091E5022FBF9927982F8827552778
S11346D0842B952B8617970759F08F812E81992764
S11346E0982F88273327822B932B8F5F9F4FA1F41A
S11346F089818770813081F4C09AC0988AE00E94D1
S1134700B912C09AC0984091160247502896BE012B
S11347108FE30E94D912F8C04091160247505527E2
S11347202896BE01A6CFC09A80912F02882339F41F
S113473084E00E94CE1380912F02882311F0B79950
S11347400AC00E9B08C090915C07992321F08091C8
S113475016028B3038F480914501909146010E94F5
S1134760C8093DC0913001F5E0916907FF27EE0FBC
S1134770FF1FEE0FFF1FEC5FF84F20813181428154
S11347805381E0914501F091460121ABBB27A52F50
S1134790942F832F80ABCA01AA27BB2787A7252F75
S11347A033274427552726A780916907992701961F
S11347B068E070E00E947E318093690780915C0715
S11347C0815080935C07882351F08091450190913A
S11347D046010E94C8091092690710925C078091F3
S11347E01602FE01E80FF11D808187FF31C0012B05
S11347F079F169816770E0914501F0914601623079
S113480019F5A091CD02B091CE02109709F18091D3
S11348102101909122010797D9F4ED019B818381B5
S11348209817B1F487B78F7E87BF908181E08CA7FA
S1134830E90FF11D8291319688A780818F7789A72E
S113484080E00E94F91C04C0613011F489E02AC0A0
S11348500E94211459C010929002C09A84E00E94D0
S1134860CE1352C08E3309F04FC0C09A80912101FB
S1134870909122010897C9F4C09889E00E94B91266
S1134880C09A83E00E94CE1381E090E090932201CD
S1134890809321018FB7F894992723E020931B017B
S11348A08FBF82E00E9469012FC080919007882306
S11348B049F484E090E090932201809321010E94C6
S11348C0CC2122C083E00E94CE1383E090E0909339
S11348D02201809321010E946A04DC01CB0166E37A
S11348E071E00E946A316BE0E62EF12CE80EF91EAD
S11348F0F092A101E092A0010E94D709002711279C
S1134900A80197010E94940ADF91CF911F910F9102
S1134910FF90EF9008951F920F920FB60F921124FB
S11349202F933F934F935F936F937F938F939F93B3
S1134930AF93BF93EF93FF932FB1E091C903F0912D
S1134940CA03309739F08091F8029091F902E80F88
S1134950F91F20838091F8029091F90201969093B7
S1134960F9028093F80280E00E94140140915601FC
S1134970509157018091F8029091F902841795079C
S113498018F40E94C5011CC06091C9037091CA0348
S113499080918A0790918B071092CA031092C903E1
S11349A010928B0710928A071092570110925601A9
S11349B01092F9021092F8022FB120E00E94E52231
S11349C0FF91EF91BF91AF919F918F917F916F91E3
S11349D05F914F913F912F910F900FBE0F901F90B9
S11349E018952F923F924F925F926F927F928F927F
S11349F09F92AF92BF92CF92DF92EF92FF920F936A
S1134A001F93CF93DF93CDB7DEB723970FB6F894F8
S1134A10DEBF0FBECDBFE82FFF27E632F10510F051
S1134A200C94B22CEA5BFF4FEE0FFF1F0590F4913C
S1134A30E02D099480918007882309F077C60C94AF
S1134A40B22C8FB7F8942091070320FF02C00C9476
S1134A50872C20E00C948B2C0FB7F89411270E941C
S1134A60C20A51E0E52EF12CF0922201E0922101DC
S1134A70109223011092EA0110922C020FBF0FB77B
S1134A80F89411270E94BC09F0921202E0921102DC
S1134A901092900289B78F7B89BF80E488BF8AB760
S1134AA080628ABF8AB78F7E8ABF89B7806489BFD4
S1134AB00FBF8FB7F894082F112780911C01909194
S1134AC01D01049711F40E94D4120FBF0FB7F8947C
S1134AD01127C09A80E00E94CE130FBF8FB7F894BD
S1134AE0992722E020935C048FBF41E0F42EF092DA
S1134AF02D0180912E01882359F00E94F3049F71A7
S1134B008050904FAA27BB27BC01CD010E9474039B
S1134B108091270184608093270190E080912A018D
S1134B20882309F491E0992311F40E94AF01809144
S1134B304D0190914E01A0914F01B0915001009709
S1134B40A105B10531F510924D0110924E0110925C
S1134B504F01109250011092510110925201109283
S1134B605301109254011092550180E00E94EA17FB
S1134B700FB7F894112780E090E00E9470080FBFEF
S1134B800E9494078AE290E00E946E18F0928D01D0
S1134B9004C08AE290E00E946E1891E09093A30111
S1134BA08091270182608093270180912E018823C0
S1134BB009F0D8C690932E010E94D50E40E050E231
S1134BC060E070E083E00E94A102CCC68FB7F89445
S1134BD0992710925C048FBF10922D0180912701B8
S1134BE08B7F80932701BEC68FB7F8949927F090E6
S1134BF01B018FBF83E00E940801882351F10FB786
S1134C00F8941127109222011092210187B78F7E08
S1134C1087BF87B78F7D87BF0E941C14C09A0FBFC0
S1134C200FB7F894112710921202109211020E94E9
S1134C30BC09C09A89B78F7B89BF0FBF10921D0131
S1134C4010921C01DE98DD98DE9A81E00E946901D1
S1134C5007C08FB7F894992722E020935C048FBF94
S1134C600091F4021091F5020E945402F801828529
S1134C708F3309F077C68FEF809309014F2DB80168
S1134C8083850E94D81D6EC68FB7F894282F3327CA
S1134C90122F80918E078823F9F481E080938E0788
S1134CA080911C0190911D01049721F481E00E94E0
S1134CB0F70E02C00E9490011FBF54C68FB7F8942C
S1134CC0992710928E078BC58FB7F894282F332716
S1134CD080911E01882311F02FBF44C62FBF80B3DB
S1134CE0992736E0969587953A95E1F7182F117034
S1134CF09091E8028091E9028917D9F01917C9F453
S1134D0084E090E090931D0180931C018FB7F89488
S1134D10992721E020931E018FBF60E070E08DE1B0
S1134D200E9467140E948912C09AC09880E00E9471
S1134D3069011093E9020E94950114C60E9427227A
S1134D4011C60FB7F894112740915601509157019D
S1134D506091C9037091CA0380918A0790918B076F
S1134D601092CA031092C90310928B0710928A07FB
S1134D7010925701109256011092F9021092F80203
S1134D8020E00E94E5220FBFEDC52FB7F89433272A
S1134D90809130028093050182E0809320012FBF2F
S1134DA080910501882309F0DDC5B89AC0980E9456
S1134DB09A01D8C5A0914501B09146011C919D016D
S1134DC0210F311DF9018081881F8827881FFD016B
S1134DD083A7F90180818F77FD0181A7215030409D
S1134DE0F9018081FD0180A7E0914501F091460120
S1134DF08FB7F894992720912E028FBF2223F9F0C0
S1134E00878146812FB7F89433276091E40270912B
S1134E10E5022FBF9927982F88275527842B952B98
S1134E208617970761F0878126819927982F88270D
S1134E303327822B932B8F5F9F4F09F0D4C31D30F0
S1134E4008F4D1C3A0904501B0904601F5018185D5
S1134E5020859927582F44273327422B532B6381CE
S1134E608FEF809382078FB7F894782F20E030E09B
S1134E70E4E9F1E0808191818417950731F482811E
S1134E80861709F492C3209382072F5F3F4F33960E
S1134E902430310579F77FBF909182073FB7F894AA
S1134EA09F3F21F080912401891799F420912401D6
S1134EB0822F9927FC01EE0FFF1FE80FF91FEC5614
S1134EC0FE4F5183408362832F5F2370209324011C
S1134ED00CC0892F9927FC01EE0FFF1FE80FF91F63
S1134EE0EC56FE4F518340836283832F99278FBFF3
S1134EF0F50183A5882309F472C382858F3309F0F1
S1134F006EC3878146812FB7F894332760910601D9
S1134F10709107012FBF9927982F88275527842B35
S1134F20952B8617970761F0878126819927982FFB
S1134F3088273327822B932B8F5F9F4F09F0FEC462
S1134F40612F6D50BCE02B2E312C2A0C3B1CF5013B
S1134F5083859927833609F4BFC0843630F48036BC
S1134F6059F0813609F03BC38FC0803709F4B7C0CC
S1134F70813709F034C332C2F50184852585992728
S1134F80D82ECC243327C22AD32A26857785908924
S1134F905188FAE2CF16D10421F066247724430124
S1134FA008C060904101709042018090430190904C
S1134FB044018091A301882309F411C3892F9927FF
S1134FC0AA27BB27EE24F82E092F1A2F33274427AC
S1134FD05527522F442733272227872F9927AA277B
S1134FE0BB27DC0199278827282B392B4A2B5B2BDD
S1134FF0852D9927AA27BB27282B392B4A2B5B2BD6
S1135000E22AF32A042B152B611471048104910400
S113501051F4E114F1040105110549F12AE2C21623
S1135020D104E1F414C0E114F10401051105B1F057
S1135030D801C70186199709A809B90918161906CC
S11350401A061B067CF48AE2C816D10439F46650A9
S1135050A8019701C10106960E94E01FC6010E94A3
S11350606E18BDC2E614F7040805190559F49AE24E
S1135070C916D10409F0B3C2809155018F5F8093A2
S11350805501ADC2C60125C08091A301882309F44E
S1135090A6C2F501848525859927982F882733276B
S11350A0822B932B8A9709F09AC2809141019091A7
S11350B04201A0914301B09144010097A105B105BB
S11350C009F48DC2F10180819927982F8827822BBA
S11350D0932B0E94651783C20E94610480C2F5016C
S11350E0878126819927982F88273327822B932B12
S11350F08F5F9F4F09F099C0F5018185208599271D
S1135100F82EEE243327E22AF32AC7010E94F8047A
S11351108F3F21F0F501658577270CC00E943D097A
S1135120182F8F3F51F0B7010E948508F50165855E
S11351307727812F0E94960878C087E30E944F0941
S1135140182F8F3F09F05CC090E0F50181A58A36E5
S113515008F091E0992309F468C0C5010E949809F8
S1135160182F682FC5010E948306DC01F501838591
S1135170803709F05AC0153009F031C2FD01818130
S113518022819927982F88273327822B932B8F5F8F
S11351909F4F09F4DEC3FD01838124819927582F91
S11351A044273327422B532B4115510521F180917C
S11351B0E801082F11276091F7067091F806A0E026
S11351C020E030E0E5E3F2E00EC0808191818617B3
S11351D0970731F0848195814817590708F4A1E0B5
S11351E02F5F3F4F38962017310714F4AA2369F331
S11351F0AA2309F4A9C30E94C31C182F8F3FA9F046
S1135200212F33278BE090E0289FF001299FF00D98
S1135210389FF00D1124E85FFC4F808191810E943A
S1135220D210B701812F0E948508C5010E949809F8
S1135230182F682FC5010E9483067C01153009F0E0
S1135240CEC1F5011185008560E4C5010E94A7095E
S11352508B8347010894811C911CF70181811401FF
S11352600894211C311CF40121819927982F882747
S11352703327822B932B8F5F9F4F09F4A5C0812F77
S11352809927D82ECC24802F9927C82AD92A63E0BD
S1135290462E512C4E0C5F1CF701838154E0652E81
S11352A0712C6E0C7F1C24819927982F8827332713
S11352B0822B932B892B49F5C6010E94F8048F3F5A
S11352C009F50E943D098F3F11F0B60119C080E035
S11352D00E944F09182F8F3FA9F0282F33278BE006
S11352E090E0289FF001299FF00D389FF00D1124C4
S11352F0E85FFC4F808191810E94D210B601812F1A
S11353000E948508C6010E946906F201F080F3013B
S1135310E080F4019080F1018080C6010E941005B4
S11353208C01C6010E947809E82F8A3009F448C02C
S11353308F2D9927782F66278E2D9927682B792B07
S1135340892D9927582F4427882D9927482B592B85
S11353508091E801E81701F5065F1F4F023311053C
S113536078F52FB7F8943327FF27B3E0EE0FFF1F2C
S1135370BA95E1F7EB5CFD4FD182C082538342833F
S11353807583648381E0868317828091E8018F5F4F
S11353908093E8012FBF14C08FB7F8949927FF2793
S11353A0A3E0EE0FFF1FAA95E1F7EB5CFD4FD1825E
S11353B0C082538342837583648321E026838FBF35
S11353C06B81C6010E94141160E8C5010E94A709FF
S11353D0882309F404C10E94D50E01C1F501858515
S11353E08F5F85876D3108F0FAC0C5010E94F00611
S11353F020E090919201891708F421E0222309F01A
S1135400EEC020912A01822F9927C82E8823A9F162
S1135410D0902801D20E2EC0FCE0FD1510F0ED2D29
S113542002C0ED2DED50FF27EE0FFF1FE552F94F9F
S11354300190F081E02DE080F180C7010E94E60632
S11354408C01C5010E94E6060817190799F4F701B3
S11354509289F5018289981769F4F7019585F50118
S11354608585981739F4F7019389F501838998178D
S113547009F4B5C0DA94CA9479F68091930188232B
S113548009F0ADC02091F302222309F481E08823BE
S113549009F0A5C09091F202992309F481E08823D0
S11354A009F09DC0992309F49AC080918107E82FDF
S11354B0FF27EE0FFF1FEF56F84F00811181118275
S11354C0108291509093F2028F5F809381078C3009
S11354D011F4109281070115110509F480C02223EB
S11354E009F47DC08091D602E82FFF27EE0FFF1F3D
S11354F0E85CFB4FE080F180118210822150209300
S1135500F3028F5F8093D6028C3011F41092D6028E
S1135510E114F10409F463C084E3F70111928A955C
S1135520E9F788E290E0A80EB91E8CE0F50111922B
S11355308A95E9F788ED9FEFA80EB91EF801B182AC
S1135540A0828FEF82838EE18383C8010E942905A4
S1135550882321F5CE0101960E9467078823B1F4C0
S1135560F501868527859927982F88273327822B4D
S1135570932B29813A812817390740F00E94D50ED0
S11355806CE170E08CE190E00E94031B8091A40325
S113559081FD02C00E94AF01570121C0C7010E94D2
S11355A03307C8010E944D071AC07FBF18C0F50118
S11355B01185008584858078803811F40E94D50E89
S11355C0F501848560E086FD61E0812F9927982F9D
S11355D08827202F3327822B932B0E941411B092FB
S11355E04601A09245018FB7F89499271092900232
S11355F08FBF0E942114B6C180912B02882361F5CC
S11356002091FE063091FF0640910007509101075A
S1135610EFB7F894FF276091570470915804809174
S1135620590490915A04E090A401F090A5010091CE
S1135630A6011091A7016E0D7F1D801F911FEFBF62
S11356402093FE063093FF06409300075093010712
S113565010922B020E9456080E947A023FC00E94B8
S11356607A025B016C018FB7F89499271092F702C4
S11356708FBF2FEF3FEF4FEF5FE760E0E8E7F3E026
S1135680808581FF1CC080819181A281B3818601C4
S11356907501E81AF90A0A0B1B0BD801C701E4804B
S11356A0F58006811781E81AF90A0A0B1B0BE2162A
S11356B0F306040715071CF4A801970161E0399665
S11356C003E0E93CF007E1F6662309F44BC1121646
S11356D01306140615062CF0C601B5010E94A6187F
S11356E041C12093FE063093FF0640930007509378
S11356F0010781E080932B02C601B5010E94560880
S113570031C19091D30280910901981709F42AC1FB
S113571090930901992319F40E94FA1D23C18FEF74
S1135720809309011FC10E94E71B1CC111E0D12E07
S1135730EE24FF240AEF12E0909180078D2D892337
S113574071F0F80160817181118210828D2D809534
S113575098239093800743E08E2D0E94AD1B0894FC
S1135760E11CF11C0E5F1F4FF8E0EF16F10409F481
S1135770F9C0DD0CE1CF80910C01E82FFF27EE0F7B
S1135780FF1FE650FD4F6081718141E00E94CC1BF8
S1135790E9C00E944411E6C00E948416E3C00E943E
S11357A07A03E0C02FB7F89433278091CB0280931B
S11357B0130183E0809334012FBF80911301809300
S11357C0F60680E00E941604CDC08FB7F89499279E
S11357D0209113022093360123E0209335018FBFDB
S11357E0C1C00E945F06BEC00E949F01BBC00E9450
S11357F06406B8C00E94A701B5C00E94E40EB2C0FE
S11358000E940B0EAFC00E94101DACC00E94181E57
S1135810A9C00E94AC03A6C02FB7F8943327809187
S1135820A2018093150183E080933E012FBF8091F4
S11358301501E82FFF27EE0FFF1FEE0FFF1FEB5799
S1135840FD4FE080F18002811381882309F08AC032
S113585081E00E94BC03882309F084C0E0925304D1
S1135860F092540400935504109356047BC00E9494
S1135870A00378C08DE10E94690174C0D090160124
S113588060915E0770915F077B0100271127769571
S11358906795882799272091FF0330910004409150
S11358A0010450910204620F731F841F951F24EF9B
S11358B030E040E050E00E9496009B01AC018FB7BD
S11358C0F8949927ED2DFF27EE0FFF1FDF01A0525B
S11358D0BE4F11961C921E92E05AF84FB183A083DA
S11358E08FBF81E08093160160E08D2D0E94890EA8
S11358F039C00E94A21D36C08FB7F8949927109220
S1135900D5021092D4026BCF0E94951F2BC02E7F1C
S11359102093070321E099278FBF222319F1809157
S1135920A301882341F080918E02882321F48AE226
S113593090E00E9465170E94B40114C0F5018385AC
S1135940813709F04CCE33CE65E0C5010E94830651
S113595007C0C5010E949809682FC5010E948306EB
S11359607C016FCC23960FB6F894DEBF0FBECDBF7B
S1135970DF91CF911F910F91FF90EF90DF90CF9027
S1135980BF90AF909F908F907F906F905F904F905B
S11359903F902F90089580915D078F3FB1F0282F9D
S11359A03327F901E551FE4F808180935D078F3FD6
S11359B011F480938F078FEF80832F3F31F0822F74
S11359C00E94F12481E090E0089580E090E0089541
S11359D0CFEFD0E1DEBFCDBF1FB7F89446E250E071
S11359E06FEF70E08BEE91E00E9438318FEF80937F
S11359F05D0780938F0781E08EBD88E080BF83E0E0
S1135A0083BF8CB59DB54AE72CB53DB5281739073A
S1135A1008F44150442311F0C901F6CF92B782B77C
S1135A208917E9F32CB53DB592B782B78917E9F325
S1135A308CB59DB5821B930B409665E09695879532
S1135A406A95E1F790935F0780935E0713BE83B76F
S1135A508EBD8EB580BF12BE1DBC1CBC8FEF86BF31
S1135A6086B780937C0080B7992787709070892BC4
S1135A70D1F7D29AD19AD09ADA9AD99AD89A15BAF1
S1135A808FEF84BBD498DC98109289001092880020
S1135A9080917D00846080937D0080918A00887F5E
S1135AA0826080938A0016B81DBC1CBC87B78460D2
S1135AB087BF8EB5887F84608EBD80E285BF0E94DB
S1135AC0CB2C8823E1F780E094E090934C01809301
S1135AD04B011092550110924D0110924E011092FB
S1135AE04F011092500110925101109252011092E4
S1135AF0530110925401109207031092030480EE94
S1135B0091E090936107809360071092FD061092D4
S1135B1006031092E901109277031092F602109294
S1135B209201E1E9F7E084E094E081939193049693
S1135B3027E0E93AF207C9F78CE08093F202109269
S1135B408107E8E3F4E089E694E081939193C496B5
S1135B5024E0E035F207C9F78CE08093F302109259
S1135B60D60210922D0110922E0110926407109209
S1135B7065071092660710926707109293018FEFE2
S1135B809FEF9093F8068093F7061092FA0610920E
S1135B90F9061092FB061092FC061092E8018FB7EA
S1135BA0F894992720910601309107018FBF309313
S1135BB05104209350046AE181E992E00E94830633
S1135BC09093DE028093DD0287EC92E09093850748
S1135BD0809384078BEC93E09093E7028093E60232
S1135BE08FB7F894992720910601309107018FBF50
S1135BF030931502209314021092A901EDE0F3E012
S1135C0010823B9683E0EB37F807D1F7E4E9F1E043
S1135C108FEF9FEF918380831282339621E0E03AE5
S1135C20F207C1F70E946A046093DA0680910001CA
S1135C30909101010196AA27BB278093CF029093EC
S1135C40D002A093D102B093D20280B7886080BF03
S1135C508BE083BF86EE81BF87B7826087BF0E94D7
S1135C60D30784E297E090934601809345018E9890
S1135C70B89A8C988FEF8093DF0210925B04109295
S1135C805C0410925D0410925E04B89AD69AD59A78
S1135C908FB7F894992720910601309107018FBF9F
S1135CA03093E5022093E4028091080199279093B0
S1135CB0C6028093C5028FE1809352048AE18093E7
S1135CC0680481E080932E02109283078093CC02B3
S1135CD0109266040E94CB2C8823E1F7812F992728
S1135CE08FBF789483E090E090936307809362077A
