S01800006275696C642F6D6963617A2F6D61696E2E73726563E5
S11300000C9465010C94160A0C94200A0C942A0A88
S11300100C94340A0C943E0A0C94480A0C9467110C
S11300200C94520A0C9484010C9484010C946B2853
S11300300C940C2A0C94E0090C94F6090C94B30E5D
S11300400C94CF090C940B200C94FF0B0C9484019A
S11300500C947B0C0C9484010C9484010C94840106
S11300600C94EB090C94D10D0C94B00D0C94BB0DB5
S11300700C94C60D0C94E40D0C94930D0C94840113
S11300800C94A50D0C9484010C948401C920532173
S11300906121642167216E217121232226222922D4
S11300A0AB26AE26B126C3269B27A527A927AC27B6
S11300B0D327C220FA27352808280B280E28112810
S11300C01428172800002110422063308440A550D2
S11300D0C660E770088129914AA16BB18CC1ADD18A
S11300E0CEE1EFF13112100273325222B552944232
S11300F0F772D662399318837BB35AA3BDD39CC3DA
S1130100FFF3DEE36224433420040114E664C7747D
S1130110A44485546AA54BB528850995EEE5CFF529
S1130120ACC58DD55336722611163006D776F666D1
S11301309556B4465BB77AA719973887DFF7FEE779
S11301409DD7BCC7C448E5588668A778400861189D
S113015002282338CCC9EDD98EE9AFF948896999C9
S11301600AA92BB9F55AD44AB77A966A711A500A71
S1130170333A122AFDDBDCCBBFFB9EEB799B588B19
S11301803BBB1AABA66C877CE44CC55C222C033CBD
S1130190600C411CAEED8FFDECCDCDDD2AAD0BBD69
S11301A0688D499D977EB66ED55EF44E133E322E11
S11301B0511E700E9FFFBEEFDDDFFCCF1BBF3AAFB9
S11301C0599F788F8891A981CAB1EBA10CD12DC117
S11301D04EF16FE18010A100C230E32004502540AD
S11301E046706760B9839893FBA3DAB33DC31CD30D
S11301F07FE35EF3B1029012F322D23235421452FD
S113020077625672EAB5CBA5A89589856EF54FE558
S11302102CD50DC5E234C324A0148104667447644C
S113022024540544DBA7FAB79987B8975FE77EF7AC
S11302301DC73CD7D326F2369106B016576676769C
S1130240154634564CD96DC90EF92FE9C899E98978
S11302508AB9ABA94458654806782768C018E108EC
S11302608238A3287DCB5CDB3FEB1EFBF98BD89B4C
S1130270BBAB9ABB754A545A376A167AF10AD01A3C
S1130280B32A923A2EFD0FED6CDD4DCDAABD8BAD98
S1130290E89DC98D267C076C645C454CA23C832C8C
S11302A0E01CC10C1FEF3EFF5DCF7CDF9BAFBABFEC
S11302B0D98FF89F176E367E554E745E932EB23EDC
S11302C0D10EF01E00081C18141011241FBECFEF0D
S11302D0D0E1DEBFCDBF11E0A0E0B1E0EAE7FEE58A
S11302E000E00BBF02C007900D92AA31B107D9F705
S11302F017E0AAE1B1E001C01D92A93BB107E1F703
S11303000E949A2A0C943C2F0C9400008FB7F89406
S1130310992708958FBF089590918102992339F107
S11303206091C60351E040E0892F8523A1F0E42FBA
S1130330FF27EE0FFF1FE15BF84F2081318111820F
S11303401082852F80959823442329F4275F364013
S113035039F460E005C04F5F483028F4550FE4CF0E
S1130360550F41E0E1CF909381026093C603089555
S1130370282F9FB7F894E82FFF27E755FE4F808179
S11303808F3F81F4E0919B07E21771F40BC0209337
S1130390860704C0FF27E755FE4F208320939B0761
S11303A020E007C025E005C0809186078F3F91F7C4
S11303B0EECF892F99278FBF822F9927089584E044
S11303C00E94B8019927089585E00E94B8019927F1
S11303D008958FB7F894992760931A018FBF82E02C
S11303E00E94B80108952FB7F89433278091E30150
S11303F08093050182E080931F012FBF8091050146
S1130400882329F4B89AC09886E00E94B801089518
S113041087E10E94B801992708951F931FB7F894A4
S113042080919707882341F48DE00E94B8018823C6
S113043019F481E080939707812F99278FBF1F912B
S11304400895382FFA01422F2D3118F082E090E000
S113045008956683872F9927858333872187809121
S11304602B0190912C01892B19F085E090E00895DF
S11304702FB7F894332785E080932E0110922F0133
S1130480F0932A01E093290182E090E090932C01FB
S113049080932B011092310110923001445F4093FC
S11304A02D012FBF9FB7F89480919D02882311F0EE
S11304B020E006C081E080939D0210929E0221E01C
S11304C0892F99278FBF222329F00E940D0280E0F3
S11304D090E0089510922C0110922B0181E090E09D
S11304E00895EF92FF921F93CF93DF93182F7B0110
S11304F0E82FFF27EE0FFF1FE15BF84F11821082F8
S113050010921901A0914F07B0915007109721F054
S11305108091810280FF11C081E08093190103C0A2
S11305208BE10E94B8011123E1F487EFE81686E01D
S1130530F806B9F41092C60314C0FD01359624815F
S11305403327ED016D817727762F662781819927DF
S1130550682B792BAD0186810E942102882319F32F
S1130560DFCFDF91CF911F91FF90EF90089580919D
S11305701901E82FFF27EE0FFF1FE15BF84F6081A1
S1130580718141E00E9471020895AC01E0ECF2E057
S113059080E090E09C01858180FF05C0808191818D
S11305A08417950741F0C90101963B968A3091055D
S11305B089F72FEF30E0C90108950E94C5028F3FEB
S11305C091F099272BE030E0829FF001839FF00D9A
S11305D0929FF00D1124E054FD4F858181FF03C0EB
S11305E08781908508958FEF90E008950E94C50259
S11305F08F3F19F481E090E00895282F33278BE092
S113060090E0289FF001299FF00D389FF00D1124F0
S1130610E054FD4F85818860858380E090E00895F3
S11306202F923F924F925F926F927F928F929F92FE
S1130630AF92BF92CF92DF92EF92FF920F931F93EC
S1130640CF93DF93CDB7DEB729970FB6F894DEBF0B
S11306500FBECDBF6FB76983F894209079023090B4
S11306607A0240907B0250907C026624772488248E
S1130670EEE4AE2E73E8B72ECC24DD24EE24FF2462
S113068000E010E0222D332D442D552D662D772DBD
S1130690882D90E00E94002D2A833B834C835D8348
S11306A06E837F8388879987822E932EA42EB52EFE
S11306B02401350100E20E94FE2DA22EB32EC42E89
S11306C0D52EA301920156954795379527952A0D66
S11306D03B1D4C1D5D1D57FF05C05F772F5F3F4FCE
S11306E04F4F5F4F2093790230937A0240937B02FD
S11306F050937C02E9818E2F99278FBFCA01B901DB
S113070029960FB6F894DEBF0FBECDBFDF91CF910F
S11307101F910F91FF90EF90DF90CF90BF90AF901B
S11307209F908F907F906F905F904F903F902F900D
S113073008950E941003DC01CB010895EF920F93FA
S11307401F93AE2D99E0899FF0011124E15DFC4FC8
S113075040835183628373830483158326833783A1
S1130760A17080858E7F8A2B826080878BE00E94B7
S1130770B8011F910F91EF9008957FB7F89462B775
S113078020918B0130918C0140918D0150918E010B
S113079006B601FE0FC081B792B7280F311D411D67
S11307A0511D2F5F3F4F4F4F5F4F290F311D411D8B
S11307B0511D04C0260F311D411D511D872F99273E
S11307C08FBFCA01B90108959C016E5F6D3118F0A5
S11307D080E090E008950C9611F0C9010E960895FA
S11307E0282F9FB7F894662349F0E82FFF27E15B91
S11307F0FB4F8081882311F021E006C0E22FFF2700
S1130800E15BFB4F608320E0892F99278FBF822F04
S113081099270895E82F8FB7F894282F332790E06D
S1130820FF27E15BFB4F8081861709F491E02FBF1E
S1130830892F9927089560E080E00E940A0499278F
S11308400895882311F06E9A08956E980895882368
S113085011F06F9A08956F98089580E00E94210422
S1130860BA9ABB98B99A6C9A80E00E942704709A4D
S11308706B986A98689881E00E94210408950F9308
S11308801F93CF93DF93182F8FB7F894C82FDD27CA
S11308900C2F61E080E00E94F003882321F0CFBF99
S11308A085E090E024C0809105018823A1F4809123
S11308B01F01823081F409C082E080931F011092ED
S11308C005010E942D04B89AC0981093020180E09B
S11308D00FBF99270CC080911F01882369F38FB73C
S11308E0F894992710924F048FBF81E0F1CFDF91E4
S11308F0CF911F910F9108951F93182F81E00E94AB
S113090021041FB9779BFECF8FB199271F910895BA
S11309108F929F92AF92BF92CF92DF92EF92FF920B
S11309200F931F93CF93DF938FB7F8949927C090B9
S11309309307D09094078090C4039090C503C0910E
S1130940AF02D091B0022091530130915401FAE0EA
S1130950AF2EB12CAC0EBD1E2A153B0508F459016F
S11309608FBF7401EC0EFD1E86010C0F1D1F14C0F9
S1130970C114D10419F0F801808101C080E00E9403
S11309807C048114910411F0F7018083219608946A
S1130990E11CF11C0F5F1F4FC5010197C817D90750
S11309A038F381E00E9427049FB7F894C114D1045E
S11309B031F0CC0EDD1EF60180818FB901C01FB865
S11309C0D093B002C093AF02892F99278FBF80E0E4
S11309D090E0DF91CF911F910F91FF90EF90DF9006
S11309E0CF90BF90AF909F908F9008952FB7F894B9
S11309F03327509354014093530190939407809369
S1130A0093077093C5036093C4031092B0021092CD
S1130A10AF022FBF452B29F08FB10E94880499277C
S1130A20089587E00E94B80180E090E008958FB7B0
S1130A30F8949927109251048FBF08950F931F9330
S1130A40CF93DF93EC01892BF9F02091EC063091E0
S1130A50ED068FEF2F3F3807B9F080919001813078
S1130A6019F4198218820DC00091EE061091EF0658
S1130A70C9010E94DD02065F1F4F080F191F198369
S1130A80088380E090E002C081E090E0DF91CF91A4
S1130A901F910F910895CF92DF92FF920F931F93AE
S1130AA0CF93DF936C01F0908F016091A50270E009
S1130AB08C01005F1F4F2CC0D6011C96462F43703B
S1130AC05527E60128893327322F2227F80181810F
S1130AD09927282B392BFA01EE0FFF1FEE0FFF1F6A
S1130AE0E40FF51FE553FE4F8081918128173907E4
S1130AF069F4ED019E818281891741F49981848191
S1130B00891721F49F818381891721F07F5F6F5FAB
S1130B107F1591F6872F9927DF91CF911F910F9120
S1130B20FF90DF90CF9008950E944B0520E030E0C5
S1130B3090918F01891710F421E030E0C9010895E4
S1130B4080913D01E82FFF27EE0FFF1FE253F94F7D
S1130B500190F081E02D20913F01222351F08F5F1D
S1130B6080933D018C3011F410923D01215020936B
S1130B703F01CF0108952091A2022C3018F081E0AA
S1130B8090E00895E0917E02E20FEC3008F0EC5022
S1130B90FF27EE0FFF1FE05DFB4F918380832F5FE4
S1130BA02093A20280E090E008952091A1022C30CD
S1130BB018F081E090E00895E0919007E20FEC30A6
S1130BC008F0EC50FF27EE0FFF1FE356F84F918318
S1130BD080832F5F2093A10280E090E008959C0120
S1130BE0685F6D3118F080E090E008950C9611F084
S1130BF0C90144960895CF93DF93EC012FB7F8947D
S1130C0033278BB394E089278BBB2FBF4B3009F07C
S1130C103FC08091C6038823D9F5A3E0B7E0FB0168
S1130C208BE001900D928150E1F747EF56E08FEF92
S1130C308093FD068093FC0686E1809302078091F1
S1130C404F0790915007892B19F550935007409303
S1130C504F078BE080930007809119018823A9F046
S1130C60109219012BE06FEF7FEF86E10E942102C1
S1130C709927282F882349F081E080931901109245
S1130C80500710924F07222319F481E08093C60382
S1130C90CE01DF91CF910895FC0180899927982F87
S1130CA0882721893327822B932B0895FC01CB01BC
S1130CB0478150859A0163E0220F331F6A95E1F75B
S1130CC0240F351F2B5F3F4F820F931F6AE070E0A4
S1130CD00E94BC2E708767830895FC01618592850C
S1130CE0662339F48AE0989FB00111246A50704059
S1130CF00BC077278AE0989FC00111240E94D02E50
S1130D006A50704011861286CF010E9456060895DB
S1130D109FB7F89480912D048A3011F020E006C02A
S1130D2020E080913B02843009F421E0892F992747
S1130D308FBF222349F08FE00E94B8018FB7F89447
S1130D4099271092260106C08FB7F894992721E0BD
S1130D50209326018FBF08952FB7F89433278CB9B9
S1130D605E9A2FBF0895FC016115710519F481E0A5
S1130D7090E008958091950290919602892B19F044
S1130D8085E090E008957093F5066093F406F0937F
S1130D909602E0939502109271021092700281E023
S1130DA0809372025E9A569A808121E030E03093FB
S1130DB07102209370020E94AC0680E090E00895D6
S1130DC0809137018E7F809337018EE78093CA012B
S1130DD061E070E08AEC91E00E94B30699270895DF
S1130DE0DF92EF92FF920F931F938FB7F894282FFF
S1130DF03327D22E91B782B746B7981711F041FF27
S1130E0002C02FBF6AC08091A6028823E1F10E942C
S1130E10BD03E0904B04F0904C0400914D041091FC
S1130E204E042091A0013091A1014091A201509162
S1130E30A3016E197F09800B910B62177307840756
S1130E40950720F01092A60271E01EC02E0D3F1DE2
S1130E50401F511F80918B0190918C01A0918D01B5
S1130E60B0918E01281B390B4A0B5B0B273E3105D1
S1130E704105510540F4822F223010F070E005C086
S1130E8070E082E002C070E086EE682F615000B628
S1130E9001FCFDCF82B7681709F46F5F20918B01C5
S1130EA030918C0140918D0150918E01DA01C9017C
S1130EB00196A11DB11D860F911DA11DB11D8217A3
S1130EC09307A407B50710F4622F609561BFDFBED6
S1130ED0772319F08AE00E94B8011F910F91FF90C7
S1130EE0EF90DF900895AFB7F894BB27E1E0E0936B
S1130EF0A60260934B0470934C0480934D0490932A
S1130F004E042093A0013093A1014093A201509379
S1130F10A301AFBF0E94F00608959BE0899FF001F2
S1130F201124E054FD4F7183608312821382148272
S1130F3085E085831682108617820895AF92BF924A
S1130F40CF92DF92EF92FF920F931F93CF93DF9391
S1130F50E82EF62EA82EBB248BE090E0A89EF0018C
S1130F60A99EF00DB89EF00D1124E054FD4F85812B
S1130F7082FF03C062838B7F858382810F2D081BD0
S1130F80F28283818F5F8383002321F08481800F29
S1130F908150848383812481820F912D911D039735
S1130FA01CF4033008F44FC0C080D180C0ECD2E000
S1130FB0888199818C159D0509F03FC08D8180FF42
S1130FC03CC082608D836B811C81160F133008F442
S1130FD013E07727882799272FEF30E040E050E08F
S1130FE00E94912E212F3327442755270E94E32E58
S1130FF08E8169E0869FC00111240596820F911DA0
S11310006AE070E00E94D02E6E831B821C826623ED
S113101019F46FEF70E00EC0772786EF99E00E9415
S1131020D02E6A5070406F3F710519F010F06FEFC9
S113103070E07727CE010E9456062B9683E0CE32CD
S1131040D80709F0B5CF0B30A8F08BE090E0A89E4C
S11310508001A99E100DB89E100D112400541D4F3F
S1131060F801608171818E2D0E948D07F801F28252
S113107081E08383DF91CF911F910F91FF90EF90D7
S1131080DF90CF90BF90AF90089580E090E0E5ECC2
S1131090F2E09C01808180FF08C0C90101963B9663
S11310A08A309105B1F72FEF30E0C9010895982FE8
S11310B0AFEF60E070E040E050E0E5ECF2E080810A
S11310C0282F332720FF0BC021FF09C023FD07C0B1
S11310D0228133812617370710F0A42FB9014F5FFF
S11310E05F4F3B964A30510551F7892F992768176E
S11310F0790718F48FEF90E008958A2F99270895BF
S1131100AC013091A7018FEF4F3F580711F020E059
S113111012C0832F99270895E22FFF2773E0EE0F63
S1131120FF1F7A95E1F7EC51FE4F8081918184177E
S1131130950719F02F5F231779F7822F99270895C0
S1131140FC018081448555274F7050709A01220F0D
S1131150331F240F351F821B8F50992708951F9327
S1131160CF93DF93162FC0E0D0E06AE10E94E4033E
S1131170FC0180818123811711F4C1E0D0E0CE010C
S1131180DF91CF911F91089580E88093A40110927C
S11311903A0210928E07109285071092E201089588
S11311A0CF93DF93FC0115A6DC019E96ED011B8213
S11311B01A82198280E886A7DF91CF9108958FB7AC
S11311C0F8946091B9027091BA022CB53DB506B697
S11311D002FE04C06F5F7F4F2CB53DB599278FBFCA
S11311E088279927CB017727662744275527622B21
S11311F0732B842B952B0895EF92FF920F931F93DB
S11312000E94DF087B018C0120918B0230918C02BB
S113121040918D0250918E028091830290918402BC
S1131220A0918502B0918602820F931FA41FB51F5F
S1131230E216F3060407150730F082179307A40794
S1131240B50758F005C082179307A407B507E0F562
S1131250E816F9060A071B07B8F59C01AD012E191B
S11312603F09400B510B213060E8360760E0460728
S113127060E0560768F180E090E8A0E0B0E0E80E96
S1131280F91E0A1F1B1FE0928B02F0928C0200933E
S11312908D0210938E0280E090E8AFEFBFEFE80E6E
S11312A0F91E0A1F1B1F2050304840405040209315
S11312B0830230938402409385025093860220E097
S11312C030E840E050E014C020E030E040E050E07E
S11312D080938B0290938C02A0938D02B0938E0224
S11312E01092830210928402109285021092860258
S11312F0A901B7012CB53DB5C9018E199F09039603
S11313008417950720F0B9016D5F7F4F02C0640F09
S1131310751F6115710511F461E070E06150704052
S11313207BBD6ABD80E186BF87B7806187BF1F919F
S11313300F91FF90EF9008950F931F930FB7F894B8
S1131340112760938B0270938C0280938D0290938B
S11313508E0220938302309384024093850250933B
S113136086020E94FC080FBF1F910F91089597B742
S11313709F7D97BF90E296BF882319F08EB5806455
S113138002C08EB58F7B8EBD87B7806287BF80E039
S113139090E0089581E00E94B709992708951F926B
S11313A00F920FB60F9211248F9383B783BF00B6A9
S11313B000FCFDCF8F910F900FBE0F901F901895DA
S11313C078941F920F920FB60F9211240F900FBEB4
S11313D00F901F90189578941F920F920FB60F924A
S11313E011240F900FBE0F901F90189578941F92A0
S11313F00F920FB60F9211242F933F938F939F93C5
S11314002FB7F89433278091B9029091BA020196CC
S11314109093BA028093B9022FBF9F918F913F910D
S11314202F910F900FBE0F901F9018951F920F923F
S11314300FB60F9211240F900FBE0F901F901895A6
S11314401F920F920FB60F9211240F900FBE0F90A0
S11314501F9018951F920F920FB60F9211240F90A0
S11314600FBE0F901F9018951F920F920FB60F92F8
S113147011240F900FBE0F901F9018951F920F927A
S11314800FB60F9211240F900FBE0F901F90189556
S11314901F920F920FB60F9211240F900FBE0F9050
S11314A01F9018951F920F920FB60F9211240F9050
S11314B00FBE0F901F901895E4ECF0E06927660FBB
S11314C0F11DE60FF11DC895982F802D3196C89512
S11314D090250895982F80913201882389F59923C6
S11314E079F531E03093320180910C01809333011E
S11314F020912701822F81708093A6018091110190
S113150090911201909335018093340180912801C8
S11315108093360132273170267EE32FFF27EE0FAA
S1131520FF1FE35FFE4F80819181909312018093AE
S11315301101232B2093270182E10E94B801089511
S11315408091270180FF02C08B7F01C08D7F809333
S1131550270108950F931F93082F162F80913B02A4
S11315608130D9F0813038F0823009F44AC08330B8
S113157009F00EC159C0002309F43EC11092E806D7
S11315801092E70610922F041092F606109273023E
S11315901092BC021092BB021FC1002309F02CC19F
S11315A08091BB029091BC020E945C0A9093BC02A1
S11315B08093BB0282E080933B021093F6061434BE
S11315C009F0E6C00BC18695869503C0809127017A
S11315D08695817009F0DCC080912701992311F070
S11315E0846001C082608093270180912701877EF7
S11315F0886080932701109228018FEF80930C015B
S1131600FBC0002309F0C4C0609373028091BB0245
S11316109091BC020E945C0A9093BC028093BB022E
S113162083E080933B02E8C080912F048F3F09F44C
S1131630AFC0002309F447C0823008F4A9C0E09188
S1131640E706EE2309F4D1C04E2F4150E42FFF27C3
S1131650E951F94F82819927382F2227442311F425
S1131660E2E002C0E42FE150FF27E951F94F828103
S11316709927282B392B8091BB029091BC02281703
S1131680390709F085C080E00E946A0A309173022C
S11316908091A7022091A802982F9F5F963008F0AE
S11316A090E0921709F474C0E82FFF27E955FD4F25
S11316B032838F5F8093A702863010F01092A702C6
S11316C00E940D0265C0823008F44EC0E091E80625
S11316D0FF27E951F94F8281482F5527342F209154
S11316E02701822F86958695869583709927813068
S11316F0910519F00297F9F40EC0277E206120931A
S11317002701442311F485E001C080E0809328017F
S113171030930C0110C080912801843360F4E0916F
S11317201101F0911201E80FF11D4083809128010D
S11317308F5F809328018091E806E82FFF27E95105
S1131740F94F62818F5F8093E806833010F0109226
S1131750E80677278091BB029091BC020E945C0A44
S11317609093BC028093BB028091E706E82FFF2789
S1131770E951F94F12838F5F8093E706833010F0AD
S11317801092E70680912F048F5F80932F0434C05A
S11317901092E8061092E70610923B0210922F0472
S11317A01092F606109273021092BC021092BB02C1
S11317B0809137018D7F8093370181E00E946A0A0E
S11317C080912601882331F084E080933B020E94BB
S11317D0880612C0002381F081E023CF8091270185
S11317E0982F917080FDEFCEF1CE8091EB06992772
S11317F0382F222742E036CF1F910F9108951F9270
S11318000F920FB60F9211242F933F934F935F9330
S11318106F937F938F939F93AF93BF93EF93FF93B4
S11318205F9B3DC06CB1E091BD02F091BE02309768
S1131830F9F08091950790919607E80FF91F60835E
S1131840019690939607809395072091B70730915E
S1131850B8078217930718F11092BE021092BD02C6
S11318608091FC038330D9F057981092FC0317C081
S11318706E3719F460E081E010C0809137016D3754
S113188021F48260809337010AC081FF05C08D7FF7
S11318908093370180E2682780E00E94AA0AFF91C2
S11318A0EF91BF91AF919F918F917F916F915F91D4
S11318B04F913F912F910F900FBE0F901F9018954D
S11318C0982F8D57823068F480913701816080931E
S11318D0370180E2892780932E048DE78093CA0123
S11318E002C09093CA0161E070E08AEC91E00E942A
S11318F0B3069927089578941F920F920FB60F920A
S11319001124FF920F931F932F933F934F935F9351
S11319106F937F938F939F93AF93BF93CF93DF93F3
S1131920EF93FF9320917002309171028091F4063D
S11319309091F5062817390780F4E0919502F0910B
S11319409602E20FF31F80812F5F3F4F30937102A5
S1131950209370020E94AC06D0C01092960210929E
S113196095021092720256988091370180FF0EC042
S11319708E7F8093370180912E048093CA0161E0A9
S113198070E08AEC91E00E94B306B7C080912D0408
S1131990843009F494C0853040F4823021F18330DE
S11319A0B8F5813009F0A4C00DC0863009F495C0A3
S11319B0863008F48BC0873009F496C0883009F06B
S11319C097C099C080918A020E94600C182F83E00E
S11319D080932D0460918A028091B5079091B60797
S11319E00E945C0A10C080918D070E94600C182F21
S11319F083E080932D0460918D078091B5079091C9
S1131A00B6070E945C0A9093B6078093B5076EC030
S1131A10FFB6F894E0912E03FF27EE0FFF1FE45664
S1131A20FD4F80810E94600C082F10912E03C12F5E
S1131A30DD27FE01EE0FFF1FE456FD4F608180910C
S1131A40B5079091B6070E945C0A9093B6078093FD
S1131A50B507209182022F5F20938202113039F55D
S1131A6080912E01E0912901F0912A01E80FF11DE6
S1131A70E0818F5F80932E0190912D01981730F4AF
S1131A8082E080939D0240E050E002C04E2F552733
S1131A90DE01AA0FBB1FFD01E556FD4F8081823098
S1131AA031F02F3F21F0A456BD4F4C9303C084E086
S1131AB080932D04102F8F2D99278FBF17C08091ED
S1131AC0B5070E94600C182F85E00BC08091B60703
S1131AD00E94600C182F86E004C00E94E006182FB4
S1131AE087E080932D0402C088E003C0112329F00D
S1131AF089E080932D040E940D02FF91EF91DF9104
S1131B00CF91BF91AF919F918F917F916F915F9191
S1131B104F913F912F911F910F91FF900F900FBE06
S1131B200F901F9018951F920F920FB60F921124C9
S1131B308F9380919B0087FF02C080919C008F91BE
S1131B400F900FBE0F901F90189578941F920F92CC
S1131B500FB60F9211240F900FBE0F901F9018957F
S1131B6078941F920F920FB60F9211240F900FBE0C
S1131B700F901F90189578941F920F920FB60F92A2
S1131B8011240F900FBE0F901F90189578941F92F8
S1131B900F920FB60F9211240F900FBE0F901F904B
S1131BA0189578941F920F920FB60F9211248F9369
S1131BB09F9380918800909189009F918F910F90BD
S1131BC00FBE0F901F90189578941F920F920FB626
S1131BD00F9211242F933F938F939F932FB7F894D1
S1131BE0332780917F029091800201969093800226
S1131BF080937F022FBF9F918F913F912F910F90E0
S1131C000FBE0F901F901895EF92FF920F931F93A2
S1131C1079018A01663018F046E050E002C0462F90
S1131C205527BC0184E594E00E94812EE09238019E
S1131C30F092390100933A0110933B011F910F91E7
S1131C40FF90EF900895EF92FF920F931F93CF931D
S1131C50DF937C01442309F477C0EC0108811981E6
S1131C6080918F01843009F046C0C8010E944B0561
S1131C7020918F01622F0E94B02E492F9217D8F520
S1131C80992359F48091A5029927019664E070E0A4
S1131C900E94D02E8093A50229C08091A502840FB2
S1131CA0912D911D9C0123703070E901CC0FDD1F33
S1131CB0CC0FDD1FC20FD31F019664E070E00E94B9
S1131CC0D02EFC01EE0FFF1FEE0FFF1FE80FF91FD0
S1131CD0C553DE4FE553FE4F85E0019009928150D4
S1131CE0E1F74F5F80918F014817B8F280918F011F
S1131CF0815080938F0140918F018091A502840FC0
S1131D00912D911D83709070D8011C96FC01EE0FEB
S1131D10FF1FEE0FFF1FE80FF91FE553FE4FE80109
S1131D2088899927982F882729893327822B932BF1
S1131D3091838083ED018E818283898184838F8165
S1131D4083834F5F40938F01F701808191810E94CB
S1131D50BB05C7010E94D505DF91CF911F910F915B
S1131D60FF90EF9008951F920F920FB60F921124D7
S1131D702F933F934F935F936F937F938F939F938F
S1131D80AF93BF93EF93FF9383B783BF00B600FC79
S1131D90FDCF81B799270196AA27BB2720918B01F4
S1131DA030918C0140918D0150918E01280F391F83
S1131DB04A1F5B1F20938B0130938C0140938D014C
S1131DC050938E0178940E94F006FF91EF91BF9199
S1131DD0AF919F918F917F916F915F914F913F91BF
S1131DE02F910F900FBE0F901F9018950F931F9374
S1131DF0182F0FB7F89461E080E00E94F003882365
S1131E0071F510930201809105018823A9F5809151
S1131E101F01823089F586E00CC00E942D04809158
S1131E201F01882349F481E080931F011092E3018C
S1131E3088E00E94B8012AC0809189028F3F31F561
S1131E40E0910401EE2311F11CC01092030104C0BF
S1131E50FF27E757FD4F10821092040117C081E05D
S1131E6090E002C0880F991F1A95E2F720911E0195
S1131E70282B20931E010AC080911F018823E1F6BC
S1131E80CCCF809103018F3F19F7DFCF802F9927A3
S1131E908FBF80E090E01F910F9108951F938FB73B
S1131EA0F894282F3327122F80919A07882321F042
S1131EB02FBF81E090E013C081E080939A07809166
S1131EC01B0190911C01049721F481E00E94F60EFD
S1131ED003C084E00E94B8011FBF80E090E01F911E
S1131EE008951F9383E00E943F049927182F8823A5
S1131EF019F083E00E94F60E812F99271F9108950F
S1131F001F93CF93DF93EC01162F80911401882344
S1131F1019F5CE010E948008E82F8091A701E817E7
S1131F2048F4FF27A3E0EE0FFF1FAA95E1F7EC5159
S1131F30FE4F17838091F106882311F0112349F095
S1131F408091EC069091ED068C179D0729F41123DE
S1131F5019F088E10E94B801DF91CF911F91089593
S1131F60CF93DF93EC010E948008282F8091A70172
S1131F702817D1F0382F31503093A70113C0822F86
S1131F809927B3E0880F991FBA95E1F7DC01AC51AA
S1131F90BE4FFC01E451FE4F88E001900D92815048
S1131FA0E1F72F5F231758F38091EC069091ED062B
S1131FB08C179D07A1F48FEF9FEF9093ED0680930C
S1131FC0EC061092EF061092EE061092F0061092B4
S1131FD0F10681E08093450188E10E94B801DF9118
S1131FE0CF910895AF92BF92CF92DF92EF92FF927A
S1131FF00F931F93282F33278BE090E0289FF00145
S1132000299FF00D389FF00D1124E85BFE4F82816B
S11320109381A481B5810097A105B10569F0808100
S11320209181880F991F918380838150944020F07F
S113203080E094E0918380838BE090E0289F5001BE
S1132040299FB00C389FB00C112488E491E0A80EAD
S1132050B91EF50186819781A085B185828393831A
S1132060A483B583C080D180EE24FF2469E0CC0C26
S1132070DD1CEE1CFF1C6A95D1F70E941003DC01E5
S1132080CB01F50100811181B801762F6627770F06
S11320900E94BC2EAA27BB278C0D9D1DAE1DBF1D03
S11320A0222733274AE0000F111F221F331F4A95AE
S11320B0D1F7081B190B2A0B3B0B068317832087C8
S11320C031872281338144815581280F391F4A1F6A
S11320D05B1F22833383448355831F910F91FF90A9
S11320E0EF90DF90CF90BF90AF900895CF92DF92A2
S11320F0EF92FF920F931F93CF93DF938C01F62EF1
S11321006A01E22E8FB7F894C82FDD2760E080E0E3
S11321100E940A04882321F0CFBF80E090E01EC013
S1132120CFBF0F0D111D802F80680E947C04F82EF4
S113213016950795802F807C0E947C040E2D0AC082
S1132140EE2DFF27E01BF109EC0DFD1D80810E949F
S11321507C0401500023A1F78F2D9927DF91CF91A3
S11321601F910F91FF90EF90DF90CF900895CF9340
S1132170DF93CDB7DEB724970FB6F894DEBF0FBE5A
S1132180CDBF8FB7F89499272091740230917502CE
S11321902983232F33272A8320918F0230919002A1
S11321A02B83232F33272C838FBF24E0AE014F5F73
S11321B05F4F60E088E691E00E94761024960FB6A7
S11321C0F894DEBF0FBECDBFDF91CF9108951F936A
S11321D0CF93DF93182F8FB7F894C82FDD2760E0D3
S11321E080E00E940A04882321F0CFBF80E090E0C1
S11321F005C0CFBF812F0E947C049927DF91CF9126
S11322001F91089583E00E94E7109927089589E0BB
S11322100E94E71099270895EF92FF920F931F935E
S1132220CF93DF93182F7B01042F8FB7F894C82F17
S1132230DD2760E080E00E940A04882321F0CFBFFC
S113224080E090E014C0CFBF1064812F9927909351
S11322509802809397020E947C04182F402F5527E0
S1132260B70180E090E00E94F604812F9927DF9166
S1132270CF911F910F91FF90EF900895C0986091B6
S113228046017091470141E08FE30E940C110895CB
S113229082E090E09093C6018093C50181E0809331
S11322A03A0220E030E080910201843011F421E010
S11322B030E0232B29F484E00E943F04882319F49E
S11322C00E943E11089584E00E94F60E08951F9224
S11322D00F920FB60F9211242F933F934F935F9356
S11322E06F937F938F939F93AF93BF93EF93FF93DA
S11322F08091C5019091C601019749F482E090E074
S11323009093C6018093C5010E94481105C0809135
S1132310E2018F5F8093E201FF91EF91BF91AF9152
S11323209F918F917F916F915F914F913F912F91E9
S11323300F900FBE0F901F9018951F9380911E0150
S1132340882309F04BC0109102011F3F09F046C0D9
S113235060E00E940A04882309F440C081E080936D
S1132360CC068091A8018823E1F11092CC0685E087
S113237090E045C0923069F5C09A8091030120E055
S113238030E08F3F11F421E030E0232BE9F4109387
S113239005018F3F19F42FEF30E00DC0282F3327AC
S11323A0F901E757FD4F8081809303018F3F11F4BA
S11323B01093040110832093E30181E080931F01B3
S11323C088E00E94B80105C01093050110921F0116
S11323D011C080911F01882369F00FC081E090E053
S11323E00EC08091050190911F01882319F292304B
S11323F021F0EFCF80E00E94210480E090E01F9163
S113240008951F93CF93DF939FB7F894C92FDD27C7
S11324101C2F90910201981721F0CFBF81E090E02A
S11324203AC08FEF8093020130911E013323F1F4FF
S11324308FB7F894992710924F048FBF0E949D1173
S1132440CFBF11C02093020181E090E002C0880F49
S1132450991F4A95E2F78095382330931E0186E050
S11324600E94B8011FBF80E090E015C080E065E0E5
S1132470E32FFF270E94B02E292F492F5527CF0184
S1132480042E02C0959587950A94E2F780FDDACF71
S1132490822F8F5FEFCFDF91CF911F91089583E05B
S11324A00E940112992708951F93CF93DF938FB74A
S11324B0F894C82FDD271C2F8091C5019091C60187
S11324C0892B29F484E00E940112CFBF1EC0109210
S11324D03A028091E201882311F0B79904C00E9961
S11324E008C0882319F081508093E2010E944811AA
S11324F00BC081E090E09093C6018093C5011092D7
S1132500E20184E00E9401121FBFDF91CF911F916D
S113251008950E94C408C09AC09888E00E94E710F9
S113252088E00E94E710C09A84E00E9401120E9491
S113253054120895FF920F931F93CF93DF93F82EB5
S11325408B018FB7F894C82FDD2760E080E00E94EC
S11325500A04882321F0CFBF80E090E00CC0CFBFF5
S11325608F2D0E947C04812F99270E947C04802F48
S11325700E947C049927DF91CF911F910F91FF90C6
S113258008951F931FB7F8948091E101882319F4EB
S113259060E070E009C060E080919207882309F44C
S11325A061E081E06827772780917602882319F417
S11325B080E090E00AC090E080915A04882309F4F6
S11325C091E081E09827892F9927762F6627770F46
S11325D0770F770F24E0880F991F2A95E1F7826E11
S11325E09262682B792B81E10E949A12812F99279C
S11325F08FBF1F9108958FB7F894992760915B045A
S11326008FBF85E0689FB0011124625D7E4F7064C6
S113261088E10E949A1208951F938FB7F894282F87
S1132620332780911D01882311F02FBF30C02FBFA5
S113263080B3992746E0969587954A95E1F7182F38
S1132640117090919302809194028917D9F019170F
S1132650C9F484E090E090931C0180931B018FB730
S1132660F894992721E020931D018FBF60E070E06A
S11326708DE10E949A120E94B710C09AC09880E01F
S11326800E94B8011093940285E00E94B8011F9142
S11326900895EF92FF921F93CF93DF93E090770218
S11326A0F0907802F70182A59927182F882309F45E
S11326B01FE1C0988091E001811749F0612F7727CD
S11326C06F717070606E706885E10E949A12109349
S11326D0E001F70110818FB7F894C82FDD2760E07F
S11326E080E00E940A04882311F0CFBF12C0CFBF3C
S11326F08EE390E090939802809397028EE30E9479
S11327007C041150412F552760E070E0C7010E94FE
S1132710F604DF91CF911F91FF90EF900895FF92FF
S11327200F931F93CF93DF93EC01F62E61E082E0C9
S11327300E94F003882319F085E090E069C080913D
S1132740CD068F5F8093CD0681508B838FB7F8942D
S1132750082F112762E081E00E940A04882329F4EB
S11327600FBF0E94170581E052C08FB7F8949927D4
S113277024E0209350048FBFD093A402C093A302FB
S11327800FBF8DE0F80EFE01F192898199278072C6
S113279090708983118289819927816498688983DB
S11327A0892F992781831CA618A619A619AA18AAE5
S11327B01FA680E88EA761E0609353044091A302B2
S11327C05091A4028FB7F894282F332780912001C9
S11327D0909121018830910511F0019711F02FBFDC
S11327E015C082E090E090932101809320016093D2
S11327F09C075093780240937702109289012FBF6F
S11328000E94710F882311F40E94491380E09927D4
S1132810DF91CF911F910F91FF900895FA01422FFC
S11328202D3118F082E090E0089583876683872F26
S1132830992787832FB7F894332780917402909156
S113284075022FBF8483892F992785832FB7F89426
S1132850332780910601909107012FBF8087892F2C
S11328609927818780910901882369F010920901D1
S11328708FE38287642FCF010E948F139927282F1B
S11328808823A9F417C0842F99279093A0028093DA
S11328909F02F0932501E09324018CE00E94B8018B
S11328A080910901882349F489E090E008958FEF2D
S11328B080930901822F9927089510927D0280E068
S11328C090E008951F93809113019927019664E085
S11328D070E00E94D02E682F8093130110E0462FE1
S11328E05527FA01EE0FFF1FEF54FD4FA081B18170
S11328F0109799F0E62FE695E695E695FF27E157C0
S1132900F84F808199279A012770307002C09595FD
S113291087952A95E2F780FF0DC0CA01019664E00D
S113292070E00E94D02E682F1F5F1430C1F6109300
S1132930130119C0609313016430A8F42C912D5035
S11329403327FD0167817727762F662786819927AC
S1132950682B792BAD0183850E940E14882319F00E
S113296084E10E94B8011F910895CF93DF93582FFB
S1132970FB01843018F081E090E033C0C82FDD27DC
S1132980CC0FDD1FCF54DD4F88819981892B19F03D
S113299085E090E026C079836883435F40834D508F
S11329A080911301843018F480E090E01AC083858C
S11329B067817727762F662726813327622B732B2F
S11329C050931301242FAF010E940E149927282F2E
S11329D0882329F084E08093130119821882822FBE
S11329E09927DF91CF910895AF92BF92CF92DF9252
S11329F0EF92FF920F931F93BC0181E08093390201
S1132A0060936201872F9927809361016A3271056F
S1132A1021F0AA24BB24650108C0A0903801B0901D
S1132A203901C0903A01D0903B01A0926601112770
S1132A300D2DFC2CEB2CE0926501960144275527C3
S1132A40209364018D2D9927AA27BB27E1E6F1E0A5
S1132A508283FF2400271127102F0F2DFE2CEE2434
S1132A60B82FAA2799278827332744275527A90150
S1132A7033272227822B932BA42BB52B2A2D3327E4
S1132A8044275527822B932BA42BB52BE82AF92A0C
S1132A900A2B1B2BE114F1040105110511F410E0BC
S1132AA010C06A32710521F416E064E574E003C0D5
S1132AB010E060E070E0412F552787E691E00E9426
S1132AC0812E8FEF80935B0180935C0180E680937D
S1132AD060011A5F412F65E571E080E00E94B51442
S1132AE01F910F91FF90EF90DF90CF90BF90AF9028
S1132AF008958FB7F8942091BF0220FD02C020E012
S1132B0004C02E7F2093BF0221E099278FBF222388
S1132B1079F080919F01882341F0809139028823C4
S1132B2021F48AE290E00E94F41486E10E94B80144
S1132B3008958F929F92AF92BF92CF92DF92EF92BD
S1132B40FF920F931F93CF93DF93809144018823C7
S1132B5009F0C3C0E0918702F0918802108280914D
S1132B60EC069091ED06E0918702F0918802828351
S1132B70892F9927818380919001882369F080911E
S1132B80EE069091EF06E0918702F091880284832B
S1132B90892F992783832BC08091EC069091ED06B1
S1132BA0C091EE06D091EF062FEF8F3F920781F48C
S1132BB0E0918702F0918802C4838D2F9927838343
S1132BC0E0918702F09188028081806880830FC041
S1132BD00E94DD029E01265F3F4F280F391FE091BE
S1132BE08702F09188022483232F3327238398E4D8
S1132BF0E92E92E0F92E68E0C7010C970E94E403E5
S1132C008C010B5F1F4FAA2440E0882499248BE099
S1132C10C82ED12CB3E0BB2E809141019927019697
S1132C20880D991D6AE070E00E94D02E9C019927BE
S1132C308C9DD0018D9DB00D9C9DB00D1124A05490
S1132C40BD4FED018D81992780FF11C081FF0FC019
S1132C508D919C914B9DF0011124E00FF11F818314
S1132C60892F992780838E8182834F5FA22EE9E08A
S1132C708E16910429F00894811C911C473060F24F
S1132C80A0924101809140018F5F80934001815067
S1132C90E7018983842F8F70809348028FEF80939C
S1132CA042028093430280E78093470283E0489F77
S1132CB0C0011124895F482F55276CE372E083E03B
S1132CC00E94B5149927882321F481E0809344015C
S1132CD004C0843011F410924201DF91CF911F910E
S1132CE00F91FF90EF90DF90CF90BF90AF909F90A7
S1132CF08F9008954091EC065091ED062FB7F8940B
S1132D00332781E080939001809148049091490495
S1132D109093ED068093EC061092EF061092EE0667
S1132D202FBF4F5F5F4F19F487E10E94B80180E025
S1132D3090E008951F93182F81E090E09093210173
S1132D40809320011092A8010E949D118FB7F894DE
S1132D50992710931A018FBF82E00E94B8011F9136
S1132D600895AF92BF92CF92DF92EF920F931F9389
S1132D705B016C010E94BD03AB01BC01E1E0EE2EDE
S1132D809601850184E00E949E031F910F91EF90AC
S1132D90DF90CF90BF90AF900895CF92DF92EF92E3
S1132DA0FF920F931F936C017B010E941003DC01BF
S1132DB0CB01B6010E94BC2EE80EF91E0027112794
S1132DC0C801B7010E94B1161F910F91FF90EF90B7
S1132DD0DF90CF9008950F931F93CF93DF93EC016F
S1132DE0E0913D01FF27EE0FFF1FE253F94F0081F1
S1132DF01181662329F06CE170E08CE190E02FC032
S1132E0080913C0183FF3DC08CA58823D1F58F813F
S1132E109927982F88272E813327822B932B0E9462
S1132E20C502982F8F3F71F08BE0989FF001112419
S1132E30E054FD4F82858F5F8287853018F0CF0183
S1132E400E946D0688E10E94B801F80183818150D7
S1132E508383882339F067E070E087E090E00E9484
S1132E60CD163FC00E94A00580913C018F7E8093C7
S1132E703C0167E070E087E090E00E94CD1640E0FE
S1132E802CC00E94A00580913C018F7E80933C0160
S1132E9067E070E087E090E00E94CD168F8199276B
S1132EA0982F88272E813327822B932B0E94C502CB
S1132EB0982F8F3F89F08BE0989FF0011124E05404
S1132EC0FD4F81858F5F818782858F5F8287853003
S1132ED018F0CF010E946D0641E0BE01C8010E94B6
S1132EE0230EDF91CF911F910F910895282FCB01CD
S1132EF0213039F0213028F0223031F0233089F4A8
S1132F0007C0109239020895642F0E94EB160895A9
S1132F106C53724031F480914401882311F0109273
S1132F2044010895EF92FF920F931F93E82E8B01B3
S1132F30F42EE82FFF27EE0FFF1FEF54FD4F1182F1
S1132F4010820E9462144F2DB8018E2D0E947617B4
S1132F501F910F91FF90EF9008950F931F93CF93BC
S1132F60DF93042F109113011430A0F4E12FFF27F5
S1132F70EE0FFF1FEF54FD4FC081D181C617D70755
S1132F8049F4118210820E946214402FBE01812FE5
S1132F900E947617DF91CF911F910F910895CF93DF
S1132FA0DF93C0912401D091250160919F028FE3AA
S1132FB08A87CE010E948F13482F5527442351F04E
S1132FC08FEF8093090160912401709125018B8515
S1132FD00E94AD17DF91CF910895FF920F931F9335
S1132FE0CF93DF938FB7F8949927F0901A018FBF8E
S1132FF063E081E00E940A04882359F10FB7F89432
S11330001127109221011092200187B78F7E87BF6C
S113301087B78F7D87BF83E00E940112C09A0FBFDC
S11330200FB7F89411271092C6011092C5010E949F
S1133030C408C09A89B78F7B89BF0FBF10921C0147
S113304010921B01DE98DD98DE9A81E00E94B8019F
S113305007C08FB7F894992722E0209350048FBFBC
S1133060C091A302D091A4020E9417058A858F33D0
S113307041F48FEF809309014F2DBE018B850E948F
S1133080AD17DF91CF911F910F91FF900895BF92DB
S1133090CF92DF92EF92FF920F931F93CF93DF9320
S11330A0CDB7DEB722970FB6F894DEBF0FBECDBF03
S11330B080913C0184FDD4C090E080913F0188233D
S11330C009F491E0992309F0CBC080919001882301
S11330D059F420E08091EC069091ED068F5F9F4FAC
S11330E009F021E0222331F0CE0101960E941E0551
S11330F0882339F060E177E280E090E00E94B11625
S1133100AFC0E0913D01FF27EE0FFF1FE253F94FDF
S1133110C080D180D601ED91FC911081E090EC0645
S1133120F090ED06CF010E944B0520E090918F01B5
S1133130891708F421E0222359F00E94A005F60122
S1133140808191810E94BB05C6010E94D50585C07E
S113315080919001D601ED91FC91882359F1B388B7
S1133160A0919102B091920284E301900D9281505A
S1133170E1F70091910210919202F801808185514A
S1133180E82EFF246E2DC8010E94EF05BC01FCE06F
S1133190BF1629F44E2DC8010E94FB058C01109323
S11331A092020093910260E0D6018D919C910E945D
S11331B0EB1656C089819A818787892F992786873C
S11331C0D601ED91FC91119784858F7384874D917D
S11331D05C91DA011196FD0121813327322F2227D8
S11331E0FA01818199278062282B392B2183232F8F
S11331F03327FD01218380913C01886080933C0149
S113320080FF0BC0D601ED91FC9184858064848796
S113321080913C018E7F80933C01D601ED91FC911D
S1133220E6828F2D9927878381E783871D50412F5D
S11332305527BF0182E00E94B5149927882331F4F1
S113324080913C01806180933C010AC0823041F44A
S1133250D601ED91FC9189E2808387E10E94B80157
S113326022960FB6F894DEBF0FBECDBFDF91CF918B
S11332701F910F91FF90EF90DF90CF90BF90089532
S1133280AF92BF92CF92DF92EF920F931F935B01A5
S11332906C010E94BD03AB01BC01B1E0EB2E9601B1
S11332A0850182E00E949E031F910F91EF90DF90B1
S11332B0CF90BF90AF900895AF92BF92CF92DF921C
S11332C0EF92FF920F931F930E94BD03E090380387
S11332D0F090390300913A0310913B03A0904A0106
S11332E0B0904B01C0904C01D0904D01A114B10499
S11332F0C104D10401F13FB7F8942091FB0320FDF0
S11333000BC02E7F2093FB036E197F09800B910B5A
S1133310A61AB70AC80AD90A832F99278FBF0E9411
S1133320BD03AB01BC0111E0E12E9601850181E0F2
S11333300E949E0305C0809140038D7F80934003CB
S11333401F910F91FF90EF90DF90CF90BF90AF90BF
S113335008951F93CF93DF93182F482F55278BE0A1
S113336090E0489FE001499FD00D589FD00D112453
S1133370C85BDE4F61E070E0798368831A868A81D6
S11333809B81AC81BD810097A105B10519F12FB7CF
S1133390F8943327FA0183E0F695E7958A95E1F7E7
S11333A0E550FC4F4770507002C0660F771F4A9576
S11333B0E2F78081862B80832FBF1A821B821C82B6
S11333C01D821E821F8218861986812F0E94F20F89
S11333D00E945C19DF91CF911F9108958A9719F487
S11333E080E00E94A91908951F93CF93DF938FB7AC
S11333F0F894992720913301C0913401D09135017B
S1133400309136011091A6018FBF222309F074C0B8
S1133410932F9C508B85863309F06EC0963009F04B
S11334206BC02FB7F89433278BB391E089278BBBFC
S11334302FBF80918A01882309F45EC0A4E5B4E01B
S1133440FE013C9686E001900D928150E1F7809157
S1133450380190913901A0913A01B0913B01CD011D
S1133460AA27BB270196A11DB11D80933801909313
S11334703901A0933A01B0933B010097A105B1052E
S113348061F481E090E0A0E0B0E080933801909393
S11334903901A0933A01B0933B0180913801909196
S11334A03901A0913A01B0913B01DC0199278827A9
S11334B0209100013091010144275527820F931F69
S11334C0A41FB51F8093380190933901A0933A014A
S11334D0B0933B0180919F01882359F08091390278
S11334E0882339F48AE290E00E94F41480E00E9478
S11334F0A91985E10E94B8018FB7F894E12FFF273D
S1133500EE0FFF1FE35FFE4FD183C083209127019D
S1133510112311F02B7F01C02D7F209327011092DE
S1133520320199278FBFDF91CF911F910895809128
S11335304A0190914B01A0914C01B0914D0100972B
S1133540A105B10541F510924A0110924B01109268
S11335504C0110924D0110924E0110924F011092A5
S11335605001109251011092520180E00E94F20F1A
S11335708FB7F89499272091FB0321602093FB03D4
S11335808FBF0E945C1980E00E94A91981E080939A
S11335908A0180E004C080E00E94A91985E099278F
S11335A00895AF92BF92CF92DF92EF92FF920F9362
S11335B01F938091150190911601A0911701B0916C
S11335C01801B695A79597958795809334029093A3
S11335D03502A0933602B09337020E941003E090A4
S11335E03402F09035020091360210913702A8019E
S11335F097010E94E32E5B016C01AE0CBF1CC01E40
S1133600D11EA0923402B0923502C0923602D092FA
S113361037021092E606809149038D7F8093490317
S11336200E94BD03AB01BC01E1E0EE2E96018501D1
S113363082E00E949E031F910F91FF90EF90DF9014
S1133640CF90BF90AF900895AF92BF92CF92DF9288
S1133650EF92FF920F931F93CF93DF935B016C0163
S1133660C0E0D0E0EFE2F3E07C2F608561FFDDC0D5
S11336702081318142815381E480F5800681178164
S1133680D601C501821B930BA40BB50B8E159F05A8
S1133690A007B10708F4C9C060FF03C06D7F60874D
S11336A008C02E0D3F1D401F511F208331834283CC
S11336B05383723009F447C0733020F4713009F039
S11336C0BAC007C0733009F49DC0743009F0B3C0A8
S11336D0A3C020913C0330913D0340913E0350919F
S11336E03F0380914A0190914B01A0914C01B0910C
S11336F04D010097A105B10519F1821B930BA40B91
S1133700B50BB1F480915201882361F42FB7F8947A
S113371033278091BF0281608093BF022FBF86E16F
S11337200E94B80180E00E94F20F1092520108C07A
S113373080934A0190934B01A0934C01B0934D01A7
S11337400E945C1978C080914201882309F473C0F7
S113375080914301882309F46EC08091E606882392
S113376049F588E10E94B80189E10E94B801A0905E
S11337701501B0901601C0901701D09018018091E6
S1133780340290913502A0913602B0913702A81A02
S1133790B90ACA0ADB0A81E08093E6060E94BD03E7
S11337A0AB01BC0101E0E02E9601850182E00E949C
S11337B09E0341C08091150190911601A0911701BB
S11337C0B0911801880F991FAA1FBB1F8093150180
S11337D090931601A0931701B09318018150904D56
S11337E0A740B04060F080E090EDA7E0B0E08093A7
S11337F0150190931601A0931701B09318010E942C
S1133800D11A19C0809142018823A9F08091430103
S1133810882389F088E106C080913C018F7E8093E3
S11338203C0187E10E94B80106C021963996C53053
S1133830D10509F019CF8BE00E94B801DF91CF9137
S11338401F910F91FF90EF90DF90CF90BF90AF90BA
S11338500895EF92FF920F931F938091DF018823C5
S113386061F520912B0730912C0740912D07509141
S11338702E07EFB7F894FF2760914B0470914C0426
S113388080914D0490914E04E090A001F090A1012C
S11338900091A2011091A3016E0D7F1D801F911F45
S11338A0EFBF20932B0730932C0740932D075093A1
S11338B02E071092DF010E9473070E94BD030E942D
S11338C0241B1F910F91FF90EF900895AF92BF9228
S11338D0CF92DF92EF92FF920F931F930E94BD034A
S11338E05B016C018FB7F89499271092A6028FBFE1
S11338F08FEFE82E8FEFF82E8FEF082F8FE7182F1A
S113390060E0EFE2F3E0808581FF1CC0808191815B
S1133910A281B381A6019501281B390B4A0B5B0BCD
S1133920DA01C9012481358146815781281B390B6D
S11339304A0B5B0B2E153F05400751071CF4790118
S11339408A0161E0399633E0EC35F307E1F666234A
S1133950D9F01E141F04100611062CF0C601B5017F
S11339600E94241B11C0E0922B07F0922C070093B5
S11339702D0710932E0781E08093DF01A8019701A2
S1133980C601B5010E9473071F910F91FF90EF903C
S1133990DF90CF90BF90AF90089580E890E0A0E0D2
S11339A0B0E08093150190931601A0931701B09392
S11339B018010E94D11A0895AF92BF92CF92DF925C
S11339C0EF92FF920F931F93CF93DF938091900117
S11339D0882309F0EAC0CC24DD240FEF1FEF2FEF7A
S11339E0A22EB22EEE24FF2447C0C22FDD2793E07F
S11339F0CC0FDD1F9A95E1F7CC51DE4F2A813B8134
S1133A008FEF2F3F3807A9F1809148049091490422
S1133A102817390771F1888199810E94DD02BC0160
S1133A20665F7F4F4C815D81460F571F2881398126
S1133A308091EC069091ED062817390779F48FB739
S1133A40F89499272C813D813093EF062093EE065C
S1133A502F812093F1068FBF5A010BC08F818823D9
S1133A6041F46233710528F44017510710F46E01D4
S1133A708A010894E11CF11C2E2D8091A701E816FF
S1133A8008F4B3CFEFEF0F3F1E0709F47DC0FFEF3B
S1133A90AF16FFEFBF0691F08091F106882341F045
S1133AA08091EE069091EF060A960817190730F0F8
S1133AB0C8010F968A159B0508F066C08091890796
S1133AC090918A07A0918B07B0918C070196A11D54
S1133AD0B11D8093890790938A07A0938B07B093B5
S1133AE08C078091EC069091ED060E94C5028F3FF1
S1133AF081F0282F33278BE090E0289FF001299F45
S1133B00F00D389FF00D1124E054FD4F8581877F1F
S1133B108583F601808191810E94F602F6018081FD
S1133B2091810E94C5028F3F41F0EBE08E9FF0012E
S1133B301124E054FD4F128611862FB7F8943327D1
S1133B40F601808191819093ED068093EC06848147
S1133B5095819093EF068093EE0687818093F1061A
S1133B602FBFC501801B910B459770F080E890E052
S1133B70A0E0B0E08093150190931601A093170183
S1133B80B09318010E94D11A80914501882359F4F9
S1133B90FFEFAF16FFEFBF0631F40F5F1F4F19F0B1
S1133BA087E10E94B80110924501DF91CF911F91E6
S1133BB00F91FF90EF90DF90CF90BF90AF9008955A
S1133BC0CF92DF92EF92FF920F931F93CFB6F894A8
S1133BD0DD240E941003DC01CB0166E470E00E9446
S1133BE0BC2E3BE0E32EF12CE80EF91EF09299076F
S1133BF0E09298070E94DF0800271127A801970187
S1133C000E949C09CFBE1F910F91FF90EF90DF900F
S1133C10CF9008951F93CF93DF938FB7F894C82F55
S1133C20DD271C2F80912001909121010897C9F470
S1133C3089E00E94E71083E00E940112C09A81E0AB
S1133C4090E090932101809320018FB7F8949927F5
S1133C5023E020931A018FBF82E00E94B801CFBFF6
S1133C6030C0C09880919C07882311F085E001C082
S1133C7084E00E94E71083FD09C080E00E94E71001
S1133C8083FF04C085E090E020E003C083E090E07F
S1133C9021E09093210180932001C09A1FBF222329
S1133CA041F01092890183E00E9401120E94E01DFC
S1133CB008C00E94DF0820E431E040E050E00E94A8
S1133CC09C09DF91CF911F910895EF92FF920F937A
S1133CD01F93CF93DF938B01809197029091980269
S1133CE086FF40C18F7B8F3309F08EC1C09146019E
S1133CF0D091470158815093C9018091C501909199
S1133D00C6018530910509F443C08630910509F454
S1133D108AC0029709F01FC185E090E09093C60124
S1133D208093C5014091A401852F99270196242FE2
S1133D303327281739074CF1B79906C00E9904C0E8
S1133D40451B41504093A4014091C9014A32E8F413
S1133D504423A1F0BE016F5F7F4F483018F047E065
S1133D6050E007C086E090E09093C6018093C501BF
S1133D70552780E090E00E94F60446C110923A0272
S1133D80C09A84E00E940112E3C00E9489123CC1DF
S1133D9086E090E09093C6018093C50180917602FD
S1133DA0882309F439C080915A048823A9F58981AC
S1133DB085FF32C08F814E812FB7F89433276091ED
S1133DC08F02709190022FBF9927982F882755272B
S1133DD0842B952B8617970759F08F812E8199276D
S1133DE0982F88273327822B932B8F5F9F4FA1F423
S1133DF089818770813081F4C09AC0988AE00E94DA
S1133E00E710C09AC0984091C90147502896BE0156
S1133E108FE30E940C11F8C04091C9014750552707
S1133E202896BE01A6CFC09A8091E201882339F476
S1133E3084E00E9401128091E201882311F0B79975
S1133E400AC00E9B08C090918507992321F08091A8
S1133E50C9018B3038F480914601909147010E944A
S1133E60D0083DC0913001F5E0918E07FF27EE0F99
S1133E70FF1FEE0FFF1FE15DF84F2081318142816A
S1133E805381E0914601F091470121ABBB27A52F57
S1133E90942F832F80ABCA01AA27BB2787A7252F7E
S1133EA033274427552726A780918E079927019603
S1133EB068E070E00E94D02E80938E078091850781
S1133EC0815080938507882351F080914601909119
S1133ED047010E94D00810928E07109285078091A6
S1133EE0C901FE01E80FF11D808187FF31C0012B5C
S1133EF079F169816770E0914601F0914701623080
S1133F0019F5A0917702B0917802109709F1809188
S1133F102001909121010797D9F4ED019B818381C0
S1133F209817B1F487B78F7E87BF908181E08CA703
S1133F30E90FF11D8291319688A780818F7789A737
S1133F4080E00E949A1604C0613011F489E02AC00E
S1133F500E94541259C010923A02C09A84E00E94FE
S1133F60011252C08E3309F04FC0C09A80912001D3
S1133F70909121010897C9F4C09889E00E94E71044
S1133F80C09A83E00E94011281E090E090932101A5
S1133F90809320018FB7F894992723E020931A0186
S1133FA08FBF82E00E94B8012FC080919C078823B4
S1133FB049F484E090E090932101809320010E94D1
S1133FC00A1E22C083E00E94011283E090E09093D5
S1133FD02101809320010E941003DC01CB0166E3E0
S1133FE071E00E94BC2E4BE0E42EF12CE80EF91E89
S1133FF0F0929E01E0929D010E94DF0800271127A4
S1134000A80197010E949C09DF91CF911F910F9104
S1134010FF90EF9008951F920F920FB60F92112404
S11340202F933F934F935F936F937F938F939F93BC
S1134030AF93BF93EF93FF932FB1E091C403F0913B
S1134040C503309739F08091AF029091B002E80F28
S1134050F91F20838091AF029091B0020196909352
S1134060B0028093AF0280E00E9427044091530184
S1134070509154018091AF029091B002841795073A
S113408018F40E9488041CC06091C4037091C50395
S113409080919307909194071092C5031092C403E2
S11340A010929407109293071092540110925301A6
S11340B01092B0021092AF022FB120E00E94651E50
S11340C0FF91EF91BF91AF919F918F917F916F91EC
S11340D05F914F913F912F910F900FBE0F901F90C2
S11340E018950F931F930FB7F8941127409153011C
S11340F0509154016091C4037091C503809193075A
S1134100909194071092C5031092C40310929407DF
S11341101092930710925401109253011092B0021E
S11341201092AF0220E00E94651E0FBF1F910F91F5
S113413008952F923F924F925F926F927F928F9247
S11341409F92AF92BF92CF92DF92EF92FF920F9322
S11341501F93CF93DF93CDB7DEB723970FB6F894B1
S1134160DEBF0FBECDBFE82FFF27EC31F10510F005
S11341700C943528EA5BFF4FEE0FFF1F0590F49176
S1134180E02D099480918F07882309F00FC70C94C0
S113419035280FB7F89411270E94CA0941E0E42E8C
S11341A0F12CF0922101E092200110922201109250
S11341B0A8011092E0010FBF0FB7F89411270E94D5
S11341C0C408F092C601E092C50110923A0289B780
S11341D08F7B89BF80E488BF8AB780628ABF8AB731
S11341E08F7E8ABF89B7806489BF0FBF8FB7F89469
S11341F0082F112780911B0190911C01049711F441
S11342000E9402110FBF0FB7F8941127C09A80E0E3
S11342100E9401120FBF8FB7F894992722E02093D0
S113422050048FBF11E01093420180914301882311
S113423059F00E9499039F718050904FAA27BB2781
S1134240BC01CD010E94401980913C01846080939F
S11342503C0190E080913F01882309F491E0992387
S113426011F40E9408020E94971A10939F018091F2
S11342703C01826080933C0180914301882381F456
S1134280109343010E94CD1C0E94BD03AB01BC01ED
S1134290EE2400E010E220E030E083E00E949E0380
S11342A00E947A16E2C68FB7F894992710925004A8
S11342B08FBF1092420180913C018B7F80933C011F
S11342C0D4C60E94ED17D1C60E944E0FCEC68FB73A
S11342D0F894992710929A078FBFC7C60E940C13AF
S11342E0C4C68FB7F8949927209102018FBF22305A
S11342F009F45FC0233030F4222359F0213009F04F
S1134300B4C642C0233009F46EC0243009F0ADC6EF
S113431097C0C0988FB7F894082F112780911B017C
S113432090911C01029771F583E090E090931C0139
S113433080931B0168E170E08DE10E949A1281E094
S11343408093930210921D0180B3992736E09695CD
S113435087953A95E1F781709070809394020E945A
S1134360E40181E00E94E7106FE772E08CE10E94B3
S11343709A120E94FB120E94C11266E57AE287E15A
S11343800E949A120FBF71C6C09886E00E94E7107F
S11343900E94FB120E94C1120E94B710C09AC098DA
S11343A00E940211C09A81E00E9401120E94DF0162
S11343B05CC6C0988FB7F894082F11270E941B047D
S11343C0882311F00FBF0AC00FBF83E50E947C044D
S11343D080E00E947C0480E00E947C04C09A82E019
S11343E00E94011242C68FB7F894992720912001A8
S11343F08FBF243039F0283041F02230F1F40E948C
S1134400491333C60E940A1E30C6C0980E94071181
S1134410C09A0E944F122FB7F894332781E090E09E
S113442090932101809320012FBF63E08091770254
S1134430909178020E94E90118C60E944F1215C695
S11344400E943E1112C60E9471200FC60E94F30101
S11344500CC6A0914601B09147011C919D01210F0A
S1134460311DF9018081881F8827881FFD0183A7DA
S1134470F90180818F77FD0181A721503040F90136
S11344808081FD0180A7E0914601F09147018FB73B
S1134490F89499272091E1018FBF2223F9F08781B5
S11344A046812FB7F894332760918F027091900260
S11344B02FBF9927982F88275527842B952B86174C
S11344C0970761F0878126819927982F88273327BA
S11344D0822B932B8F5F9F4F09F034C41D3008F457
S11344E031C4C0904601D0904701F60181852085F2
S11344F09927582F44273327422B532B63818FEF5F
S1134500809391078FB7F894782F20E030E0E1E9A9
S1134510F1E0808191818417950731F482818617B7
S113452009F4F2C3209391072F5F3F4F3396243051
S1134530310579F77FBF909191073FB7F8949F3F7A
S113454021F080912301891799F420912301822F6E
S11345509927FC01EE0FFF1FE80FF91FEF56FE4FDE
S11345605183408362832F5F2370209323010CC007
S1134570892F9927FC01EE0FFF1FE80FF91FEF5653
S1134580FE4F518340836283832F99278FBFF601A7
S113459083A5882309F4D2C382858F3309F0CEC35F
S11345A0878146812FB7F894332760910601709173
S11345B007012FBF9927982F88275527842B952BE0
S11345C08617970761F0878126819927982F882776
S11345D03327822B932B8F5F9F4F09F02BC5612FBD
S11345E06D50BCE02B2E312C2C0C3D1CF601838528
S11345F09927803709F4BCC0813730F4803641F004
S1134600813609F09BC38CC0813709F097C36EC211
S1134610F601848525859927B82EAA243327A22A52
S1134620B32A2685778590895188FAE2AF16B104BA
S113463021F066247724430108C06090380170900B
S1134640390180903A0190903B0180919F01882329
S113465009F474C3892F9927AA27BB27EE24F82EBF
S1134660092F1A2F332744275527522F442733273E
S11346702227872F9927AA27BB27DC019927882778
S1134680282B392B4A2B5B2B852D9927AA27BB274F
S1134690282B392B4A2B5B2BE22AF32A042B152BCC
S11346A0611471048104910451F4E114F1040105CD
S11346B0110549F12AE2A216B104E1F414C0E1148F
S11346C0F10401051105B1F0D801C7018619970954
S11346D0A809B909181619061A061B067CF48AE2F9
S11346E0A816B10439F46650A8019701C1010696D1
S11346F00E94040EC5010E94EE1920C3E614F704BB
S11347000805190559F49AE2A916B10409F016C36B
S1134710809152018F5F8093520110C3C50125C05F
S113472080919F01882309F409C3F60184852585B6
S11347309927982F88273327822B932B8A9709F060
S1134740FDC28091380190913901A0913A01B09154
S11347503B010097A105B10509F4F0C2F101808184
S11347609927982F8827822B932B0E94F414E6C252
S1134770F601878126819927982F88273327822B52
S1134780932B8F5F9F4F09F0D8C0F6018185208558
S11347909927F82EEE243327E22AF32AC7010E9430
S11347A0C5028F3F21F0F601658577270CC00E9472
S11347B04508182F8F3F51F0B7010E948D07F6016D
S11347C065857727812F0E949E07B7C087E30E94E3
S11347D05708182F8F3FA1F0282F33278BE090E044
S11347E0289FF001299FF00D389FF00D1124E0540B
S11347F0FD4F808191810E94B00FB701812F9BC032
S113480090E0F60181A58A3608F091E0992309F435
S113481094C0C6010E94A008182F682FC6010E94E8
S1134820E403DC01F6018385803709F086C0153086
S113483009F084C2FD01818122819927982F88275C
S11348403327822B932B8F5F9F4F09F405C4FD01FF
S1134850838124819927582F44273327422B532BB4
S11348604115510521F18091A701082F112760916D
S1134870EC067091ED06A0E020E030E0E4EEF1E01B
S11348800EC0808191818617970731F084819581CC
S11348904817590708F4A1E02F5F3F4F38962017B7
S11348A0310714F4AA2369F3AA2309F4D0C310E04E
S11348B0E5ECF2E08081992780FF04C083FD02C00B
S11348C081FF1F5F3B9623E0E333F20799F711233F
S11348D0A1F10E949903612F77270E94BC2E00E06A
S11348E010E0E5ECF2E09081992349F0292F332779
S11348F023FD05C021FD03C081508F3F39F00F5FB8
S11349001F4F3B960A301105C1F0EDCF202F0F3F0A
S1134910A1F033278BE090E0289FF001299FF00D50
S1134920389FF00D1124E054FD4F808191810E9445
S1134930B00FB701802F0E948D07C6010E94A00806
S1134940182F682FC6010E94E4037C01153009F07A
S1134950F5C1F6011185008560E4C6010E94AF0827
S11349608B8347010894811C911CF70181811401F8
S11349700894211C311CF40121819927982F882740
S11349803327822B932B8F5F9F4F09F4A5C0812F70
S11349909927B82EAA24802F9927A82AB92A63E038
S11349A0462E512C4E0C5F1CF701838154E0652E7A
S11349B0712C6E0C7F1C24819927982F882733270C
S11349C0822B932B892B49F5C5010E94C5028F3F89
S11349D009F50E9445088F3F11F0B50119C080E028
S11349E00E945708182F8F3FA9F0282F33278BE0F8
S11349F090E0289FF001299FF00D389FF00D1124BD
S1134A00E054FD4F808191810E94B00FB501812F48
S1134A100E948D07C5010E94F602F201F080F301A5
S1134A20E080F4019080F1018080C5010E94DD02E4
S1134A308C01C5010E948008E82F8A3009F448C01F
S1134A408F2D9927782F66278E2D9927682B792B00
S1134A50892D9927582F4427882D9927482B592B7E
S1134A608091A701E81701F5065F1F4F0233110576
S1134A7078F52FB7F8943327FF27B3E0EE0FFF1F25
S1134A80BA95E1F7EC51FE4FB182A0825383428381
S1134A907583648381E0868317828091A7018F5F89
S1134AA08093A7012FBF14C08FB7F8949927FF27CD
S1134AB0A3E0EE0FFF1FAA95E1F7EC51FE4FB18280
S1134AC0A082538342837583648321E026838FBF4E
S1134AD06B81C5010E94800F60E8C6010E94AF0887
S1134AE0882309F42BC10E94CD1C28C1F601F38848
S1134AF085858F5F85876D3108F020C1C6010E94CE
S1134B009405882309F01AC120913F01822F992727
S1134B10B82F882309F43FC0A0913D01A20F38C0EB
S1134B20AC3010F4EA2F02C0EA2FEC50FF27EE0F4E
S1134B30FF1FE253F94F0190F081E02D00811181B4
S1134B40F80120894189F601808961893327322F50
S1134B5022275527242B352B9927982F8827772709
S1134B60862B972B2817390799F4F8019289F601B7
S1134B708289981769F4F8019585F6018585981757
S1134B8039F4F8019389F6018389981709F4D6C09A
S1134B90A150B15029F6809190018823A1F0F6012B
S1134BA080818551082F1127602FC6010E94EF05CF
S1134BB0BC01FCE0FF1609F0C1C0402FC6010E94F1
S1134BC0FB056C01BBC080E02091A202222309F402
S1134BD081E0882309F0B2C09091A102992309F4DD
S1134BE081E0882309F0AAC0992309F4A7C0809121
S1134BF09007E82FFF27EE0FFF1FE356F84F0081C1
S1134C0011811182108291509093A1028F5F809341
S1134C1090078C3011F4109290070115110509F4D6
S1134C208DC0222309F48AC080917E02E82FFF27D9
S1134C30EE0FFF1FE05DFB4FE080F18011821082D8
S1134C4021502093A2028F5F80937E028C3011F456
S1134C5010927E02E114F10409F470C084E3F701B8
S1134C6011928A95E9F788E290E0C80ED91E8CE08B
S1134C70F60111928A95E9F788ED9FEFC80ED91EC7
S1134C80F801D182C0828FEF82838EE18383909179
S1134C903F019C3008F0D4C180913E01E82FFF27EA
S1134CA0EE0FFF1FE253F94F118300838F5F809350
S1134CB03E018C3011F410923E019F5F90933F01AE
S1134CC0CE0101960E941E058823B1F4F601868563
S1134CD027859927982F88273327822B932B29817F
S1134CE03A812817390740F00E94CD1C6CE170E02E
S1134CF08CE190E00E94CD1680915B0381FD02C09F
S1134D000E94080267011AC07FBF18C0F60111850E
S1134D10008584858078803811F40E94CD1CF601CA
S1134D20848560E086FD61E0812F9927982F88278C
S1134D30202F3327822B932B0E94800FD092470180
S1134D40C09246018FB7F894992710923A028FBF08
S1134D500E9454128AC10E94291C87C10E94661CA9
S1134D6084C190917D0280910901981709F47DC155
S1134D7090930901992319F40E94CF1776C18FEFFC
S1134D808093090172C18FB7F8941092970720910C
S1134D902D0440E0283009F441E030E0293009F4E2
S1134DA031E0442311F4332351F010922D04E091A7
S1134DB02E03FF27EE0FFF1FE556FD4F10829927A4
S1134DC08FBF442311F4332319F180918D078F5F32
S1134DD080938D0780918A028334A1F49FB7F8945D
S1134DE02091A8028091A702821741F0822F8F5F41
S1134DF08093A802863010F01092A802892F992778
S1134E008FBF0AC0A0E0442309F4A1E071E006C00A
S1134E10222311F010E069C0A0E070E08FB7F8948D
S1134E209927209126018FBF222341F08FB7F89450
S1134E3099272AE020932D048FBF43C08FB7F8949D
S1134E40992760919B0240919D028FBF8FB7F89480
S1134E50282F332750E09091A7028091A802981739
S1134E6009F451E02FBF552349F5662339F55FB79F
S1134E70F89482E080939B028FB7F894282F33270D
S1134E8040E09091A7028091A802981709F441E0AC
S1134E902FBF442311F080E006C0E091A802FF2751
S1134EA0E955FD4F828180939C02852F99278FBFFE
S1134EB083E480938A0210922E030BC04150423047
S1134EC010F010E007C085E480938A0281E08093AB
S1134ED02E0311E0772349F08FB7F8949927A09314
S1134EE02F018FBF81E10E94B80180912D048A3087
S1134EF019F40E948806B9C0112309F4B6C02FB76B
S1134F00F89433271092B6071092B50710928202D4
S1134F1081E080932D042FBF0E94E006882309F4CA
S1134F20A4C08FB7F894992729E020932D048FBF4C
S1134F300E940D029AC0569857981092FC03109242
S1134F407202539A549A579A90C080E10E94B80111
S1134F508CC05398549889C010922C0110922B0144
S1134F608FB7F894992740912F018FBF809130011A
S1134F70811143E02091290130912A01809131016E
S1134F80882309F072C080911901882309F06DC04B
S1134F9060914F07709150076217730709F065C05D
S1134FA00E94710262C00E94F4195FC021E0D22EF7
S1134FB0EE24FF2401EB12E090918F078D2D8923BD
S1134FC071F0F80160817181118210828D2D8095BC
S1134FD0982390938F0743E08E2D0E9476170894B0
S1134FE0E11CF11C0E5F1F4FF8E0EF16F104E9F12C
S1134FF0DD0CE2CF80911301E82FFF27EE0FFF1F96
S1135000EF54FD4F6081718141E00E9492172DC0E1
S11350100E9479152AC00E94471827C00E94DC1CF0
S113502024C00E94991521C00E948C011EC00E94B8
S1135030B7021BC0F6018385813709F07FCE66CEA7
S1135040C7010E94BB05C8010E94D50577CE65E063
S1135050C6010E94E40307C0C6010E94A008682F8D
S1135060C6010E94E4037C0174CC23960FB6F89425
S1135070DEBF0FBECDBFDF91CF911F910F91FF9087
S1135080EF90DF90CF90BF90AF909F908F907F90E4
S11350906F905F904F903F902F9008958091860776
S11350A08F3FB1F0282F3327F901E755FE4F808158
S11350B0809386078F3F11F480939B078FEF808343
S11350C02F3F31F0822F0E94992081E090E00895D3
S11350D080E090E0089578941F920F920FB60F929B
S11350E011242F923F924F925F926F927F928F92F0
S11350F09F92AF92BF92CF92DF92EF92FF920F9363
S11351001F932F933F934F935F936F937F938F934B
S11351109F93AF93BF93CF93DF93EF93FF93CCB55C
S1135120DDB580E286BF8FB7F894282E0E94DF0891
S11351309E01261B370B2901662457FC6094762CAC
S1135140460E571E681E791E809120019091210100
S11351508530910521F0069709F0E0C0BFC086E0D4
S113516090E0909321018093200131E0332E30921E
S113517038021092220180E00E94B709E091770280
S1135180F091780241AABB27A72D962D852D80ABDF
S1135190C301AA27BB2787A7872D9927AA27BB273F
S11351A086A7E0917702F091780285A5882309F417
S11351B084C06081655077274F01860E971EF401E5
S11351C02081E1808281A3809927AA27BB27BA2F57
S11351D0A92F982F8827332744275527522F442750
S11351E033272227FF24002711278701FF24EE24D9
S11351F02E293F29402B512BBB24CC24DD242A29E2
S11352003B294C295D29822B932BA42BB52B841984
S11352109509A609B7098383292F3A2F4B2F5527C0
S113522022839D014427552721838B2F9927AA2761
S1135230BB278083C09824E0A40180E090E00E9412
S11352407610C09AF4012081E1808281A38099279D
S1135250AA27BB27BA2FA92F982F8827332744279B
S11352605527522F442733272227FF2400271127AD
S11352708701FF24EE242E293F29402B512BBB24E8
S1135280CC24DD242A293B294C295D29822B932B0C
S1135290A42BB52B840D951DA61DB71D8383292F23
S11352A03A2F4B2F552722839D01442755272183CD
S11352B08B2F9927AA27BB278083E0917702F0914F
S11352C07802818185FF02C03092A80183E00E94A8
S11352D0011287B78F7E87BF84997AC010923802F3
S11352E081E00E94B709E0917702F0917802818110
S11352F085FF0FC087E090E0909321018093200107
S11353000E94DF0820E031E040E050E00E949C0968
S113531003C080E00E949A16849B5AC080912201A7
S1135320882391F580913802882371F511E0109358
S113533038020E94B70980B320918507283098F479
S1135340E0918E07E20FFF27E770F070EE0FFF1F6A
S1135350EE0FFF1FE15DF84F40825182628273823B
S11353602F5F2093850710932201D0939A02C09354
S1135370990284992DC0992754E0969587955A955A
S1135380E1F7182F117001C010E0809138028130CC
S1135390F9F4109238020E94B709109222011123E5
S11353A0B9F48091990290919A02C81BD90B2A975B
S11353B078F480918507882319F0815080938507BC
S11353C08091770290917802009711F00E94D008A2
S11353D02FBEFF91EF91DF91CF91BF91AF919F913C
S11353E08F917F916F915F914F913F912F911F9179
S11353F00F91FF90EF90DF90CF90BF90AF909F9070
S11354008F907F906F905F904F903F902F900F9070
S11354100FBE0F901F90189578941F920F920FB69D
S11354200F9211241F932F933F934F935F936F9386
S11354307F938F939F93AF93BF93EF93FF9387B71C
S11354408F7E87BF78941FB7F894809183029091E0
S11354508402A0918502B09186020097A105B1054E
S113546009F051C08091200190912101853091056E
S113547061F18630910530F48330910549F0049749
S113548081F51AC087309105F1F0089751F514C0E1
S1135490869B0FC084E090E09093210180932001CB
S11354A00E94DF0827E030E040E050E00E949C09C1
S11354B018C00E94E01D15C00E94710F882389F452
S11354C00E940A1E0EC080E00AC089E00E94E71014
S11354D081E00E94B70983E00E94011287E00E94E4
S11354E09A1680911B0190911C01019771F482E03E
S11354F090E090931C0180931B01DE98DE9A80E07B
S11355000E94F60E02C00E94FC08812F99278FBFCB
S1135510FF91EF91BF91AF919F918F917F916F9187
S11355205F914F913F912F911F910F900FBE0F905C
S11355301F901895CFEFD0E1DEBFCDBFFFB6F89432
S11355404CE150E06FEF70E089EA91E00E948A2E0E
S11355508FEF8093860780939B0781E08EBD88E060
S113556080BF83E083BF8CB59DB54AE72CB53DB5BC
S11355702817390708F44150442311F0C901F6CF24
S113558092B782B78917E9F32CB53DB592B782B7C4
S11355908917E9F38CB59DB5821B930B409665E0A2
S11355A0969587956A95E1F7909388078093870786
S11355B013BE83B78EBD8EB580BF12BE1DBC1CBC8E
S11355C08FEF86BF86B780937C0080B7992787705A
S11355D09070892BD1F7D29AD19AD09ADA9AD99A23
S11355E0D89A15BA8FEF84BBD498DC9810928900AE
S11355F01092880080917D00846080937D0080916A
S11356008A00887F826080938A001DBC1CBC87B797
S1135610846087BF8EB5887F84608EBD80E285BF3D
S11356200E944E288823E1F71092A50210928F0160
S1135630EDE9F7E08DEF93E081939193049627E0F1
S1135640E53BF207C9F78CE08093A1021092900722
S1135650E0E3F4E08CE594E081939193C49624E034
S1135660E834F207C9F78CE08093A20210927E021C
S113567010924201109243011092890710928A07F6
S113568010928B0710928C07109290018FEF9FEF6E
S11356909093ED068093EC061092EF061092EE06BE
S11356A01092F0061092F1061092A7018FB7F894A9
S11356B0992720910601309107018FBF3093490447
S11356C0209348046AE18CE392E00E94E4039093FF
S11356D088028093870287EC93E0909392028093F0
S11356E091028FB7F8949927209106013091070110
S11356F08FBF3093C8012093C7011092A501E5EC38
S1135700F2E010823B9683E0E333F807D1F780E0C0
S113571094E09093490180934801109252011092B1
S11357204A0110924B0110924C0110924D011092BB
S11357304E0110924F01109250011092510110929B
S1135740BF021092FB0312E006E06091870770919C
S11357508807882799275CE0660F771F881F991FA1
S11357605A95D1F720E031EE40E050E00E94E32E5C
S11357702150304029B9832F9927809390001BB979
S1135780009395001AB82093990080939800109381
S11357909B0000939D0010929A0084E490E0909303
S11357A0F3068093F20610929B0210929D021092CF
S11357B02D041092820210928A0210928D07109288
S11357C0B6071092B5071092970710922E03109205
S11357D0E8061092E70610923B0210922F041092F2
S11357E0F606109273021092BC021092BB02109241
S11357F0A8021092A702E1E9F1E08FEF9FEF9183F5
S113580080831282339621E0ED39F207C1F70E94BA
S113581010036093CD0680910001909101010196DF
S1135820AA27BB278093790290937A02A0937B02E4
S1135830B0937C0280B7886080BF8BE083BF86EE24
S113584081BF87B7826087BF0E94F00681E597E039
S113585090934701809346018E98B89A8C988FEF65
S11358608093890210924F041092500410925104B4
S113587010925204B89AD69AD59A8FB7F894992769
S113588020910601309107018FBF3093900220933D
S11358908F02809108019927909375028093740276
S11358A08FE180934A048AE180935B0481E08093D2
S11358B0E101109292078093760210925A040E949A
S11358C04E288823E1F78F2D99278FBF78948EE097
S11358D00E94B80161E081E00E94F0038823E9F4AA
S11358E08FB7F894282F332780911B0190911C01C6
S11358F0892B11F02FBF1BC081E090E090931C0115
S113590080931B012FBFDD9A0E94DF0824E130E061
S113591040E050E00E949C090AC062E081E00E94DD
S11359200A04882321F461E081E00E940A048FB70D
S1135930F894482F552749C087B7992783709070EA
S1135940892B19F4E5E0F0E013C080B7992787703C
S11359509070892BD1F781B792B7891B8C3030F0C6
S113596082B7853F18F4E3E0F0E002C0E2E0F0E043
S113597087B7887BC1F480917D008B7FA1F46E99F9
S113598012C08AB190919A00892B807C61F4809135
S1135990740082FD08C0379B03C081E090E005C01D
S11359A085E090E002C080E090E025B78E1708F40F
S11359B0E82FFF27EC53FD4FC895E02D237E20628E
S11359C0E22BE5BF78948895F894809186078F3F01
S11359D009F4B2CF282F3327F901E755FE4F808110
S11359E0809386078F3F11F480939B078FEF80830A
S11359F02F3F09F4A1CF4FBF822F0E94992097CF48
S1135A00ACE2B0E0E6E0FDE20C94052F222E332E4A
S1135A10442E552E662E772E882E992EFE01319611
S1135A20A8E01192AA95E9F729823A824B825C8216
S1135A306D827E828F829886FE013996B8E011923B
S1135A40BA95E9F7A986BA86CB86DC86ED86FE860A
S1135A500F87188B89819A81AB81BC8189A79AA70A
S1135A60ABA7BCA77C018D018FEF9FEFA0E0B0E056
S1135A70E822F9220A231B2389A59AA5ABA5BCA574
S1135A801D014424552489859A85AB85BC858DA345
S1135A909EA3AFA3B8A75C016D018FEF9FEFA0E0B9
S1135AA0B0E0A822B922CA22DB228DA19EA1AFA117
S1135AB0B8A53D0188249924C801B701A601950120
S1135AC00E94912E69A37AA38BA39CA3C801B7015A
S1135AD0A40193010E94912E7B018C01C201B101AA
S1135AE0A60195010E94912E5B016C01C201B101D6
S1135AF0A40193010E94912E3B014C01EA0CFB1C72
S1135B000C1D1D1D89A19AA1ABA1BCA19D01442717
S1135B1055272E0D3F1D401F511F2A153B054C05CF
S1135B205D0540F480E090E0A1E0B0E0680E791EED
S1135B308A1E9B1ECA01AA27BB27860D971DA81D76
S1135B40B91D8D8F9E8FAF8FB8A3A901332722274C
S1135B5089A19AA1ABA1BCA1A070B070280F391F74
S1135B604A1F5B1F298F3A8F4B8F5C8FA98CBA8C8D
S1135B70CB8CDC8CED8CFE8C0F8D18A1FE01719604
S1135B8098E011929A95E9F7ED8AFE8A0F8B188FA7
S1135B902D813E814F8158856DA17EA18FA198A54D
S1135BA00E94912E3B014C012D853E854F855889DD
S1135BB069A57AA58BA59CA50E94912E2D893E8965
S1135BC04F89588D260F371F481F591F260D371D23
S1135BD0481D591D2D8B3E8B4F8B588F6D887E88A9
S1135BE08F88988C2A2D3B2D4C2D5D2D662D772D7D
S1135BF0882D992DE2E1AC960C94212FA0E1B0E020
S1135C00E4E0FEE20C94052F222E332E442E552E72
S1135C10662E772E882E992E002309F466C088E01C
S1135C20FE01319611928A95E9F729833A834B83D1
S1135C305C836D837E838F829887E0E2E01B1E166F
S1135C40CCF52D813E814F815885602F772767FDE4
S1135C507095DA01C901062E04C0B695A7959795EB
S1135C6087950A94D2F78D879E87AF87B88B04C037
S1135C70220F331F441F551FEA95D2F789819A8159
S1135C80AB81BC8104C0B695A795979587956A9515
S1135C90D2F7282B392B4A2B5B2B29873A874B8742
S1135CA05C8729843A844B845C846D847E848F84ED
S1135CB098881BC01D861E861F86188A2E2F3327A0
S1135CC027FD3095309521953F4F8D819E81AF8181
S1135CD0B88504C0B695A795979587952A95D2F768
S1135CE089879A87AB87BC87DCCF222D332D442D3F
